:020000040800F2
:1000000040060024AD020008553A00084D330008B0
:100010006939000833080008AD45000800000000F9
:10002000000000000000000000000000993C0008F3
:100030003508000800000000573A00089B3C000803
:10004000C7020008C7020008C7020008C70200086C
:10005000C7020008C7020008C7020008C70200085C
:10006000C7020008C7020008C7020008C70200084C
:10007000C7020008C7020008C7020008C70200083C
:10008000C7020008C7020008C7020008C70200082C
:10009000C7020008C7020008C7020008C70200081C
:1000A000C70200081D3E0008C7020008C70200087A
:1000B000293E0008C7020008C7020008C70200085E
:1000C000C7020008C7020008C7020008C7020008EC
:1000D000C7020008C7020008C7020008C7020008DC
:1000E000C7020008C702000800000000C70200089D
:1000F000C7020008C7020008C7020008C7020008BC
:10010000C7020008C7020008C7020008C7020008AB
:10011000C7020008C7020008C7020008C70200089B
:10012000C7020008C7020008C7020008C70200088B
:10013000C7020008C7020008C7020008C70200087B
:1001400000000000000000000000000000000000AF
:10015000C7020008C7020008C7020008C70200085B
:10016000C7020008C7020008C7020008C70200084B
:10017000C7020008C7020008C7020008C70200083B
:10018000C7020008C7020008C7020008C70200082B
:10019000C7020008C7020008C7020008C70200081B
:1001A000C7020008C7020008C7020008C70200080B
:1001B000C7020008C7020008C7020008C7020008FB
:1001C000C7020008C7020008C7020008C7020008EB
:1001D000C7020008C7020008C7020008C7020008DB
:1001E000C7020008C7020008C7020008C7020008CB
:1001F000C7020008C7020008C7020008C7020008BB
:10020000C7020008C7020008C7020008C7020008AA
:10021000C7020008C7020008C7020008C70200089A
:10022000C7020008C7020008C7020008000000005B
:10023000C7020008C702000800000000C70200084B
:10024000C7020008C7020008C7020008C70200086A
:10025000C7020008C7020008C7020008C70200085A
:10026000C7020008C7020008C7020008C70200084A
:10027000C7020008C7020008C7020008000000000B
:10028000C7020008C7020008C702000800000000FB
:1002900000000000C7020008DFF80CD000F048FAA8
:1002A000004800477556000840060024064880476D
:1002B00006480047FEE7FEE7FEE7FEE7FEE7FEE74B
:1002C000FEE7FEE7FEE7FEE7413D00089902000871
:1002D0002DE9F05F0546002092469B46884606467B
:1002E000814640241BE0284641464746224600F00E
:1002F00057F853465A46C01A914110D31146184632
:10030000224600F03EF82D1A67EB01084F462246C0
:100310000120002100F035F817EB00094E41201EA6
:10032000A4F10104DFDC484631462A464346BDE8D5
:10033000F09FD2B201E000F8012B491EFBD27047BA
:100340000022F6E710B513460A4604461946FFF7A1
:10035000F0FF204610BD30B50B460146002020229C
:10036000012409E021FA02F59D4205D303FA02F5C2
:10037000491B04FA02F52844151EA2F10102F1DC22
:1003800030BD202A04DB203A00FA02F10020704739
:100390009140C2F1200320FA03F3194390407047C3
:1003A000202A04DB203A21FA02F00021704721FACA
:1003B00002F3D040C2F12002914008431946704731
:1003C0002DE9FE4F804681EA0300C00F0C460090E5
:1003D00021F0004123F00045B8EB0200A94105D20D
:1003E0004046214690461C460B46024623F00040FC
:1003F000104347D0270DC7F30A00C3F30A510290F8
:10040000401A019040286BDAC3F3130040F4801BBC
:100410000098924620B10023D2EB030A63EB0B0B4A
:1004200001985946C0F140025046FFF7AAFF064620
:100430000D4650465946019A00F08CF910EB080021
:100440006141002487EA115284EAE7731A4340D0DD
:10045000009A62B3019A012A4FEA075215DC001B89
:1004600061EB02014FF0004202EA0752CDE900427F
:10047000001C41F5801132462B4600F08CF903B088
:10048000BDE8F08F40462146F9E7001B61EB020111
:10049000001C41F5801300185B412018A2F50017DD
:1004A00047EB030140EAD570B6196D4111E06D08C4
:1004B0004FEA360645EAC0754FEA0752001B61EB6A
:1004C0000201001C41F5801149084FEA3000001973
:1004D000514132462B4603B0BDE8F04F00F04CB915
:1004E0000098012240000023D0EB020263EBE0738E
:1004F000009821464FEAE074B8EB000061EB04017C
:10050000E9E783F000435BE781F0004158E72DE91C
:10051000FE4F81EA030404F0004421F000410094FE
:100520004FF0000B23F0004350EA01045ED052EA82
:1005300003045BD0C3F30A54C1F30A552C44A4F25C
:10054000F3340194A0FB0254C1F3130141F4801170
:10055000C3F3130343F4801301FB024400FB034E77
:10056000840A970A44EA815447EA8357A4FB076840
:1005700002958D0A05FB07854FEA932C04FB0C546A
:100580002705029D4FEA065847EA1637B5EB0805DE
:100590006EEB070C870E920E47EA811742EA831230
:1005A000A7FB0201B6EB0B0164EB00042B0D43EA41
:1005B0000C335E1844EB1C50DA465146E7FB02014F
:1005C000C5F313044FEA0B3343EA14534FEA0432E2
:1005D000019C43EA0603A4F10C040294009CCDE9BB
:1005E00000B400F0D8F803B0BDE8F08F0020014659
:1005F000F9E72DE9F04D81EA030404F0004B21F006
:10060000004514464FF0000A23F0004150EA05026D
:1006100020D054EA01021DD0C5F30A570246C5F3A3
:100620001303C1F31300C1F30A5640F4801543F4D9
:100630008013A7EB0608101BD64608F2FD3873EBB3
:10064000050002D308F1010801E092185B41B8F1FE
:10065000000F03DA00200146BDE8F08D00204FF4C2
:100660008011064684460EE0171B73EB050705D381
:10067000121B63EB050306434CEA010C49084FEAE1
:10068000300092185B4150EA0107EDD152EA0300B5
:1006900012D082EA040083EA0501084305D0101B4A
:1006A000AB4106D20122002306E000224FF00043B6
:1006B00002E06FF0010253101AEB06004CEB0851F8
:1006C00010EB0A0041EB0B01BDE8F04D00F054B80F
:1006D000C1F30A52C1F3130140F2FF3341F4801118
:1006E0009A4202DA00200146704740F233439A42B0
:1006F000A2F2334202DC5242FFF752BEFFF741BE84
:1007000030B5041E71F1000404DB4FF00044404298
:1007100064EB0101141E73F1000405DB1C464FF06D
:100720000043524263EB0403994208BF904230BD3C
:10073000064C074D06E0E06840F0010394E807002E
:1007400098471034AC42F6D3FFF7AAFDC058000812
:10075000E0580008202A06DBCB17203A41FA02F0C5
:1007600043EAE07306E041FA02F3D040C2F120020E
:10077000914008431946704710B5141E73F10004E8
:1007800008DA401C41F1000192185B411A4301D183
:1007900020F0010010BD2DE9F04D92469B4611B1AD
:1007A000B1FA81F202E0B0FA80F220329046FFF70F
:1007B000E8FD04460F4640EA0A0041EA0B015346B1
:1007C0005A46084313D0114653EA010019D0C8F124
:1007D00040025046FFF7E4FD05460E465046594696
:1007E0004246FFF7CEFD084305D0012004E0204635
:1007F0003946BDE8F08D0020054346EAE0762C43FB
:1008000037430A986305E40AA0EB08000022FD0ABA
:1008100044EA47540A3002D500200146E9E70105C1
:1008200010196941DDE9084500196941BDE8F04D3D
:10083000A2E7FEE7704772B6FEE7000070B52DED47
:10084000108BF0EE409AB0EE008A8AB00546F6EEC4
:10085000001AF7EE008A29EEA19A0E46FA4CFB48E0
:1008600094ED010A94ED032AD4ED000A94ED021AE6
:1008700020EE020A00EEC10A20EE080A8DED000A01
:1008800094ED000AD4ED011AD4ED020A94ED031A96
:1008900020EE210A00EE810A20EE080A8DED010A01
:1008A00094ED010AD4ED011A94ED021AD4ED020A76
:1008B00020EE210A01EE200AF0EE680A40EE480A16
:1008C000CDED020AB0F9001000EE101AB0F90210D6
:1008D000B0F90400B8EEC00A00EE901A01EE100A5A
:1008E000F8EEE01A20EE000AF8EEE00AB8EEC12AAF
:1008F000B8EEC11A01EEA00A02EE010AB7EEC00A74
:1009000004F076F9D248A4F10C01B0EE401BB7EE2A
:1009100000AB9FEDD00A8AEE012BF7EEC20BC1EDC2
:10092000020AB5F9002001EE102AB8EEC11A21EE34
:10093000201A8DED031AB5F9022001EE102AB8EE47
:10094000C11A21EE201A8DED041AB5F9042001EE2A
:10095000102AB8EEC11A61EE200ACDED050ADDEDD0
:10096000040A9DED022A9DED051ADDED011A60EEE7
:10097000820A41EE610ACDED060ADDED050A9DED24
:10098000002ADDED031A9DED021A60EE820A41EEA7
:10099000C10ACDED070ADDED030A9DED012A9DEDAB
:1009A000041ADDED001A60EE820A41EE610ACDED17
:1009B000080A90ED001AD1ED010ADDED061A01EEEC
:1009C000A01A80ED001A90ED011ADDED071A01EE74
:1009D000A01A80ED011A90ED021ADDED081A01EE61
:1009E000A01A80ED021AB5F90620DDED061A01EE17
:1009F000102AD1ED000A90ED002AB8EEC11A21EEBE
:100A0000001A00EEA11A31EE021A8DED001AB5F9A6
:100A10000810DDED071A01EE101A90ED012AB8EE6C
:100A2000C11A21EE001A00EEA11A31EE021A8DED64
:100A3000011AB5F90A109DED082A01EE101AD0ED41
:100A4000021AB8EEC11A21EE000A00EE820A30EE58
:100A5000210A8DED020AD4ED010A9DED00FAD4EDD4
:100A600002CA9DED01DA6FEE600A94ED031A9DED66
:100A700000EA94ED000ADDED00EAD4ED011ADDEDA7
:100A800001DA4CEECD0A21EE0E1AD4ED035A9DED9B
:100A9000026AD4ED007A9DED01BA20EE2E0A61EED5
:100AA000AD1AD4ED03BA9DED01CAD4ED026A9DEDF5
:100AB000007A07EE8B1A45EEC60A0BEECC0A46EE1C
:100AC000C71AD4ED013A9DED024AD4ED024A9DEDDC
:100AD000025AD4ED002A9DED023A03EEC41A60EEEC
:100AE000890A94ED002A04EE850A42EE831A32EE5A
:100AF000202A61EE090A84ED002A20EE090A21EE7F
:100B0000891AD4ED011A31EE800A84ED010A94EDC0
:100B1000020A30EE200A84ED020A94ED030A30EE58
:100B2000010A84ED030A94ED000AD4ED003AD4EDF5
:100B3000012A94ED013A20EE230A94ED022AD4ED25
:100B4000021AD4ED030A02EE830A94ED031A02EEB0
:100B5000210A00EE810AB7EEC00A04F049F88AEED5
:100B6000002B94ED001AF7EEC20B21EE200A84ED63
:100B7000000A94ED010A20EE200A84ED010A94EDAA
:100B8000020A20EE200A84ED020A94ED030A20EE08
:100B9000200ADFED310A84ED030AB5F90A0000EE00
:100BA000100AB8EEC00A60EE200A10EE900AB0F10A
:100BB0007E5F04DC10EE900A10F1814F05D996EDAE
:100BC000020A00EEA90A86ED020AD4ED001A94ED9D
:100BD000020A94ED011A61EE881AD4ED030A21EE9F
:100BE000081A21EE800A01EE600AB7EEC00A03F08F
:100BF0001BFD9FED1A9B20EE090BB7EEC00B86ED97
:100C0000010A94ED012A94ED010A94ED023A22EED4
:100C1000082A94ED021A23EE083AD4ED023A42EE85
:100C2000408AD4ED031A63EE883AD4ED002AD4ED5D
:100C3000010A43EE418A62EE882A23EEA10AB7EE4A
:100C4000E81A02EEA00A0DE06C0000240402002461
:100C5000340200242E9E8B3AF6FF793D00000020DE
:100C6000DCA54C40B7EEC00A03F0E2FE20EE090B13
:100C70000DA0B7EEC00B86ED000AB7EEC01A8DEDE1
:100C8000021B96ED010AB7EEC00A8DED000B96ED42
:100C9000020AB7EEC00A53EC102B03F089FC0AB02D
:100CA000BDEC108B70BD0000646174613A25662C48
:100CB00025662C25660A000070B5044600F02AF966
:100CC0000546601C02D004480078044400F022F974
:100CD000401BA042FAD370BD000000242DE9F84F5C
:100CE00003247D4D00234FF001094FF0B04B4FF02E
:100CF0000F0AE9E009FA03F73A4076D00E7906F0D8
:100D00000306012E01D0022E18D1D0F808C04FEAF8
:100D1000430ECE6804FA0EF82CEA080C06FA0EF61A
:100D200046EA0C068660D0F804C00E792CEA070C5F
:100D3000C6F300169E4046EA0C0646600E79F6435E
:100D4000B6070BD0C6684FEA43088F6804FA08FC60
:100D500026EA0C0607FA08F73743C7600E7906F053
:100D60000306022E12D1DE080F694FEA437C00EB26
:100D70008606B646366A4FEADC6C0AFA0CF807FAC1
:100D80000CF726EA08063743CEF820700F7906687C
:100D90004FEA430807F0030704FA08FC07FA08F7CC
:100DA00026EA0C06374307604E6816F4403F1CD015
:100DB0004A4E376847F00207376036689F0706F0EB
:100DC0000206009623F0030606F1B046B6463F0F32
:100DD000D6F80864DFF808810AFA07FC404526EADD
:100DE0000C0603D14FF0000C41E06CE0DFF8F4C0DA
:100DF000604502D14FF0010C39E0DFF8ECC06045EE
:100E000002D14FF0020C32E0DFF8E0C0604502D1C1
:100E10004FF0030C2BE0DFF8D8C0604502D14FF053
:100E2000040C24E0DFF8CCC0604502D14FF0050C83
:100E30001DE0DFF8C4C0604502D14FF0060C16E09B
:100E4000DFF8B8C0604502D14FF0070C0FE0DFF8C3
:100E5000B0C0604502D14FF0080C08E0DFF8A4C034
:100E6000604502D14FF0090C01E04FF00A0C0CFA7A
:100E700007FC4CEA060CCEF808C44F68DBF80060AB
:100E8000FF0226EA020600D516435F46CBF8006053
:100E9000D1F804C0DBF804605FEA8C2C26EA020675
:100EA00000D516437E606E684F6826EA0206BF03CF
:100EB00000D516436E602E684F6826EA0206FF03CF
:100EC00000D516432E605B1C0A6832FA03F67FF4E5
:100ED00011AFBDE8F88F000080000058F4440258BC
:100EE000000002580004025800080258000C025882
:100EF000001002580014025800180258001C025832
:100F0000002002580024025801480068000C704775
:100F10000010005C01488068704700000000002459
:100F200030B590F84120202A24D190F84020012AA1
:100F300020D0012380F84030242280F84120202353
:100F400000240268156825F001051560026815681F
:100F500025F480551560026815680D431560016819
:100F60000A6842F001020A6080F8413080F840408F
:100F7000002030BD022030BD30B590F84120202A3D
:100F800022D190F84020012A1ED0012380F8403061
:100F9000242280F84120202400250268136823F0D1
:100FA000010313600268136823F4706343EA0121AC
:100FB000116001680A6842F001020A6080F841404D
:100FC00080F84050002030BD022030BD70B50400D4
:100FD00004D094F84100002510B106E0012070BD56
:100FE000204684F8405000F0ABF9242084F84100FA
:100FF0002068016821F001010160D4E9001020F0AF
:10100000706008612068816821F400418160E068B7
:1010100021680128A06806D040F404408860E06898
:10102000022803D006E040F40040F7E721684FF4BF
:101030000060486020212068114A436813434360E0
:101040002068C26822F40042C26054F8106B0DCCD4
:10105000104340EA0320F06054F81C3CD4E900023D
:101060001043186054F81C0D026842F0010202603F
:10107000656484F84110256384F84250002070BDF7
:10108000008000022DE9FF4F83B0044690F8410034
:101090009A469346DDE91087DDF84890202874D100
:1010A0005FEA080014D09FB194F8400001286CD08A
:1010B000012084F84000FFF72DFF01220646192386
:1010C0000090D103204602F057FA002871D103E0C6
:1010D0004FF4007060646CE00025C4F82480222185
:1010E00084F84110402084F84200656467855346C7
:1010F00065635A4604992046CDE9009602F0C0F98E
:1011000010B184F8405054E0618DFF2734484FF00F
:101110008078FF294FF0007A04D927853A46434664
:10112000009005E0618D53462185009094F82820B9
:101130002046049902F008FA00224B46042120467A
:10114000009602F019FAA0BB2068616A406A087034
:10115000606A401C6062208D401E81B22185608DD6
:10116000401E6085608DD8B1D1B900224B468021E8
:101170002046009602F000FAD8B9608DFF2805D904
:1011800027853A464346009506E026E0608D5346A3
:101190002085009594F828202046049902F0D4F97F
:1011A000608D0028C8D132464946204602F01BFA1D
:1011B00018B1012007B0BDE8F08F21682020094A4E
:1011C000C86121684B6813404B6084F8410084F883
:1011D0004250002084F84050ECE70220EAE700008B
:1011E0000024008000E800FE2DE9FF4F83B0044694
:1011F00090F841009A469346DDE91087DDF8489063
:10120000202871D15FEA080014D09FB194F8400003
:10121000012869D0012084F84000FFF77BFE0122FD
:10122000064619230090D103204602F0A5F90028B4
:101230006ED103E04FF40070606469E00025C4F8EB
:101240002480212184F84110402084F84200656404
:101250006785534665635A4604992046CDE9009652
:1012600002F040F910B184F8405051E0608DFF2742
:101270004FF08078FF284FF0007A04D927853A464E
:101280004346009505E0608D53462085009594F80F
:1012900028202046049902F057F932464946204654
:1012A00002F0CDF9A0BB606A216800788862606AAC
:1012B000401C6062608D401E6085208D401E80B2A3
:1012C0002085618DD9B1D0B900224B4680212046BE
:1012D000009602F051F9D8B9608DFF2805D927850D
:1012E0003A464346009506E026E0608D5346208549
:1012F000009594F828202046049902F025F9608D85
:101300000028CAD132464946204602F06CF918B18D
:10131000012007B0BDE8F08F20682021074AC16195
:10132000206843681340436084F8411084F84250B9
:10133000002084F84050ECE70220EAE700E800FED5
:1013400010B5B6B00446142130A8FEF7F9FFC0214D
:101350006846FEF7F5FF1849206888422AD1002028
:10136000219008210446CDE90010684600F090FA6B
:1013700008B1FFF760FA1148016841F0020101600D
:10138000006830AB122100F002003590C02004222A
:1013900083E813000A4830A9CDE93342FFF79EFCE9
:1013A00006480830016841F400110160006800F44B
:1013B0000010359036B010BD00540040E044025893
:1013C0000004025802488168027811448160704725
:1013D00000000024032010B500F0C8F801F0D0F898
:1013E0000F4A104914681368C4F3032203F00F0373
:1013F0008A5CC95C02F01F0201F01F01D0400A4A5A
:1014000020FA01F11160094908600F2000F010F87E
:1014100008B1012010BD00F06DF8002010BD0000E3
:1014200018440258BE570008100000240C00002485
:1014300010B5102804468AB02AD20022014619208D
:1014400000F074F8192000F063F81548046015489E
:10145000016841F001010160006808A900F0010085
:101460000990684601F018F801F078F80E4940003C
:1014700000220E4CB0FBF1F10D4840F2E73304605E
:10148000C0E90332491EC0E9011201F02BFC10B182
:1014900001200AB010BD064801F072FCF9E7000017
:1014A00004000024F044025840420F0000000140B4
:1014B000B8010024BFF35F8F044800210368034A8A
:1014C00023F48033036070321160704724ED00E034
:1014D000074A40F00100064970321060086840F485
:1014E00080300860BFF34F8FBFF36F8F70470000ED
:1014F00024ED00E0054808B5016841F002010160F3
:10150000006800F00200009008BD0000F44402589A
:10151000002809DB410900F01F028900012001F1C8
:10152000E0219040C1F80001704700000E4BF0B47C
:101530001B680D46C3F30223C3F10706042E00D92E
:101540000426191D072901D2002300E0DB1E012417
:1015500004FA06F19C40491E2940641E994014403B
:101560002143F0BC03F04CB80CED00E0064900F05C
:10157000070210B54FF6FF040868044B204040EA0C
:1015800002201843086010BD0CED00E00000FA05D1
:10159000134970B50A68D243520705D5096801F0AE
:1015A0000701814213D118E00A6822F007020243C2
:1015B0000A60FFF7AFFC0A4D4FF47A760446083D07
:1015C00007E000BFFFF7A6FC001BB04201D90120D5
:1015D00070BD2868C0438004F4D4002070BD0000B2
:1015E0000C48025810B500F085FF05490968054A06
:1015F000C1F30211515C01F01F01C84010BD000091
:1016000020440258BE570008494930B5484C0B1DCC
:101610000A68143409681D68246802F00303C5F3DE
:101620000012C1F30531C4F3CC04002914FB02F20B
:1016300000EE102AF8EE400A75D03F4A9FED3D1AA1
:10164000B7EE000A6BB1DFED3D1A012B01D0022B82
:1016500064D002EE101A1168F8EE422A81EEA22A36
:1016600021E0334C283C23689B0612D5344B246878
:1016700001EE901A1168C4F3C104F8EE612AE34048
:1016800001EE903AC1F30801F8EE611A81EEA22A48
:101690000BE001EE901ADFED2B2A00BFF8EE611A85
:1016A000116882EEA12AC1F3080101EE901A1168B7
:1016B000F8EE611A40EE811A71EE800A62EE200A9D
:1016C000C1F3462101EE101AB8EE411A31EE001AAC
:1016D000C0EE811ABCEEE11A80ED001A1168C1F368
:1016E000064101EE101AB8EE411A31EE001AC0EEB2
:1016F000811ABCEEE11A80ED011A1168C1F306618E
:1017000001EE101AB8EE411A31EE000A80EE801A8E
:10171000BCEEC10A80ED020A30BD04E001EE901A71
:10172000DFED092ABAE70021016041608160F3E73B
:101730002844025800000039384402580024744AF2
:101740000090D0030024744C001B374B494930B53E
:10175000484C0B1D0A681C3409681D68246802F097
:101760000303C5F30022C1F30551C4F3CC040029DF
:1017700014FB02F200EE102AF8EE400A75D03F4A40
:101780009FED3D1AB7EE000A6BB1DFED3D1A012B5C
:1017900001D0022B64D002EE101A1168F8EE422A32
:1017A00081EEA22A21E0334C283C23689B0612D507
:1017B000344B246801EE901A1168C4F3C104F8EEAA
:1017C000612AE34001EE903AC1F30801F8EE611A94
:1017D00081EEA22A0BE001EE901ADFED2B2A00BF6A
:1017E000F8EE611A116882EEA12AC1F3080101EE38
:1017F000901A1168F8EE611A40EE811A71EE800AB3
:1018000062EE200AC1F3462101EE101AB8EE411A29
:1018100031EE001AC0EE811ABCEEE11A80ED001A1A
:101820001168C1F3064101EE101AB8EE411A31EE0B
:10183000001AC0EE811ABCEEE11A80ED011A11689F
:10184000C1F3066101EE101AB8EE411A31EE000A3A
:1018500080EE801ABCEEC10A80ED020A30BD04E0C1
:1018600001EE901ADFED092ABAE70021016041601C
:101870008160F3E7284402580000003940440258D0
:101880000024744A0090D0030024744C001B374B92
:101890002DE9FE4F0546DFF8E48350F8081B0024CD
:1018A000F64FC943019005F12800264608F12408A7
:1018B000009008011DD4A86E50B1B0F5801F0CD067
:1018C000B0F5001F0ED0B0F5401F1ED001240FE070
:1018D000386840F40030386017E00198022102F0C7
:1018E000BBF803E00098022102F046F904000CD096
:1018F00026462888C043C00523D4A86D05281ED2DB
:10190000DFE800F00C11161B1B00AA6ED8F80010BF
:1019100021F440111143C8F80010EAE7386840F498
:101920000030386009E00198002102F095F803E0EA
:101930000098002102F020F9044674B100E001246F
:1019400026462888C043800528D4E86D80281ED00C
:101950000CDC90B140280ED114E0AA6DD8F800102C
:1019600021F007011143C8F80010EAE7C02813D09E
:10197000B0F5807F10D001240FE0386840F40030CB
:10198000386009E00198002102F066F803E0009851
:10199000002102F0F1F804469CB126462888DFF8C1
:1019A000DC92C04309F12C0940052CD4D5F8A800DD
:1019B000B0F5800F20D00DDCA0B1B0F5001F0FD125
:1019C00015E0EA6DD8F8001021F4E0711143C8F871
:1019D0000010E3E7B0F5C00F13D0B0F5000F10D042
:1019E00001240FE0386840F40030386009E00198C5
:1019F000002102F031F803E00098002102F0BCF869
:101A000004467CB126462888C04300052DD4D5F86D
:101A1000AC00B0F1007F21D00EDCA8B1B0F1807F26
:101A200010D116E0D5F8A820D9F8001021F46001F3
:101A30001143C9F80010E6E7B0F1407F13D0B0F1D0
:101A4000806F10D001240FE0386840F40030386017
:101A500009E00198002101F0FFFF03E00098002158
:101A600002F08AF8044674B126462868C043800113
:101A70001FD4E86CD8B110280FD0202812D03028FD
:101A800015D0012414E0D5F8AC20D9F8001021F0CD
:101A9000E0611143C9F80010E7E7386840F400300E
:101AA000386004E00198022101F0D6FF044674B1C9
:101AB00026462888C043C0042BD4286EB0F5005FAA
:101AC00020D00DDCA0B1B0F5805F0FD115E06B48E0
:101AD000EA6C2030016821F0300111430160E8E731
:101AE000B0F5405F13D0B0F5804F10D001240FE067
:101AF000386840F40030386009E00198002101F0B6
:101B0000ABFF03E00098002102F036F804468CB1E8
:101B100026462888C043800429D4686EB0F5403F2B
:101B200023D010DC08B3B0F5803F14D0B0F5003FEF
:101B30000FD115E02A6ED8F8001021F4E0411143CE
:101B4000C8F80010E5E7B0F5802F0ED0B0F5A02F53
:101B50000BD001240AE00198012101F07DFF03E090
:101B60000098012102F008F8044694B1264628881E
:101B7000C04340042AD4D5F8B000B0F1405F23D070
:101B800010DC08B3B0F1805F14D0B0F1005F0FD16A
:101B900015E06A6ED8F8001021F4E0211143C8F86E
:101BA0000010E4E7B0F1804F0ED0B0F1A04F0BD0A1
:101BB00001240AE00198012101F04EFF03E00098A2
:101BC000012101F0D9FF044674B126462888C0439C
:101BD00000041FD4286FD8B1B0F1805F0ED0B0F1EF
:101BE000005F10D0012414E0D5F8B020D9F800101F
:101BF00021F0E0411143C9F80010E7E7386840F4EC
:101C00000030386004E00198012101F025FF04460E
:101C100074B126462868C043C0011ED4A86CD0B158
:101C200001280ED0022811D0032814D0012413E07B
:101C30002A6FD8F8001021F040511143C8F8001065
:101C4000E8E7386840F40030386004E00198022189
:101C500001F002FF0446ACB126462868DFF81CB04C
:101C6000C043ABF11C0B400252D40548016841F45B
:101C700080710160FFF74EF9824611E02C44025852
:101C800000480258FA48AA6C016821F00301114388
:101C90000160E2E7FFF73EF9A0EB0A00642835D8BF
:101CA000F4480068C005F5D58CBBDFF8C4A3B5F8CF
:101CB000B4100AF1240ADAF8000001F4407100F4CB
:101CC0004070884211D0DAF80010DAF8002021F4D0
:101CD000407142F48032CAF80020DAF8002022F481
:101CE0008032CAF80020CAF80010D5F8B400B0F568
:101CF000807F1AD1FFF70EF9029012E0FFF70AF980
:101D00000299411A41F2883081420AD903242646B9
:101D10002878DFF85CA3C0430AF1080AC00721D085
:101D20003CE0DAF800008007E8D5D5F8B410C1F33C
:101D30000120032858460DD0016821F47C51016030
:101D4000B5F8B420DAF80010C2F30B021143CAF858
:101D50000010DDE7C84A036802EA111223F47C513F
:101D60001143ECE7E86F182816D005DCA0B108286D
:101D700008D0102804D10AE020280DD028280BD044
:101D800001240AE00198012101F066FE03E00098B9
:101D9000012101F0F1FE044664B126462878C043D3
:101DA00080071ED4A86F062819D2DFE800F0160CB1
:101DB00011161616EA6FDAF8001021F038011143F7
:101DC000CAF80010EAE70198012101F045FE03E09E
:101DD0000098012101F0D0FE04467CB100E001240E
:101DE00026462878C04340071FD4D5F8940006281B
:101DF00019D2DFE800F0160C11161616AA6FDAF8E1
:101E0000001021F007011143CAF80010E9E701981A
:101E1000012101F021FE03E00098012101F0ACFE58
:101E20000446A4B100E0012426462878C043800679
:101E30002BD4D5F89000B0F1405F24D011DC10B362
:101E4000B0F1805F15D0B0F1005F10D116E0D5F889
:101E50009420D9F8001021F007011143C9F80010AF
:101E6000E3E7B0F1804F0ED0B0F1A04F0BD00124CA
:101E70000AE00198002101F0EFFD03E00098022143
:101E800001F07AFE044694B126462878C043400605
:101E90002BD4D5F89C00B0F5406F24D011DC10B3E2
:101EA000B0F5806F15D0B0F5006F10D116E0D5F801
:101EB0009020DAF8001021F0E0411143CAF8001038
:101EC000E3E7B0F5805F0ED0B0F5A05F0BD0012442
:101ED0000AE00198002101F0BFFD03E00098022113
:101EE00001F04AFE044694B126462878C043000615
:101EF0002BD4D5F8A000B0F5C04F24D011DC10B31E
:101F0000B0F5005F15D0B0F5804F10D116E0D5F8D0
:101F10009C20D9F8001021F4E0511143C9F80010B9
:101F2000E3E7B0F5004F0ED0B0F5204F0BD0012401
:101F30000AE00198002101F08FFD03E000980221E2
:101F400001F01AFE044654B126462878C043000723
:101F50001ED4D5F88400B0F5805F0AD00FE0D5F824
:101F6000A020D9F8001021F460411143C9F80010F5
:101F7000EBE70098022101F0FFFD00B10126D5F842
:101F80008420DAF8001021F440511143CAF80010FF
:101F90002878C043C00613D4D5F89800B0F5807FE8
:101FA00005D10098022101F0E7FD00B10126D5F826
:101FB0009820D9F8001021F440711143C9F800109D
:101FC0002868C043000316D4D5F8A40038B1B0F592
:101FD000803F09D0B0F5003F0BD001240AE0019802
:101FE000002101F039FD03E00098022101F0C4FD59
:101FF00004468CB126462868C043400322D4D5F855
:102000008800B0F5801F11D0B0F5001F13D0B0F5D7
:10201000401F15D0012414E0D5F8A420D9F80010F1
:1020200021F440311143C9F80010E4E7386840F466
:102030000030386004E00098012101F09DFD044665
:102040005CB126462868C043C00323D4286DA8B1DC
:10205000B0F5803F17D001241BE0D5F88820DAF8CE
:10206000001021F440111143CAF80010EAE7000003
:102070004C44025800480258CFFFFF00386840F433
:102080000030386004E00198022101F0E5FC0446CC
:10209000E4B126462868C043800005D40098022198
:1020A00001F06AFD00B101262868C04380031BD4FB
:1020B000D5F88000B0B1B0F5807F0FD0B0F5007FCB
:1020C00010D0B0F5407F0DD001240CE05A482A6DA5
:1020D000016821F4803111430160DBE7386840F486
:1020E00000303860ECB326462868C043C00207D4ED
:1020F0006A6FD8F8001021F000411143C8F80010B1
:102100002868C043C00008D4D5F8B820DBF8001018
:1021100021F480411143CBF800102868C0438002AD
:1021200007D4EA6ED8F8001021F080711143C8F886
:1021300000102868C04340000CD4DBF8001021F4E4
:102140000041CBF80010DBF80010D5F8BC2011439B
:10215000CBF800102868C04308D437486A6D01687E
:1021600000E018E021F04051114301602868C043AD
:10217000000208D4D5F88C20DAF8001021F44001D0
:102180001143CAF8001028790024C04300F0010070
:1021900020430AD00FE0D5F88020DAF8001021F4AF
:1021A00040711143CAF800109EE70198002101F028
:1021B00053FC00B106462879C04300F002002043DA
:1021C00005D10198012101F047FC00B106462879AC
:1021D000C04300F00400204305D10198022101F022
:1021E0003BFC00B106462879C04300F008002043BC
:1021F00005D10098002101F0BFFC00B10646287906
:10220000C04300F01000204305D10098012101F0E7
:10221000B3FC00B106462879C04300F02000044317
:1022200004D10098022101F0A7FC00B916B10120E9
:10223000BDE8FE8F0020FBE74C4402582DE9F05F1B
:1022400004000F467ED0DFF83882D8F8000000F096
:102250000F00B8420CD2D8F8001021F00F0139431A
:10226000C8F80010D8F8000000F00F00B84269D19B
:102270002078844D40070AD52069296801F0700153
:10228000884204D9296821F070010143296020782F
:102290007C4E361D00070AD56069316801F0700177
:1022A000884204D9316821F07001014331602078FF
:1022B000C0060AD5A069316801F4E061884204D9FA
:1022C000316821F4E061014331602078DFF8B4B176
:1022D00080060BF1080B0CD5E1695846DBF80020AD
:1022E00002F07002914204D9026822F070020A439F
:1022F0000260207880070AD5E068296801F00F01A4
:10230000884204D9296821F00F010143296020780F
:10231000C0073ED05B49A2682868183920F4706075
:10232000104328606068022818D0032819D0096873
:10233000012819D0490700294ADADFF848A1AAF193
:10234000080A00E044E0DAF8002022F00702024325
:10235000CAF80020FEF7DEFD814612E00968890315
:10236000E9E709688901E6E7C905E4E7FEF7D2FD78
:10237000A0EB090141F28830814202D90320BDE877
:10238000F09F6168DAF8000000F03800B0EBC10F90
:10239000ECD1207880070AD5E068296801F00F01A8
:1023A000884204D2296821F00F0101432960D8F83E
:1023B0000010404601F00F01B9420BD9016821F02D
:1023C0000F0139430160006800F00F00B84201D0EE
:1023D0000120D4E7207840070AD52069296801F058
:1023E0007001884204D2296821F0700101432960FC
:1023F000207800070AD56069316801F070018842D1
:1024000004D2316821F07001014331602078C006A8
:102410000AD5A069316801F4E061884204D23168CC
:1024200021F4E06101433160207880060CD5E16938
:102430005846DBF8002002F07002914204D2026894
:1024400022F070020A43026000F09AF80E492A68EE
:102450002B68C2F3032203F00F038A5CC95C02F00D
:102460001F0201F01F01D040084A20FA01F111605B
:102470000749086007480068BDE8F05FFEF7D8BF6D
:102480000020005218440258BE57000810000024D3
:102490000C0000240400002470B5144C3F2202609C
:1024A000124A24680832131D114D04F007044460D9
:1024B00016681C1D06F470668660166806F00F0626
:1024C000C660126802F0700202611A6802F07002BF
:1024D00042611A6802F4E0628261226802F07002CE
:1024E000C261286800F00F00086070BD10440258F7
:1024F0000020005230B500F043F80B4A0B490C4B5A
:1025000015681468C5F3032204F00F048A5C095DA2
:1025100002F01F0201F01F01D040064A20FA01F12B
:1025200019601060084630BD18440258BE570008B4
:10253000100000240C00002400B5FFF7DBFF054964
:102540000968054AC1F30211515C01F01F01C8403E
:1025500000BD00001C440258BE57000800B5FFF73C
:10256000C9FF05490968054AC1F30221515C01F020
:102570001F01C84000BD00001C440258BE5700089F
:10258000454970B545480968434B103B11F0380286
:1025900008D00111082A03D0102A0BD0182A0BD01A
:1025A000084670BD19688906FBD51968C1F3C101D9
:1025B000C84070BD3A4870BD3749374D18310C1DC1
:1025C00024350A68096826682D6802F0030406F0BD
:1025D0000102C1F30511C5F3CC0515FB02F200EEB3
:1025E000102AB8EE400AE9B32F4ADFED2E0AB7EE03
:1025F000001A6CB1DFED2D1A012C01D0022C43D052
:1026000002EE101A1068F8EE422A81EEA22A1EE0AD
:102610001C68A40611D51B6801EE901A1168C3F35B
:10262000C103F8EE612AD84001EE900AC1F3080018
:10263000F8EE611A81EEA22A0BE001EE901ADFEDAE
:102640001C2A00BFF8EE611A106882EEA12AC0F3BE
:10265000080001EE900AF8EE611A40EE201A31EE01
:10266000810A00E015E022EE000A1068C0F346205F
:10267000401C00EE900AF8EE600A80EE201ABCEED4
:10268000C10A10EE100A70BD01EE901ADFED092AA2
:10269000D8E7002070BD0000104402580090D0031D
:1026A000001BB70000000039304402580024744A6F
:1026B0000024744C001B374B2DE9F05F04007DD0E3
:1026C000FF4F2078FE4D1837DFF8F493103DC00718
:1026D00048D0D9F80000396800F03800102815D02B
:1026E000182803D101F0030002280FD06068B0F56C
:1026F000803F12D010B1B0F5A02F18D0286820F478
:1027000080302860286820F4802009E02868800351
:1027100028D560680028D2D024E0286840F48030B2
:102720002860606888B1FEF7F5FB064609E0286876
:1027300040F480202860F0E7FEF7ECFB801B642863
:102740006FD828688003F7D50CE0FEF7E3FB064658
:1027500005E000BFFEF7DEFB801B6428F0D8286888
:102760008003F7D4207841F20308D54E0C3E800751
:1027700069D5D9F80000396810F038000ED0182853
:1027800001D188070AD0E06890B3296821F01901C7
:1027900001432960FEF7BEFB824631E0286840070E
:1027A00002D5E06800288AD0E168286820F0190086
:1027B00008432860FEF7AEFB824607E0DFE000BF7B
:1027C000FEF7A8FBA0EB0A000228B9D8286840074A
:1027D000F6D500BFFEF798FB40451BD8206940287E
:1027E00012D0316821F47C3141EA003030602AE0B7
:1027F00018E000BFFEF78EFBA0EB0A0002289FD86E
:1028000028684007F6D5E5E7306820F47C3040F4CE
:102810000030EBE7207C316821F0FE4141EA0060A6
:10282000E4E70DE1286820F001002860FEF772FB64
:10283000824605E0FEF76EFBA0EB0A0002288DD869
:1028400028684007F6D42078C0065DD5D9F8000086
:10285000DFF86CB2396800F03800ABF1040B0828DF
:1028600010D0182803D101F0030001280AD0E06934
:102870000028286838D040F080002860FEF74AFB26
:10288000824623E02868C00523D5E069802876D1F8
:102890001FE0206A202821D0316821F0F84141EA68
:1028A0008060306030E000BF94F82010DBF800203A
:1028B00022F07C5242EA0161CBF8001024E000BF14
:1028C000FEF728FBA0EB0A00022898D82868C0056C
:1028D000F6D5FEF719FB4045E6D8DAE7306820F078
:1028E000F84040F08040DCE720F080002860FEF7F0
:1028F00011FB064605E000BFFEF70CFB801B02281B
:102900009DD82868C005F7D42078000729D56C48E1
:102910006169643000298046016811D041F00101ED
:102920000160FEF7F7FA064605E000BFFEF7F2FA8F
:10293000801B0228C9D8D8F800008007F6D510E01F
:1029400021F001010160FEF7E5FA064605E000BF4F
:10295000FEF7E0FA801B022872D8D8F80000800742
:10296000F6D42078800623D5A0690028286810D0E6
:1029700040F480502860FEF7CDFA064605E036E1C7
:10298000FEF7C8FA801B02285AD828688004F7D5B9
:102990000EE020F480502860FEF7BCFA064604E002
:1029A000FEF7B8FA801B02284AD828688004F7D4BA
:1029B000207840074FD5DFF80C81D8F8001041F49B
:1029C0008071C8F80010FEF7A5FA064605E000BFC2
:1029D000FEF7A0FA801B642832D8D8F80000C005A2
:1029E000F6D5374EA068603601280AD008B1052810
:1029F00013D0306820F001003060306820F004000F
:102A000002E0306840F001003060A06841F2883A8E
:102A100090B1FEF77FFA80460AE0306840F004008B
:102A20003060EEE7FEF776FAA0EB0801514507D8D3
:102A300030688007F6D50EE0FEF76CFA804607E0B6
:102A400084E000BFFEF766FAA0EB080151457DD88F
:102A500030688007F6D4606AB0B3DFF86480D9F8D4
:102A6000001008F120084FF6F87B08F10409C1F3C3
:102A7000C2010329A8F1040A69D00228286820F0BD
:102A80008070286003D0FEF745FA044684E0FEF724
:102A900041FA064605E000BFFEF73CFA801B02281B
:102AA00077D828688001F7D4E26A40F2F3313868B9
:102AB00054F8283F884340EA02101843386004E085
:102AC0001044025800480258B5E0217B4346228951
:102AD0004FF4FE0C208A4FF0FE474902267D521E1D
:102AE000401EA1F50071C2F308088AB2761E0CEAF6
:102AF000004042EA08020243504607EA06610A43E0
:102B00001A60DAF8002022F00102CAF80020D9F891
:102B10000020266A22EA0B0242EAC602C9F8002017
:102B2000DAF80010A26921F00C011143CAF8001074
:102B30000168E26921F0020111430160016841F47A
:102B400080310160016841F4003101E021E027E0BB
:102B50000160016841F480210160016841F00101D8
:102B60000160286840F080702860FEF7D3F90446C1
:102B700005E000BFFEF7CEF9001B022809D828683F
:102B80008001F7D557E000BFFEF7C4F9001B02280B
:102B900002D90320BDE8F09F28688001F4D44AE000
:102BA00039680128D8F8000021D0A26A01F0030397
:102BB00093421CD1E26AC1F305118A4217D1216BFD
:102BC000C0F30802491E8A4211D1616BC0F346224C
:102BD000491E91420BD1A16BC0F30642491E91429E
:102BE00005D1E16BC0F30660491E814201D001208E
:102BF000D0E7A16C4E46D9F80000C0F3CC0081426A
:102C000019D0DAF80000554620F00100CAF800009B
:102C1000FEF780F94FEA0007FEF77CF9B842FBD0D7
:102C2000A26C306820EA0B0040EAC20030602868DD
:102C300040F0010028600020ACE770477047704703
:102C4000F0B590F83C20012A3BD01F4E012480F8BB
:102C50003C40022280F83D2002681C4D5368B2427D
:102C6000D2F808C001D0AA4203D14F6823F4700300
:102C70003B430F6823F070031F4357600268B24262
:102C800013D0B2F1804F10D0114B9A420DD0114B9E
:102C90009A420AD0104B9A4207D0AA4205D00F4B55
:102CA0009A4202D00E4B9A4204D189682CF08003DC
:102CB00019439160002180F83D4080F83C1008469F
:102CC000F0BD0220F0BD0000000001400004014002
:102CD0000004004000080040000C004000180040C4
:102CE0000040014010B5040003D094F83D0010B13D
:102CF00007E0012010BD002084F83C00204600F0D1
:102D000023F8022084F83D002068211D01F092F88C
:102D1000012084F8480084F83E0084F83F0084F8DD
:102D2000400084F8410084F8420084F8430084F8AD
:102D3000440084F8450084F8460084F8470084F88D
:102D40003D00002010BD000008B50068B0F1804FC4
:102D500012D10A48016841F00101016000680022B7
:102D6000114600F0010000901C20FEF7DFFBBDE8DB
:102D700008401C20FEF7CCBB08BD0000E844025808
:102D800090F83D10012901D001207047174A022117
:102D900080F83D100168CB6843F00103CB60006808
:102DA000904214D0B0F1804F11D0114988420ED01A
:102DB000104988420BD01049884208D00F498842F8
:102DC00005D00F49884202D00E49884207D1816858
:102DD0000D4A1140062906D0B1F5803F03D00168A5
:102DE00041F0010101600020704700000000014037
:102DF0000004004000080040000C004000040140B6
:102E000000180040004001400700010070B5044672
:102E100090F83C000025012814D03A4B012684F894
:102E20003C60022084F83D0022689068184020F43D
:102E30007F409060086870282FD010DC10F00F0FD2
:102E400003D022E04FF0020070BD4FEA2012072AA3
:102E50001BD2DFE802F0535353534B394100B0F11A
:102E6000101F4BD009DCB0F5805F0FD0B0F5005FCC
:102E70001ED0B0F5801F08D140E0A0F580112039A8
:102E80003CD010293AD0202938D0012584F83D6063
:102E9000002084F83C00284670BD4A682068D1E9CB
:102EA000021301F029F82068816841F0770109E0F8
:102EB0004A682068D1E9021301F01EF82068816891
:102EC00041F480418160E1E7CA684968206801F007
:102ED00027F82068502106E0CA684968206801F098
:102EE00030F82068602101F011F8CFE7CA6849681E
:102EF000206801F015F820684021F4E722680146B7
:102F00001046F0E788FFCEFF704770B504460068B2
:102F100000250169C943890715D4C168C9438907D8
:102F200011D4EA1E0261012121772068806980079F
:102F3000204602D0FFF7E8FF04E000F0A7F82046A3
:102F400000F0A5F8257720680169C943490717D41F
:102F5000C168C943490713D402216FF0040202611A
:102F600021772068806910F4407F204602D0FFF767
:102F7000CBFF04E000F08AF8204600F088F82577BF
:102F800020680169C943090716D4C168C943090704
:102F900012D404216FF00802026121772068C06911
:102FA0008007204602D0FFF7AFFF04E000F06EF884
:102FB000204600F06CF8257720680169C943C906EE
:102FC00017D4C168C943C90613D408216FF0100291
:102FD000026121772068C06910F4407F204602D04A
:102FE000FFF792FF04E000F051F8204600F04FF8A0
:102FF000257720680169C943C90708D1C168C94359
:10300000C90704D1891E0161204600F041F82068FB
:103010000169C943090609D4C168C943090605D431
:103020006FF0800101612046FFF708FE206801690A
:10303000C943C90509D4C168C943090605D46FF459
:10304000807101612046FFF7F8FD20680169C943DE
:10305000490609D4C168C943490605D46FF0400147
:103060000161204600F034F820680169C9438906EF
:103070000BD4C168C943890607D46FF020010161F0
:103080002046BDE87040FFF7DABD70BD704770475D
:1030900010B504460948844207D100F067FC09498D
:1030A00009489FED070AFDF7C9FB084920688842D7
:1030B00003D1BDE81040FEF785B910BDD80000244B
:1030C000A69B443B1002002404020024000001409F
:1030D000704730B590F88410012918D0012280F88B
:1030E00084202421C0F888100022202401680B6865
:1030F0000D6823F0005325F001050D60426601685C
:103100000B60C0F8884080F88420104630BD022053
:1031100030BD70B5044690F8840001281DD001220E
:1031200084F884202420C4F8880020680568026898
:1031300022F0010202602068826822F060620A4385
:103140008260204600F010FF2268202100201560D8
:10315000C4F8881084F8840070BD022070BD70B57A
:10316000044690F8840001281DD0012284F88420B0
:103170002420C4F8880020680568026822F0010253
:1031800002602068826822F060420A438260204622
:1031900000F0EAFE2268202100201560C4F88810A3
:1031A00084F8840070BD022070BD10B5040003D007
:1031B000D4F8880010B107E0012010BD002084F889
:1031C0008400204600F026F82420C4F888002068F7
:1031D000016821F001010160204600F0CBFF0128C9
:1031E000EBD0A06A10B1204600F0E0FE20684168F4
:1031F00021F4904141602068816821F02A018160BA
:103200002068016841F0010101602046BDE81040DE
:1032100000F030BF10B5B6B00446142130A8FDF759
:103220008FF8C0216846FDF78BF81949206888425D
:103230002BD100201F9001210446CDE900106846E3
:10324000FEF726FB08B1FDF7F6FA1248016841F0D7
:1032500010010160006800F0100035900D48103832
:10326000016841F002010160006830AB022100F00A
:10327000020035904FF44040042283E813000648D2
:1032800030A9CDE93342FDF729FD36B010BD00006D
:1032900000100140F0440258000402582DE9F843A0
:1032A0000446D0F88800984616460D46202802D0DD
:1032B0000220BDE8F883A5B19EB10021C4F89010AA
:1032C0002120C4F888001834FDF724FE814654F804
:1032D000100CA687E6872027183CB0F5805F02D047
:1032E00003E00120E5E7206910B12E46002510E03B
:1032F00000260EE08021204601F012F9C0B9DEB1AF
:1033000016F8010B21688862B4F85600401EA4F834
:103310005600B4F856004B464FF00002CDF800803E
:103320000028E7D14FF04001204601F0F9F848B1FC
:10333000C4F888700320BCE735F8020B2168C0F39D
:103340000800E0E7C4F888700020B2E7FEE70168F3
:103350008A69D243920701D400228A620068816997
:10336000C943C90703D0816941F0010181617047F8
:103370002DE9F047044600680026894617464FF0BD
:10338000200835468169C90641D51021C1612FE069
:10339000B9F1FF3F2CD0FDF7BDFDC11B494502D857
:1033A000B9F1000F24D12068426894F84210836973
:1033B00002F48042DB431B0415D4B2F5804F12D0D7
:1033C000202910D0416841F480414160FDF7A2FD01
:1033D000074608E0FDF79EFDC01B192803D901260A
:1033E00045F0200504E020688069C0438006F1D4E0
:1033F00020688069C043800602D5002EC8D003E053
:1034000016B92168C1F81C80012645F00405216821
:103410008869C20505D54FF48072CA6145F001057F
:10342000012641050AD5216880054FF4806245F0E8
:103430000805CA614FF0010602D40AE0800507D5ED
:10344000206801264FF4007145F00205C16100E0DB
:103450008EB12046FFF77BFF20680021074F4368AD
:103460003B404360606C2843606484F8418084F88A
:10347000421084F840103046BDE8F08700E800FEB6
:103480002DE9F843174604461548DAB2DDE90898F5
:103490001E4600900023204600F056F8424649465A
:1034A000204600F0CCF8B8B9012EFDB208D0206853
:1034B000390A816242464946204600F0C0F858B9B0
:1034C00020688562002240214B462046CDF80080CE
:1034D00000F052F8002800D00120BDE8F883000079
:1034E000002000802DE9F8430446164817461E4682
:1034F000DAB20090C3022046DDE9089800F024F813
:1035000042464946204600F09AF8B8B9012EFDB26D
:1035100008D02068390A816242464946204600F0B8
:103520008EF858B920688562002280214B462046DB
:10353000CDF8008000F020F8002800D00120BDE880
:10354000F88300000020008070B50068C1F3090115
:1035500041EA0241074D049C19434FF480664268DA
:10356000214306EA54532B439A4321F000410A4376
:10357000426070BDFF63FF032DE9F0411E46174610
:103580000D460446DDF8188021E0701C1FD0FDF7C1
:10359000C1FCA0EB0800B04200D8C6B92068806921
:1035A00035EA000011D00020B84210D1626C002032
:1035B00084F84000202142F02002626484F8411027
:1035C00084F842000120BDE8F0810120ECE720688A
:1035D000806935EA000004D00020B842D5D0002030
:1035E000F1E70120F9E770B516460D4604461FE0E5
:1035F000324629462046FFF7BBFE08B1012070BDC8
:10360000FDF788FC801BA84200D88DB9206880692E
:10361000C04380060CD5626C002084F84000202155
:1036200042F02002626484F8411084F84200E5E729
:1036300020688069C0438006DAD4002070BD70B570
:1036400016460D46044621E0324629462046FFF73D
:103650008FFE08B1012070BD681C17D0FDF75AFC21
:10366000801BA84200D88DB920688069C0438007BC
:103670000CD5626C002084F84000202142F020022A
:10368000626484F8411084F84200E3E720688069AE
:10369000C0438007D8D4002070BD000010B51E487C
:1036A000FDF794FC80216B2000F094F800216B2042
:1036B00000F090F8032000F058F8002000F050F8D7
:1036C000322000F06FF80021382000F083F800214C
:1036D0006A2000F07FF80021232000F07BF8802191
:1036E000372000F077F8752000F022F804460146F4
:1036F0000AA000F05DFF682C01D0012010BD01215F
:103700006B2000F067F800216C2000F063F8322095
:1037100000F048F8002010BD840000240D0A4D5030
:1037200055363035303A30782532780D0A000000B1
:103730001FB5002140F6FF7401238DF80C1003AA79
:103740008DE81C00D12102460448FDF79BFC642053
:10375000FDF7B2FA9DF80C0004B010BD84000024FF
:10376000C006010E1C2000F035B8C006010E1B205B
:1037700000F030B8BC2801D3012110E0622801D349
:1037800002210CE02A2801D3032108E0142801D3E8
:10379000042104E00A2801D3052100E006211A20B3
:1037A00000F018B810B504464FF47A70844201D97D
:1037B000044602E0042C00D20424B0FBF4F0401EC6
:1037C000C1B2192000F006F86008BDE81040FFF70C
:1037D000D1BF00001FB5012203AB8DF80C1040F6DD
:1037E000FF71CDE900321346024605480291D0210F
:1037F000FDF7FAFC6420FDF75FFA04B0002010BD6D
:10380000840000240D4808B5016841F08001016082
:10381000016801F080010091016841F0020101603E
:10382000016801F002010091016841F001010160AD
:10383000006800F00100009008BD0000E04402585C
:103840001348002110B5114C0123124A0460C0E94D
:103850000121C0E9033141618161C1610162FDF76C
:10386000B5FB08B1FCF7E7FF09480021FDF758FB5D
:1038700008B1FCF7E0FF06480021FDF77DFB0028BA
:1038800003D0BDE81040FCF7D6BF10BD0054004087
:1038900084000024D38D801010B588B01648002411
:1038A000164B8F2200944FF08041019402940394B0
:1038B00004940594069480E81600C0E903348461FA
:1038C000FFF710FA08B1FCF7B6FF4FF480500090F4
:1038D00009486946FFF79AFA08B1FCF7ACFF0648B9
:1038E00004A904940694FFF7ABF9002801D0FCF773
:1038F000A2FF08B010BD0000D8000024A08601007F
:103900001848002110B5164C0C224FF4E133046026
:10391000C0E90131C160C0E904128161C161016285
:1039200041628162FFF741FC08B1FCF784FF0D485A
:103930000021FFF714FC08B1FCF77DFF09480021C6
:10394000FFF7E7FB08B1FCF776FF0648FFF7C1FB7E
:10395000002803D0BDE81040FCF76DBF10BD00008B
:103960000010014024010024FEE700002DE9F04191
:1039700086B040F6FF740625314803AF0097012357
:103980003B22D121CDE90154FDF77CFBB81D029407
:10399000CDE900052A4801234322D121FDF772FB1E
:1039A000DFF8A0800024284D032C37F8142038F8C5
:1039B0001410286852BAA2EB010120F8141017D293
:1039C00030F9140004EB44021F4900EE100A091DEF
:1039D00001EBC206B8EEC00A304601F029FE96EDB2
:1039E000020A2968BDEEC00A10EE100A21F8140080
:1039F000022C1ED91349E01EC0B20C3101EB80002D
:103A00002968DFED120A9FED120A90ED001A31F9D4
:103A1000142061EE200A01EE102AB8EEC11A41EE20
:103A2000000AC0ED000ABDEEE00A10EE100A21F80F
:103A30001400641CE4B2062CB6D306B0BDE8F081D5
:103A4000840000241C020024140000249A99593F89
:103A50009A99193EFEE770472DE9F047454D044617
:103A600089464FF0000A2868C04380070AD0414EBB
:103A7000283E306820F080603060FDF74BFA074642
:103A8000B04608E00120BDE8F08700BFFDF742FA2C
:103A9000C01B022867D8D8F800000001F6D42068BF
:103AA00029684FF4FE0721F47C313E0241EA0030E0
:103AB0002860207AA389B4F804C040022D4D2D4916
:103AC0005B1E227CACF1010C1035091DA0F50070C5
:103AD00080B2521ECCF3080C07EA034340EA0C0004
:103AE000184306EA0262104328600868626920F001
:103AF000C000104308600A68A06922F02002024357
:103B00000A60281D0A6822F010020A6002684FF657
:103B1000F873E4699A4342EAC40202600868B9F1A2
:103B2000000F40F010020A6011D00868B9F1010FCF
:103B300011D040F400100860D8F80000444640F06E
:103B40008060C8F80000FDF7E5F905460DE008685B
:103B500040F40020EFE740F48010ECE7FDF7DAF9DD
:103B6000401B022801D903208DE720680001F5D50C
:103B7000504688E7284402582DE9F047454D044651
:103B800089464FF0000A2868C04380070AD0414E9A
:103B9000283E306820F080503060FDF7BBF90746C2
:103BA000B04608E00120BDE8F08700BFFDF7B2F99C
:103BB000C01B022867D8D8F800008000F6D42088FF
:103BC00029684FF4FE0721F07C713E0241EA005063
:103BD0002860207AA389B4F804C040022D4D2D49F5
:103BE0005B1E227CACF1010C1835091DA0F500709C
:103BF00080B2521ECCF3080C07EA034340EA0C00E3
:103C0000184306EA0262104328600868626920F4DB
:103C10004060104308600A68A06922F40072024301
:103C20000A60281D0A6822F480720A6002684FF652
:103C3000F873E4699A4342EAC40202600868B9F181
:103C4000000F40F480720A6011D00868B9F1010FCA
:103C500011D040F080700860D8F80000444640F071
:103C60008050C8F80000FDF755F905460DE00868DA
:103C700040F48000EFE740F40000ECE7FDF74AF97C
:103C8000401B022801D903208DE720688000F5D56C
:103C9000504688E7284402587047704730B59DB0B9
:103CA0004C216846FCF74CFB202113A8FCF748FB8D
:103CB0000220FDF76DFC2049002420480A6822F00C
:103CC00001020A600968016841F44041016001682D
:103CD00001F440411B9101688904FCD50220099040
:103CE0000121C20318230C25CDE900120AAA82E89B
:103CF0000B000D90CDE910540E900F906846129471
:103D0000FEF7DAFC08B172B6FEE713AD40203F21A2
:103D1000032285E8160003011A90CDE9164002211E
:103D2000CDE9180313A8FEF789FA002801D072B66E
:103D3000FEE71DB030BD00002C04005818480258A2
:103D40002C48F0B52C4A016841F4700101601068FC
:103D500000F00F00072804D2106820F00F00C01DEB
:103D6000106026490020254C10340B68244D43F088
:103D700001030B6020600B682B400B60136803F09D
:103D80000F03072B04D9136823F00F03DB1D136007
:103D90001A4C1C4A18341C4B261D371D2060174C2A
:103DA0001A4D28343060261D3860371D23603B1DB6
:103DB00035601C1D3A60251D2E1D1860331D2260C4
:103DC0002860326018600A680C4B114C22F4802283
:103DD00060330A60186020686FF30F00B0F1005F75
:103DE00003D20C490120C1F8080143F2D2000A496C
:103DF0000860F0BD88ED00E0002000520044025849
:103E00007FEDF6EA80020101000202020000FF01DC
:103E10000010005C00800051004000520148FFF794
:103E200074B80000B80100240148FFF76EB8000024
:103E3000D80000242DE9F047274B4FF0804A274D4A
:103E400002689842264E274F274C09D0504507D08C
:103E5000A84205D0B04203D0B84201D0A04205D15B
:103E6000D1F804C022F070024CEA0202DFF87CC0F4
:103E7000DFF87C809842DFF87C900FD050450DD061
:103E8000A8420BD0B04209D0B84207D0A04205D01A
:103E9000604503D0404501D0484503D1CD6822F4A8
:103EA00040722A434D6922F080022A430260984200
:103EB0008A68C2620A68826207D0A04205D0604563
:103EC00003D0404501D0484501D109690163012172
:103ED0004161BDE8F087000000000140000400409F
:103EE00000080040000C0040000401400040014078
:103EF000004401400048014042EA032283680A432B
:103F000023F47F410A43826070470000034B8268BC
:103F10001A400A4342F00701816070478FFFCFFFCC
:103F200010B5036A046A23F00A0324F00104046252
:103F300084690B4324F0F00141EA021181610362BC
:103F400010BD10B5036A23F0100303628369046A8D
:103F500023F4704324F0A00443EA0232826144EA6D
:103F60000111016210BD000030B5416EB9B10168A8
:103F70000D4B03F108048A688968C2F34262490F55
:103F80005D5C615C2D01B5FBF1F1A0F86A10995CF4
:103F9000A25C0901B1FBF2F1A0F8681030BD01216B
:103FA000A0F86A10F8E70000AE57000890F8281053
:103FB000C90706D00168C36A4A6822F400321A436E
:103FC0004A6090F82810890706D50168036B4A6893
:103FD00022F480321A434A6090F82810490706D527
:103FE0000168436B4A6822F480221A434A6090F8C1
:103FF0002810090706D50168836B4A6822F400423D
:104000001A434A6090F82810C90606D50168C36BA8
:104010008A6822F480521A438A6090F82810890630
:1040200006D50168036C8A6822F400521A438A603C
:1040300090F82810490611D50168436C4A6822F4AB
:1040400080121A434A60416CB1F5801F06D10168A5
:10405000836C4A6822F4C0021A434A6090F8281020
:10406000090606D50168C26C486820F40020104398
:10407000486070472DE9F84300250446C0F8905089
:10408000FCF748FF8046206820266FF07E470068D6
:10409000000713D50022434631042046009700F064
:1040A0003FFA58B1216851E8000F20F0800041E844
:1040B0000002002AF6D1C4F8886021E02068006878
:1040C000400722D5002243464FF480012046009746
:1040D00000F026FAC8B1206850E8001F21F4907162
:1040E00040E80012002AF6D12068083050E8001F8E
:1040F00021F0010140E80012002AF5D1C4F88C60DB
:10410000032084F88450BDE8F883C4F88860C4F8BC
:104110008C60E5662567002084F88450F3E7000092
:1041200010B5026852E8001F21F4907142E80013B4
:10413000002BF6D10E4B0268083252E8001F1940DE
:1041400042E80014002CF6D1C16E012908D10268A2
:1041500052E8001F21F0100142E80013002BF6D1B5
:1041600000212022C0F88C20C166416710BD0000EC
:10417000FEFFFFEF2DE9F04304468068D84E87B07C
:10418000D84B2168D4E90427D4F81CC010430A682E
:10419000002547EA0C073843324002430A60206892
:1041A000E268416821F44051114341602268A169ED
:1041B0009A4201D0206A01439768DFF82CC3CB4EA6
:1041C000CB4807EA0C070F4397602168676ACA6A01
:1041D00022F00F023A43CA622268B2420ED100684E
:1041E00000F03800182873D047DCB8B3082879D01D
:1041F00010286FD178E028287ED17BE0BD498A4223
:1042000009D1006800F00700062875D2DFE800F049
:10421000546A6C6E7072B8498A4209D1006800F025
:104220000700062868D2DFE800F0475D5F6163653C
:10423000B2498A4209D1006800F0070006285BD223
:10424000DFE800F03A5052545658AD498A420BD13B
:10425000006800F0070006284ED200E010E0DFE81A
:1042600000F02B4143454749A6498A420AD10068DC
:1042700000F03800182839D0B7DD2028BBD13CE049
:1042800001203AE0A0498A4209D1006800F0070005
:10429000062831D2DFE800F01026282A2C2E9B4970
:1042A0008A420BD1006800F00700062824D2DFE81C
:1042B00000F003191B1D1F2100201EE09A421BD194
:1042C0008B48001D006800F00700062814D202E0A9
:1042D0000CE007E010E0DFE800F0030507090B0D34
:1042E00002200AE0042008E0082006E0102004E094
:1042F000202002E0402000E080208549DFF8148281
:104300009A42854A4FF400434FEA21174FF00006C6
:104310004ED110281AD006DC022809D004280BD070
:1043200008287CD10DE020283ED0402877D13DE000
:10433000FDF758F9014610E06846FDF765F9019967
:104340000BE003A8FDF702FA049906E01068800666
:1043500005D51068C0F3C100C140002970D0606A63
:10436000676838F8102007EB4703B1FBF2F083428F
:1043700055D8B0EB073F52D8002308461946FBF743
:10438000A7FF02467808130E120243EA0121101813
:104390003A4671410023FBF79BFF604AA0F540714C
:1043A00091423CD821688FE03946D8E71946D6E7D4
:1043B000D4F81CC04FF6EF799C4546D1082819D097
:1043C00005DC58B101280CD0042875D10DE0102867
:1043D00015D0202835D040286ED134E0FEF7ACF857
:1043E00001E0FEF7BBF8014610E06846FDF70CF966
:1043F00001990BE003A8FDF7A9F9049906E01068FC
:10440000800604D51068C0F3C100C140C1B1636A21
:10441000606838F81330B1FBF3F1490000E04BE07D
:1044200001EB5001B1FBF0F0A0F11001494543D878
:104430004FF6F0732168C0F342021840104343E086
:1044400043E03946E3E71946E1E7082819D005DCDF
:1044500058B101280CD004282ED10DE0102815D019
:1044600020282BD0402827D12AE0FEF765F801E06C
:10447000FEF774F8014610E06846FDF7C5F80199AB
:104480000BE003A8FDF762F9049906E010688006C6
:1044900004D51068C0F3C100C140B1B1636A60685F
:1044A00038F81330B1FBF3F101EB5001B1FBF0F040
:1044B000A0F11001494505D9012506E03946EDE78F
:1044C0001946EBE7216880B2C8600120A4F86A00B1
:1044D000A4F8680028466667A66707B0BDE8F083C1
:1044E000F369FFCF000C0058FFF4FF1100100140EA
:1044F000544402580044004000480040004C004032
:10450000005000400014014000780040007C004052
:104510000090D0039657000800440258FFFC0F009B
:104520002DE9F047994617460E460446089D4FF080
:1045300000082FE0681C2DD0FCF7ECFCA0EB090074
:10454000A84214D89DB120680168490722D5C169E5
:10455000C94309070DD4082505622046FFF7E0FD91
:10456000C4F89050012084F88480BDE8F0870320CF
:10457000FBE7C069C04300050CD421684FF400601C
:1045800008622046FFF7CCFD2021C4F8901084F883
:104590008480ECE72068C06936EA000004D000207F
:1045A000B842C7D00020E0E70120F9E7FEE70000AD
:1045B0000FB4054B10B503A9044A029800F07CFC27
:1045C00010BC5DF814FB0000115600087C000024AC
:1045D00003B401984100009850EAC12018BF04209C
:1045E0004A0D18BF40F0010040F2FF72B2EB515F7C
:1045F00008BF40F00200012808BF052002B0704744
:10460000090700284FEA116104DB00F1E02080F87F
:104610000014704700F00F0000F1E02080F8141D36
:10462000704700000000000070B56B482DED020BD4
:104630002DED0A8B82B00D9D25F000449FED68BBE7
:104640009FED699B84422EDBA4F140510C98A1F1AF
:104650007F6108430FD06648844202DC18D10C9871
:10466000B0B19DED0C0B02B0BDEC0A8B02B0BDE801
:10467000704000F028BB9DED0C0B9DED0C1B20EE57
:104680000B0B01EE090B02B0BDEC0A8B02B070BD42
:10469000012000F049FB02B0BDEC0A8B02B0BDE87E
:1046A000704000F019BB53489FED538B844230DAC1
:1046B0009DED0C0BB4F1795F0ADA51EC100BFFF7AA
:1046C00087FF042808BF00F013FB9DED0C0BDAE711
:1046D00020EE009B4A480621B0EE490B784400F0DA
:1046E000BAFA20EE09AB4748B0EE490B04217844F2
:1046F00000F0B1FA09EE008B8AEE080B8DED000B8D
:104700009DED0C0B9DED0C1B9DED002B01EE020BA6
:10471000B9E79DED0C0B51EC100B00F06CFF41EC78
:10472000100B9FED391B3A4838EE400B06218DEDFA
:10473000000B20EE01ABB0EE4A0B784400F08BFA90
:1047400020EE0ACB3348B0EE4A0B0421784400F047
:1047500082FA0AEE008B51EC1A0B00F0E7FF41ECF5
:10476000110B2D489FED2E2BA0420EDC8CEE080B7A
:104770008DED000B9DED003BB0EE410B01EE030B08
:1047800010EE029B3BEE490B21E08DED001B00205B
:1047900000909DED000B9DED003B00EE43AB31EE34
:1047A000000B21EE021B8AEE003B8CEE080B03EEA1
:1047B000429B9DED003B11EE009B9FED1B1BB0EE5D
:1047C000410B03EE420B39EE400B31EE400B002D56
:1047D000D8BFB1EE400B56E70000F03F00000000EC
:1047E000182D4454FB21F93F075C143326A6913C55
:1047F0000000F07F0000E03F000000000000F03FFC
:10480000F01000000E110000000000000000E03F6A
:1048100092100000B01000003333EF3F00000000A2
:104820000000000000000040182D4454FB21E93F27
:1048300070B565482DED020B2DED048B059D25F01F
:104840000044A04218DC6148844202DC0AD104988A
:1048500040B19DED040BBDEC048B02B0BDE870408F
:1048600000F031BA002DCCBF9FED590B9FED5A0BD4
:10487000BDEC048B02B070BD5948A04215DD59480B
:10488000A042D8BF4FF0FF3455DD9DED040B51EC35
:10489000100BFFF79DFE042808BF00F029FA9DEDDC
:1048A000040BBDEC048B02B070BD9DED040B51EC0C
:1048B000100B00F0A0FECDE904014B489FED4C0B1E
:1048C000A0421CDD4C48A0420BDD9DED042B0024D2
:1048D0009FED4B1B12EE010B32EE011B80EE012B04
:1048E00027E09DED041B9DED042B012431EE401BC0
:1048F00032EE000B81EE002B8DED042B1BE04248C5
:10490000A0420FDD9DED042B02249FED411B9DED88
:10491000043B32EE412B03EE010B82EE001B8DEDCA
:10492000041B08E09DED040B9FED3B1B032481EE6F
:10493000002B8DED042B9DED040B3948062120EE54
:10494000009B29EE098BB0EE480B784400F083F908
:1049500020EE099B3348B0EE480B0521784400F067
:104960007AF920EE080B002C0BDA9DED042B39EEC2
:10497000001B9DED040BBDEC048B02B002EE410B5D
:1049800070BD2948784439EE000B00EBC4009DED62
:10499000042B90ED001B254812EE001B9DED040B2F
:1049A00031EE400B784400EBC400002D90ED001B6D
:1049B00031EE400BB8BFB1EE400BBDEC048B02B042
:1049C00070BD000000000000000010440000F07FF7
:1049D000182D4454FB21F93F182D4454FB21F9BFF5
:1049E0000000DC3F0000203E0000F33F000000001C
:1049F000000000000000F03F0000E63F0000000063
:104A000000000000000000400080034000000000A3
:104A1000000000000000F83F000000000000F0BFB0
:104A20003A0F0000000F0000B80E0000780E0000E2
:104A300070B55F4E2DED040B2DED028B82B0DDF8CD
:104A40001CC0DDE905235C422CF000411C4341EA17
:104A5000D474049D22F00040B44205D86C422C432B
:104A600040EAD474B4420BD99DED061B9DED040BB6
:104A700002B0BDEC028B04B0BDE8704000F026B976
:104A8000ACF14054A4F17F641C430BD0022404EA2F
:104A9000AC7444EAD27405439FED478B9FED482BDD
:104AA0000DD016E09DED040B51EC100B00F09BFDBA
:104AB00041EC100B02B0BDEC028B04B070BD002CB9
:104AC00014BF012C9DED040BF4D0022C2ED0032C2E
:104AD0002FD00B439FED3C1B9FED3D0B0AD0B14205
:104AE0001DD1B04209D121F0804120F080400791D2
:104AF000059014E0002ADDDA15E0374B7B44002CEA
:104B000008BF93ED000BD5D0012C04BF93ED000B33
:104B1000B1EE400BCED0022C08D0032C09D0B0420D
:104B20000AD1002AC6DAB0EE410BC3E7B0EE480B5B
:104B3000C0E7B0EE420BBDE7401A00153C28C8BFE5
:104B40008DED000B17DCBCF1000FBEBF10F13C0F68
:104B50009FED230B8DED000B0DDB9DED041B9DEDFB
:104B6000062B81EE020B51EC100B00F044FD00F01F
:104B70003AFDCDE90001002C08BF9DED000B99D056
:104B8000012C0CD09DED001B9FED170B022C31EE7C
:104B9000400B0CBF38EE400B30EE480B8AE7019813
:104BA00080F0004001909DED000B83E700000000C5
:104BB0000000F07F00000000182D4454FB21094044
:104BC000182D4454FB2109C0182D4454FB21F9BF72
:104BD000182D4454FB21F93FB80D000000000000DF
:104BE0000000000000000000075C143326A6A13C72
:104BF00000B52DED028BB1EEC08B83B018EE100A1C
:104C000018EE901A8DED008B002818BF0120084384
:104C100020F00040C0F17F6000F1E040C00F14D0F0
:104C200010EE101A10EE900A8DED000B002918BF3F
:104C30000121084320F00040C0F17F6000F1E04016
:104C4000C00F04BF012000F06FF8B0EE480B03B0B6
:104C5000BDEC028B00BD491E00EBC102B0EE401B53
:104C600092ED000B31F006020DD0491E00EBC1029F
:104C7000B0EE403B92ED002B31F00602B0EE420B5D
:104C800003EE010BF1D1022914D004290AD0062920
:104C900018BF704790ED0A2B00EE012B90ED080B2A
:104CA00002EE010B90ED062B00EE012B90ED040BB4
:104CB00002EE010B90ED022B00EE012B90ED000BAC
:104CC00002EE010B704730EE000B704730EE010B27
:104CD00070470000000000009FED031B81EE010BF8
:104CE000704700000000000000000000000000000D
:104CF0009FED030B20EE000B70470000000000004A
:104D0000000000000000001002E008C8121F08C1E7
:104D1000002AFAD170477047002001E001C1121F3C
:104D2000002AFBD17047000001490860704700006D
:104D3000800000242DE9FF5F82B00021DDE904300E
:104D4000020DDDF840B0034318D044F61050A2F233
:104D5000FF3242431514119801281FD0A5EB0B0018
:104D6000401C5FEA000A4FF000064E4FDFF8389112
:104D7000B046504615D5CAF1000413E0119801243D
:104D80004AA3012801D16FEA0B010298119AC0E9E8
:104D90000031C0E9024206B0BDE8F09FCBF100004F
:104DA000DFE704460021404A491842EB0450CDE9B0
:104DB000001012E0E00707D032463B464046494625
:104DC000FBF7A5FB8046894632463B46104619460E
:104DD000FBF79DFB06460F466410002CEAD1DDE987
:104DE0000401DDE90023BAF1000F06DAFBF78FFBBF
:104DF00042464B46FBF78BFB05E0FBF7FAFB4246CE
:104E00004B46FBF7F6FB04460E460022284BFBF709
:104E100077FC03D84FF0FF30014607E00022254B16
:104E200020463146FBF7CCFAFBF752FC102409E090
:104E3000002C0ADB0A220023FBF74AFA039B3032DC
:104E40001A55641E50EA0102F2D1641C039AC4F19F
:104E500011031444119A012A03D0012208430DD1F1
:104E60000AE0084304D000204FF0110B119072E7C4
:104E7000A3EB0B056D1E0DE05B4504DD4FF000025A
:104E800005F1010504E003DA4FF00002A5F1010588
:104E9000002AECD002981199C0E90231C0E900451E
:104EA00079E70000000014400000F03F30000000EF
:104EB0000000F0430000E03F2DE9FF4F95B09B4616
:104EC0008946064600250FE2252877D1002427468B
:104ED000F84A0121059400E0044316F8013F203B05
:104EE00001FA03F01042F7D130782A2811D06FF080
:104EF0002F033078A0F13002092A16D8059A44F021
:104F0000020402EB820203EB42021044761C05907D
:104F1000EFE759F8042B0592002A03DA504244F4D3
:104F20000054059044F00204761C30782E2816D1E7
:104F300016F8010F44F004042A280DD06FF02F0258
:104F40003078A0F13003092B09D807EB870302EB77
:104F50004303C718761CF3E759F8047B761C3078B6
:104F60006C280FD006DC4C2817D068280DD06A2892
:104F700014D104E0742810D07A280FD10DE044F445
:104F800000140AE044F4801401E044F44014727800
:104F9000824202D104F58014761C761C3078662893
:104FA0000BD013DC582877D009DC002875D04528B1
:104FB000F6D04628F4D047281AD19DE118E063289E
:104FC00035D0642879D0652812D195E1702873D046
:104FD00008DC6728F1D069286FD06E280DD06F28C3
:104FE00006D1B5E073282CD0752875D0782874D0F8
:104FF0005A46179990476D1C75E1C4F30250022878
:1050000009D003280DD0D9F8001004280DD00D6068
:1050100009F1040967E1D9F80010EA17C1E9005263
:10502000F6E7D9F800100D80F2E70D70F0E719F8F7
:10503000041B8DF8001000208DF80100EA460120C5
:1050400003E059F804AB4FF0FF3061074FF0000167
:1050500002D40DE008F101018846B9420FDA80451B
:10506000F8DB1AF808100029F4D108E008F1010172
:1050700088468142FADB1AF808100029F6D1059813
:105080005B46A0EB080721463846179A00F094FAD1
:10509000284400EB080507E04DE029E10DE01AF88F
:1050A000010B5A4617999047B8F10108F7D25B46B1
:1050B00021463846179A13E142E00A220092C4F3CF
:1050C00002524FF0000A022A08D059F804CB032AF2
:1050D0004FEAEC710AD00DE029E02AE009F107015E
:1050E00021F00702F2E802C1914609E00FFA8CFCB8
:1050F0004FEAEC71042A03D14FFA8CFC4FEAEC71B1
:10510000002907DA0A460021DCF1000C61EB0201FC
:105110002D2202E0220504D52B228DF80420012245
:1051200003E0E20701D02022F7E7904659E00A2188
:1051300002E010220DE010214FF0000A00910BE078
:1051400010224FF0000A44F004040827009203E004
:1051500008224FF0000A0092C4F30252022A05D03E
:1051600059F804CB0021032A08D009E009F107010E
:1051700021F00702F2E802C1914605E01FFA8CFC1B
:10518000042A01D10CF0FF0C4FF00008220728D5AB
:10519000702806D0009B83F0100353EA0A0305D061
:1051A0000EE040228DF80420012208E05CEA0102B2
:1051B00006D030228DF804208DF80500022290469A
:1051C000009B83F0080353EA0A030AD15CEA010258
:1051D00001D1620705D530228DF804204FF0010877
:1051E0007F1E582804D034A003900EA802900DE032
:1051F00036A0F9E753466046009AFBF769F8844603
:105200000398825C0298401E029002705CEA0100E2
:10521000F0D1029806A9081A00F1200A600702D509
:1052200024F4803400E00127574502DDA7EB0A0093
:1052300000E0002000EB0A01009005984144401A6C
:105240000590E00306D45B462146179A059800F0C6
:10525000B3F90544002706E001A85A46C05D179936
:1052600090476D1C7F1C4745F6DBE0030CD55B4681
:105270002146179A059800F09FF9054404E0302074
:105280005A46179990476D1C0099481E00900029B6
:10529000F5DC08E0029802995A460078491C029110
:1052A000179990476D1CBAF10001AAF1010AF1DCCF
:1052B00065E10000092801003031323334353637DA
:1052C0003839616263646566000000003031323352
:1052D00034353637383941424344454600000000F2
:1052E00000F058F90544761C307800287FF4ECADC6
:1052F00019B02846BDE8F08F620700D4062709F1EF
:10530000070222F0070CFCE80223E14603F0004804
:105310005FEA080C02D00FF2702C0DE05FEA045C2B
:1053200002D50FF2682C07E05FEAC47C02D00FF2CE
:10533000602C01E0AFF2700C4FF0FF3823F0004317
:10534000CDF850C065280CD006DC452809D0462889
:105350001DD047283DD13DE0662818D067287ED172
:1053600038E00021112F01DB112000E0781CCDE98D
:10537000000106A90EA8FFF7DDFCDDE90F010E9A7A
:1053800003910021009207F1010A04914DE04FF0D2
:1053900000400097CDE9011006A90EA8FFF7CAFC4E
:1053A000DDE90F0203920E9B11990022DDF80CA09B
:1053B0000093049211B9791C00EB010AB7EB0A00C3
:1053C00004D4C0F1FF3007F1010A0490AAEB0700F2
:1053D000019044E0012F00DA01270021112F01DDA7
:1053E000112000E03846CDE9000106A90EA8FFF71C
:1053F000A1FCDDE90F010E9A0391002104910092B6
:10540000BA4621070CD40399514500DA8A46BAF10D
:10541000010F05DD009AAAF10101515C302908D085
:10542000B84202DA10F1040F06DA0121CDE90110C9
:1054300015E0AAF10101E9E7002805DC049901441F
:105440000491AAEB000102E0411C514500DD8A46AF
:105450000499401A401C01904FF000400290200730
:1054600004D40198504501DBCDF8048000208DF86C
:105470004F0002980DF14F07B0F1004F25D02B20BF
:105480000E9002984FF0020800280CDA4042029079
:105490002D200E9007E00A210298FAF75CFF3031C8
:1054A000029007F8011DB8F10001A8F10108F2DC33
:1054B00002980028EFD1791E0E980870307800F01D
:1054C000200040F0450007F8020D12A8C01B00F1B3
:1054D00007081498007800B1012000EB0A01019838
:1054E00001EBE07105984144401A401E0590E0032D
:1054F00006D45B462146179A059800F05DF80544EE
:105500001498007818B15A46179990476D1CE0031B
:1055100024D55B462146179A059800F04DF80544BE
:105520001CE00498002807DBDDE90301884203DD65
:105530000098405C179901E0179930205A4690472F
:10554000049805F10105401C04900198401E01904B
:1055500004D12E205A46179990476D1CBAF10001CC
:10556000AAF1010ADDDC05E017F8010B5A4617998C
:1055700090476D1CB8F10001A8F10108F4DC5B460E
:105580002146179A0598ABE62D0000002B0000007D
:10559000200000002DE9F041044600251E46174674
:1055A000880404D405E039462020B0476D1C641EF1
:1055B000F9D52846BDE8F0812DE9F04104460025E3
:1055C0001E469046C80301D5302700E020278804F6
:1055D00004D505E041463846B0476D1C641EF9D538
:1055E0002846BDE8F08110B541EC100BFFF720F91B
:1055F00051EC100B10BD82B0CDE9000121F000404C
:1056000001909DED000B02B051EC100B70470000B3
:1056100038B5012204464FF6FF7369468DF8000045
:105620000248FDF73BFE204638BD0000240100245F
:10563000D0ED000AD0ED042A90ED052A90ED021A73
:1056400070EEA20AF7EE001A70EE412AC0ED010AD0
:1056500030EE822A80EE820A80ED030A71EEC01AD3
:1056600000EE221A21EEA00A80ED021A80ED000A57
:1056700070470000FBF71EFF0620FBF729FF284BB1
:1056800000201968890311D4BFF34F8FBFF36F8FC8
:1056900024490860BFF34F8FBFF36F8F196841F43F
:1056A00000311960BFF34F8FBFF36F8F1968C903C3
:1056B00023D41B4970310860BFF34F8F081F43F696
:1056C000FF740068174D1035C0F34E31C0F3C902A6
:1056D00004EA4116104600BF46EA80772F60401E5C
:1056E000FAD2491EF4D2BFF34F8F186840F48030CD
:1056F0001860BFF34F8FBFF36F8FFBF76BFEFEF7A2
:10570000CDFAFEF77FF8FEF79BF8FEF7C5F8FEF737
:10571000F7F8FDF7C3FF0448FDF732FBFEE7000092
:1057200014ED00E050EF00E0D800002400B541EC9B
:10573000100B2DED028B83B0B1EEC08B18EE100A6A
:1057400018EE901A8DED008B002818BF0120084339
:1057500020F00040C0F17F6000F1E040C00F14D0A5
:1057600010EE101A10EE900A8DED000B002918BFF4
:105770000121084320F00040C0F17F6000F1E040CB
:10578000C00F04BF0120FFF7CFFA51EC180B03B094
:10579000BDEC028B00BD0100020004000600080001
:1057A0000A000C00100020004000800000010101F0
:1057B00001030701000008040204080101010000C0
:1057C00000000102030401020304060708090000A7
:1057D000555555555555C53F7D6FEB0312D6D4BF72
:1057E0005544880E55C1C93F3B8F68B52882A4BF78
:1057F00088B20175E0EF493F09F7FD0DE13D023F39
:105800004B2D8A1C273A03C0C88A599CE52A0040C0
:1058100059018D1B6C06E6BF82922EB1C5B8B33F0D
:105820004FBB610567ACDD3F182D4454FB21E93FB8
:105830009BF681D20B73EF3F182D4454FB21F93FA7
:10584000E2652F227F2B7A3C075C143326A6813C2D
:10585000BDCBF07A8807703C075C143326A6913CD8
:10586000C4EB98999999C9BF711623FEC671BCBF44
:105870006D9A74AFF2B0B3BF9AFDDE522DDEADBFAC
:105880002F6C6A2C44B4A2BF0D5555555555D53FC4
:10589000FF8300922449C23F6E204CC5CD45B73FDF
:1058A000513DD0A0660DB13FEB0D76244B7BA93F57
:1058B00011DA22E33AAD903F000000000000000042
:1058C000E05800080000002484000000084D000893
:1058D0006459000884000024BC050000184D00082D
:1058E0000100000010000000000000000090D00344
:1058F0000090D003040200240AD7A33C000000005B
:1059000000000000000000006F12833A0C020B3F01
:105910000AD7A33C000000000000000000000000C7
:105920006F12833A0C020B3F0AD7A33C0000000021
:1059300000000000000000006F12833A0C020B3FD1
:105940000000003F17B7D138000000000000803F82
:105950000000000000000000000000000000000047
:045960000000000043
:040000050800029954
:00000001FF
