:020000040800F2
:1000000020070024AD020008D9570008A3500008BB
:10001000ED560008330800081965000800000000CC
:100020000000000000000000000000001D5A000851
:10003000790C000800000000DB5700081F5A000878
:10004000C7020008C7020008C7020008C70200086C
:10005000C7020008C7020008C7020008C70200085C
:10006000C7020008C7020008C702000835080008D8
:10007000C7020008C7020008C7020008C70200083C
:10008000C7020008C7020008C7020008C70200082C
:10009000C7020008C7020008C7020008C70200081C
:1000A000C7020008A15B0008C7020008C7020008D9
:1000B000AD5B0008C7020008C7020008C7020008BD
:1000C000C7020008C7020008C7020008C7020008EC
:1000D000C70200080D650008C7020008C702000833
:1000E000C7020008C702000800000000C70200089D
:1000F000C7020008C7020008C7020008C7020008BC
:10010000C7020008C7020008C7020008C7020008AB
:10011000C7020008C7020008C7020008C70200089B
:10012000C7020008C7020008C7020008C70200088B
:10013000C7020008C7020008C7020008C70200087B
:1001400000000000000000000000000000000000AF
:10015000C7020008C7020008C7020008C70200085B
:10016000C7020008C7020008C7020008C70200084B
:10017000C7020008C7020008C7020008C70200083B
:10018000C7020008C7020008C7020008C70200082B
:10019000C7020008C7020008C7020008C70200081B
:1001A000C7020008C7020008C7020008C70200080B
:1001B000C7020008C7020008C7020008C7020008FB
:1001C000C7020008C7020008C7020008C7020008EB
:1001D000C7020008C7020008C7020008C7020008DB
:1001E000C7020008C7020008C7020008C7020008CB
:1001F000C7020008C7020008C7020008C7020008BB
:10020000C7020008C7020008C7020008C7020008AA
:10021000C7020008C7020008C7020008C70200089A
:10022000C7020008C7020008C7020008000000005B
:10023000C7020008C702000800000000C70200084B
:10024000C7020008C7020008C7020008C70200086A
:10025000C7020008C7020008C7020008C70200085A
:10026000C7020008C7020008C7020008C70200084A
:10027000C7020008C7020008C7020008000000000B
:10028000C7020008C7020008C702000800000000FB
:1002900000000000C7020008DFF80CD000F048FAA8
:1002A00000480047DD750008200700240648804705
:1002B00006480047FEE7FEE7FEE7FEE7FEE7FEE74B
:1002C000FEE7FEE7FEE7FEE7C55A000899020008D0
:1002D0002DE9F05F0546002092469B46884606467B
:1002E000814640241BE0284641464746224600F00E
:1002F00057F853465A46C01A914110D31146184632
:10030000224600F03EF82D1A67EB01084F462246C0
:100310000120002100F035F817EB00094E41201EA6
:10032000A4F10104DFDC484631462A464346BDE8D5
:10033000F09FD2B201E000F8012B491EFBD27047BA
:100340000022F6E710B513460A4604461946FFF7A1
:10035000F0FF204610BD30B50B460146002020229C
:10036000012409E021FA02F59D4205D303FA02F5C2
:10037000491B04FA02F52844151EA2F10102F1DC22
:1003800030BD202A04DB203A00FA02F10020704739
:100390009140C2F1200320FA03F3194390407047C3
:1003A000202A04DB203A21FA02F00021704721FACA
:1003B00002F3D040C2F12002914008431946704731
:1003C0002DE9FE4F804681EA0300C00F0C460090E5
:1003D00021F0004123F00045B8EB0200A94105D20D
:1003E0004046214690461C460B46024623F00040FC
:1003F000104347D0270DC7F30A00C3F30A510290F8
:10040000401A019040286BDAC3F3130040F4801BBC
:100410000098924620B10023D2EB030A63EB0B0B4A
:1004200001985946C0F140025046FFF7AAFF064620
:100430000D4650465946019A00F08CF910EB080021
:100440006141002487EA115284EAE7731A4340D0DD
:10045000009A62B3019A012A4FEA075215DC001B89
:1004600061EB02014FF0004202EA0752CDE900427F
:10047000001C41F5801132462B4600F08CF903B088
:10048000BDE8F08F40462146F9E7001B61EB020111
:10049000001C41F5801300185B412018A2F50017DD
:1004A00047EB030140EAD570B6196D4111E06D08C4
:1004B0004FEA360645EAC0754FEA0752001B61EB6A
:1004C0000201001C41F5801149084FEA3000001973
:1004D000514132462B4603B0BDE8F04F00F04CB915
:1004E0000098012240000023D0EB020263EBE0738E
:1004F000009821464FEAE074B8EB000061EB04017C
:10050000E9E783F000435BE781F0004158E72DE91C
:10051000FE4F81EA030404F0004421F000410094FE
:100520004FF0000B23F0004350EA01045ED052EA82
:1005300003045BD0C3F30A54C1F30A552C44A4F25C
:10054000F3340194A0FB0254C1F3130141F4801170
:10055000C3F3130343F4801301FB024400FB034E77
:10056000840A970A44EA815447EA8357A4FB076840
:1005700002958D0A05FB07854FEA932C04FB0C546A
:100580002705029D4FEA065847EA1637B5EB0805DE
:100590006EEB070C870E920E47EA811742EA831230
:1005A000A7FB0201B6EB0B0164EB00042B0D43EA41
:1005B0000C335E1844EB1C50DA465146E7FB02014F
:1005C000C5F313044FEA0B3343EA14534FEA0432E2
:1005D000019C43EA0603A4F10C040294009CCDE9BB
:1005E00000B400F0D8F803B0BDE8F08F0020014659
:1005F000F9E72DE9F04D81EA030404F0004B21F006
:10060000004514464FF0000A23F0004150EA05026D
:1006100020D054EA01021DD0C5F30A570246C5F3A3
:100620001303C1F31300C1F30A5640F4801543F4D9
:100630008013A7EB0608101BD64608F2FD3873EBB3
:10064000050002D308F1010801E092185B41B8F1FE
:10065000000F03DA00200146BDE8F08D00204FF4C2
:100660008011064684460EE0171B73EB050705D381
:10067000121B63EB050306434CEA010C49084FEAE1
:10068000300092185B4150EA0107EDD152EA0300B5
:1006900012D082EA040083EA0501084305D0101B4A
:1006A000AB4106D20122002306E000224FF00043B6
:1006B00002E06FF0010253101AEB06004CEB0851F8
:1006C00010EB0A0041EB0B01BDE8F04D00F054B80F
:1006D000C1F30A52C1F3130140F2FF3341F4801118
:1006E0009A4202DA00200146704740F233439A42B0
:1006F000A2F2334202DC5242FFF752BEFFF741BE84
:1007000030B5041E71F1000404DB4FF00044404298
:1007100064EB0101141E73F1000405DB1C464FF06D
:100720000043524263EB0403994208BF904230BD3C
:10073000064C074D06E0E06840F0010394E807002E
:1007400098471034AC42F6D3FFF7AAFDE0780008D2
:1007500000790008202A06DBCB17203A41FA02F084
:1007600043EAE07306E041FA02F3D040C2F120020E
:10077000914008431946704710B5141E73F10004E8
:1007800008DA401C41F1000192185B411A4301D183
:1007900020F0010010BD2DE9F04D92469B4611B1AD
:1007A000B1FA81F202E0B0FA80F220329046FFF70F
:1007B000E8FD04460F4640EA0A0041EA0B015346B1
:1007C0005A46084313D0114653EA010019D0C8F124
:1007D00040025046FFF7E4FD05460E465046594696
:1007E0004246FFF7CEFD084305D0012004E0204635
:1007F0003946BDE8F08D0020054346EAE0762C43FB
:1008000037430A986305E40AA0EB08000022FD0ABA
:1008100044EA47540A3002D500200146E9E70105C1
:1008200010196941DDE9084500196941BDE8F04D3D
:10083000A2E7FEE7014800F065BF00001C020024AB
:10084000294A016891423AD0274A1832914236D05B
:10085000254A3032914232D0234A483291422ED03A
:10086000214A603291422AD01F4A7832914226D0E2
:100870001D4A9032914222D01B4AA83291421ED08A
:100880001A4A91421BD0194A1832914217D0174A7E
:100890003032914213D0154A483291420FD0134A58
:1008A000603291420BD0114A7832914207D00F4A00
:1008B0009032914203D00D4AA832914211D1CAB26E
:1008C0001823103AB2FBF3F26FF30901032A02F086
:1008D0000703074AD25CC26500D9091D8165084635
:1008E000704721F0FF01F9E71000024010040240B8
:1008F000AE77000830B5224A012301689142CAB29E
:100900001BD01F4C1434A14217D01D4C2834A142D7
:1009100013D01B4C3C34A1420FD0194C5034A1428F
:100920000BD0174C6434A14207D0154C7834A14247
:1009300003D0134C8C34A1420CD11421114C083A31
:10094000B2FBF1F10F4A803201F01F0504EB810187
:10095000AB4010E00C4D1824103A0D44B2FBF4F1FA
:10096000A82D00D80831094A01F01F0402EB8101CB
:10097000064AA3408032603080E80E0030BD00009F
:100980000854025800580258F0FBFDBF000802400E
:1009900010B50279531E072B2DD8174C0168A142C0
:1009A0001BD0154C1434A14217D0134C2834A1424B
:1009B00013D0114C3C34A1420FD00F4C5034A14203
:1009C0000BD00D4C6434A14207D00B4C7834A142BB
:1009D00003D0094C8C34A14203D10849074C44315F
:1009E00002E00749064C443104EB8202C0E91B21B6
:1009F00001219940416710BD08540258FC58025823
:100A0000FC08024010B583694FF0C074826A014649
:100A1000002053B1B3F5005F15D072B1012A0CD09C
:100A2000022A0AD0032A09D104E01AB1012A06D009
:100A3000022A03D1C96AC90100D5012010BDC96AC3
:100A4000A142FAD010BD002AF7D0012AF2D0022A22
:100A5000F3D0032AF3D010BD2DE9F04F804E804F24
:100A6000DFF8FC911836DFF8F8A148370468856D87
:100A70000AF1300ADFF8ECB14C45DFF8ECC1DFF8E1
:100A8000ECE16DD0B4426BD0544569D0BC4267D024
:100A9000DFF8D081A8F11808444561D05C455FD0EB
:100AA00064455DD074455BD0DFF8C481444557D0C0
:100AB000DFF8BC8108F11808444551D0DFF8B08157
:100AC00008F1300844454BD0DFF8A48108F148080C
:100AD000444545D0DFF8988108F1600844453FD08F
:100AE000DFF88C8108F17808444539D0DFF880813F
:100AF00008F19008444533D0DFF8748108F1A80864
:100B000044452DD0DFF86C81444529D0DFF864815D
:100B100008F11408444523D0DFF8588108F128086B
:100B200044451DD0DFF84C8108F13C08444517D0FE
:100B3000DFF8408108F15008444511D0DFF83481D6
:100B400008F1640844450BD0DFF8288108F17808E3
:100B5000444505D0DFF81C8108F18C08444509D1D3
:100B6000D0E91948C4F80480C46E1CB1D0E91C480F
:100B7000C4F8048004684C452ED0B4422CD05445AF
:100B80002AD0BC4228D0374E183EB44224D05C450F
:100B900022D0644520D074451ED0354EB4421BD0BF
:100BA000334E1836B44217D0314E3036B44213D0DB
:100BB0002F4E4836B4420FD02D4E6036B4420BD083
:100BC0002B4E7836B44207D0294E9036B44203D02B
:100BD000274EA836B44215D190F85C603F2406F049
:100BE0001F06B440AC600468256825F480252560A4
:100BF0002EE09A600068C160BDE8F08F99600068DF
:100C0000C260F9E71B4EB4421BD01A4E1436B442F0
:100C100017D0184E2836B44213D0164E3C36B44284
:100C20000FD0144E5036B4420BD0124E6436B4423C
:100C300007D0104E7836B44203D00E4E8C36B442F4
:100C4000DAD190F85C60012406F01F06B4406C60B5
:100C5000046863608368402B0368CFD1C9E7000054
:100C60001000024088000240A0000240B80002408C
:100C70001004024008540258704772B6FEE70000A4
:100C800070B52DED108BF0EE409AB0EE008A8AB070
:100C90000546F6EE001AF7EE008A29EEA19A0E46F6
:100CA000FA4CFB4894ED010A94ED032AD4ED000AB6
:100CB00094ED021A20EE020A00EEC10A20EE080AA4
:100CC0008DED000A94ED000AD4ED011AD4ED020A6C
:100CD00094ED031A20EE210A00EE810A20EE080AA4
:100CE0008DED010A94ED010AD4ED011A94ED021A7A
:100CF000D4ED020A20EE210A01EE200AF0EE680A85
:100D000040EE480ACDED020AB0F9001000EE101ACC
:100D1000B0F90210B0F90400B8EEC00A00EE901A63
:100D200001EE100AF8EEE01A20EE000AF8EEE00AF2
:100D3000B8EEC12AB8EEC11A01EEA00A02EE010A0D
:100D4000B7EEC00A05F008FFD248A4F10C01B0EEDE
:100D5000401BB7EE00AB9FEDD00A8AEE012BF7EEF9
:100D6000C20BC1ED020AB5F9002001EE102AB8EE5F
:100D7000C11A21EE201A8DED031AB5F9022001EEF9
:100D8000102AB8EEC11A21EE201A8DED041AB5F919
:100D9000042001EE102AB8EEC11A61EE200ACDED52
:100DA000050ADDED040A9DED022A9DED051ADDED33
:100DB000011A60EE820A41EE610ACDED060ADDED10
:100DC000050A9DED002ADDED031A9DED021A60EE85
:100DD000820A41EEC10ACDED070ADDED030A9DED61
:100DE000012A9DED041ADDED001A60EE820A41EE43
:100DF000610ACDED080A90ED001AD1ED010ADDED92
:100E0000061A01EEA01A80ED001A90ED011ADDED30
:100E1000071A01EEA01A80ED011A90ED021ADDED1D
:100E2000081A01EEA01A80ED021AB5F90620DDEDD0
:100E3000061A01EE102AD1ED000A90ED002AB8EE54
:100E4000C11A21EE001A00EEA11A31EE021A8DED40
:100E5000001AB5F90810DDED071A01EE101A90ED31
:100E6000012AB8EEC11A21EE001A00EEA11A31EEE5
:100E7000021A8DED011AB5F90A10DDED081A01EE1E
:100E8000101A90ED022AB8EEC11A21EE000A00EE07
:100E9000A10A30EE020A8DED020A94ED010A9DEDE1
:100EA00000FAD4ED02CA9DED01DA2FEE400AD4ED2E
:100EB000001ADDED00EA94ED011ADDED01DA0CEE29
:100EC000CD0AD4ED035A9DED026A61EEAE1A21EE11
:100ED0002D1AD4ED03BA9DED01CAD4ED026A9DED41
:100EE000007A05EEC60AD4ED030A9DED00EA4BEE4A
:100EF000CC1A06EEC71AD4ED024A9DED025AD4ED83
:100F0000002A9DED023A60EE8E0AD4ED007A9DED46
:100F100001BA20EE090A94ED002A44EE851A02EE89
:100F2000831A47EE8B0A32EE002AD4ED013A9DED8A
:100F3000024A61EE891A21EE090A84ED002A43EE85
:100F4000C40A94ED011A31EE211A60EE890A84ED8B
:100F5000011A94ED021A71EE200AC4ED020AD4EDD2
:100F6000030A30EE800A84ED030A94ED000AD4ED02
:100F7000003AD4ED012A94ED013A20EE230A94EDD3
:100F8000022AD4ED021AD4ED030A02EE830A94ED8C
:100F9000031A02EE210A00EE810AB7EEC00A05F03C
:100FA000DBFD8AEE002B94ED001AF7EEC20B21EE6A
:100FB000200A84ED000A94ED010A20EE200A84ED57
:100FC000010A94ED020A20EE200A84ED020A94ED53
:100FD000030A20EE200ADFED310A84ED030AB5F999
:100FE0000A0000EE100AB8EEC00A60EE200A10EE09
:100FF000900AB0F17E5F04DC10EE900A10F1814F90
:101000000CD996ED020A26A000EEA90A86ED020A86
:10101000B7EEC00A53EC102B05F080FAD4ED001A9D
:1010200094ED020A94ED011A61EE881AD4ED030AD8
:1010300021EE081A21EE800A01EE600AB7EEC00A1E
:1010400005F0A6FA9FED199B20EE090BB7EEC00B39
:1010500086ED010A94ED012A94ED010A94ED023A1D
:1010600022EE082AD4ED023AD4ED002A94ED021AB9
:1010700042EE408AD4ED031AD4ED010A63EE883AB9
:1010800023EE083A62EE882A14E000006C00002487
:10109000E0020024100300242E9E8B3AF6FF793DD7
:1010A0005961773A25660D0A000000000000002013
:1010B000DCA54C4023EEA10A43EE418A02EEA00AD1
:1010C000B7EEE81AB7EEC00A05F066FC20EE090B91
:1010D0000DA0B7EEC00B86ED000A96ED010AB7EE43
:1010E000C00A53EC102B05F019FA96ED000A0AB06D
:1010F00008A0BDEC108BB7EEC00ABDE8704053EC01
:10110000102B05F00BBA000050697463683A25662D
:101110003B0D0A00526F6C6C3A25663B0D0A0000CD
:101120002DE9F84F044601F0BFFA00903CB194F865
:101130003500022806D0802161650020E4E001200E
:10114000BDE8F88FC74DC74EC64918352068303600
:10115000DFF81483DFF814938842DFF814A3DFF874
:1011600014B32ED0A8422CD0B0422AD0404528D06B
:10117000484526D0504524D0584522D0BD4A183283
:1011800090421ED0BC4A90421BD0BB4A18329042BB
:1011900017D0B94A3032904213D0B74A4832904201
:1011A0000FD0B54A603290420BD0B34A78329042A9
:1011B00007D0B14A9032904203D0AF4AA832904251
:1011C00009D1026822F01E0202602068426922F002
:1011D0008002426103E0026822F00E02026027688A
:1011E0008F4238464DD0A8424BD0B04249D04045FE
:1011F00047D0484545D0504543D0584541D09D4AF9
:10120000183290423DD09C4A90423AD09A4A1832C5
:10121000904236D0984A3032904232D0964A483284
:1012200090422ED0944A603290422AD0924A78322C
:10123000904226D0904A9032904222D08E4AA832D4
:1012400090421ED08D4A90421BD08C4A143290425C
:1012500017D08A4A2832904213D0884A3C329042B2
:101260000FD0864A503290420BD0844A643290426A
:1012700007D0824A7832904203D0804A8C3297421B
:1012800004D1206E026822F48072026075492068E1
:10129000884228D0A84226D0B04224D0404522D04F
:1012A000484520D050451ED058451CD071491831B2
:1012B000884218D07049884215D06F491831884249
:1012C00011D06D49303188420DD06B494831884288
:1012D00009D069496031884205D067497831884230
:1012E00001D065499031016821F0010101600EE0F3
:1012F00001F0DAF90099401A052808D92022626520
:101300000321002084F8351084F8340017E738688A
:10131000C007EDD1534A0121206890422ED0A84247
:101320002CD0B0422AD0404528D0484526D0504540
:1013300024D0584522D04F4B183398421ED04E4BE4
:1013400098421BD04C4B1833984217D04A4B30333D
:10135000984213D0484B483398420FD0464B6033E5
:1013600098420BD0444B7833984207D0424B90338D
:10137000984203D0404BA833984208D194F85C704F
:101380003F23A06D07F01F07BB40836007E094F880
:101390005C30A06D03F01F0301FA03F34360206883
:1013A00090424DD0A8424BD0B04249D0404547D0A2
:1013B000484545D0504543D0584541D02D4A183274
:1013C00090423DD02C4A90423AD02B4A183290425B
:1013D00036D0294A3032904232D0274A48329042A1
:1013E0002ED0254A603290422AD0234A7832904249
:1013F00026D0214A9032904222D01F4AA8329042F1
:101400001ED01E4A90421BD01C4A1432904217D064
:101410001A4A2832904213D0184A3C3290420FD0D8
:10142000164A503290420BD0144A6432904207D090
:10143000124A7832904203D0104A8C3290420BD13B
:10144000D4E919024260E06E30B1026822F4807281
:101450000260D4E91C024260002084F8351084F850
:1014600034006DE610000240580002407000024057
:1014700088000240A00002401004024008540258B4
:101480002DE9F05F28B190F83510022904D08021B1
:1014900041650120BDE8F09F904C904B0168183CDD
:1014A00018338E4ADFF83C92A1428D4CDFF838E2C7
:1014B0008E4FDFF83CB2DFF83CA28F4D8F4E31D01B
:1014C00091422FD099422DD0A1422BD0494529D00D
:1014D000714527D0B94225D0DFF810C20CF1180CA5
:1014E00061451FD0DFF808C2ACF1600C614519D02E
:1014F000DFF8FCC1ACF1480C614513D0DFF8F0C156
:10150000ACF1300C61450DD0DFF8E4C1ACF1180C42
:10151000614507D0594505D0514503D0A94201D0B6
:10152000B1422CD1DFF8B4C14FF0040880F8358007
:10153000ACF1180C61451DD091421BD0994219D0D5
:10154000A14217D0494515D0714513D0B94211D0E9
:101550006648183081420DD065486038814209D014
:1015600063484838814205D061483038814201D013
:101570005F481838086820F001000860ABE0D1F837
:1015800000C02CF00E08DFF854C1C1F80080ACF1A7
:10159000180C0168614527D0914225D0994223D08B
:1015A000A14221D049451FD071451DD0B9421BD061
:1015B000DFF838C10CF1180C614515D0DFF830C1E7
:1015C000ACF1600C61450FD0DFF824C1ACF1480CE0
:1015D000614509D0DFF818C1ACF1300C614503D08A
:1015E000DFF80CC1ACF1180CD1F800C02CF0010CE4
:1015F000C1F800C0DFF8E4804FF0010C0168A8F1E9
:101600001808414546D0914244D0994242D0A14267
:1016100040D049453ED071453CD0B9423AD0334ADA
:101620001832914236D0324A603A914232D0304A32
:10163000483A91422ED02E4A303A91422AD02C4A32
:10164000183A914226D0594524D0514522D0A9427A
:1016500020D0B1421ED02A4A91421BD0284A1432CF
:10166000914217D0264A2832914213D0244A3C3264
:1016700091420FD0224A503291420BD0204A64321C
:10168000914207D01E4A7832914203D01C4A8C32D4
:10169000914218D1016E0A6822F480720A6090F8B3
:1016A0005C20816D02F01F020CFA02F24A60D0E960
:1016B00019124A60C16E31B10A6822F480720A6060
:1016C000D0E91C124A600022016D80F835C080F814
:1016D000342001B188470020DCE6000028000240E9
:1016E000580002407000024088000240A000024002
:1016F0007004024088040240A0040240B804024082
:10170000085402582DE9FC5F0446F74E0020DFF82C
:10171000D88300904FF41652F44808F11808A56DCC
:10172000DFF8C493DFF8C0A3016809F1300920682D
:101730000AF1480AB1FBF2F1B04201912F68D5F8E5
:1017400000C0DFF8ACB335D04146884232D04845BE
:1017500030D050452ED058452CD0E549183188421C
:1017600028D0E3493031884224D0E14948318842C9
:1017700020D0E04988421DD0DE491831884219D076
:10178000DC493031884215D0DA494831884211D0DD
:10179000DFF860E30EF1600E70450BD0D54A783269
:1017A000904207D0D34B9033984203D0D149A8310F
:1017B00088427DD194F85C20082102F01F0201FAD2
:1017C00002F23A424AD0B04232D0404530D0484589
:1017D0002ED050452CD058452AD0C54A18329042B8
:1017E00026D0C34A3032904222D0C14A4832904279
:1017F0001ED0C04A90421BD0BE4A1832904217D029
:10180000BC4A3032904213D0BA4A483290420FD08C
:10181000B84A603290420BD0B64A7832904207D034
:10182000B44A9032904203D0B24AA832904203D1D7
:10183000026802F0040202E0026802F008026AB1E3
:10184000026822F00402026094F85C0000F01F00BD
:101850008140A960606D40F00100606594F85C0013
:10186000012100F01F008140394240D02068B04281
:1018700034D0404532D0484530D050452ED0584520
:101880002CD09B4A1832904228D0994A303290424C
:1018900024D0974A4832904220D0964A90421DD098
:1018A000944A1832904219D0924A3032904200E065
:1018B000AFE113D08F4A483290420FD08D4A603248
:1018C00090420BD08B4A7832904207D0894A9032AE
:1018D000904203D0874AA83290427DD1406910F0EF
:1018E000800F04D0A960606D40F00200606594F83C
:1018F0005C00042100F01F00814039423ED0206886
:10190000B04232D0404530D048452ED050452CD042
:1019100058452AD0764A1832904226D0744A30323E
:10192000904222D0724A483290421ED0714A904270
:101930001BD0704A1832904217D06E4A3032904213
:1019400013D06C4A483290420FD06A4A60329042BB
:101950000BD0684A7832904207D0664A9032904263
:1019600003D0644AA83290424ED1006810F0020FB2
:1019700004D0A960606D40F00400606594F85C00DC
:10198000102100F01F008140394258D02068B04239
:1019900034D0404532D0484530D050452ED05845FF
:1019A0002CD0534A1832904228D0514A30329042BB
:1019B00024D04F4A4832904220D04E4A90421DD007
:1019C0004C4A1832904219D04A4A3032904215D0CF
:1019D000484A4832904200E014E00FD0454A603255
:1019E00090420BD0434A7832904207D0414A90321D
:1019F000904203D03F4AA832904207D1006800F0DD
:101A0000080006E0006872E70068B7E7006800F0C9
:101A10000400A0B1A96020680168490304D50068EA
:101A2000000308D5A16C07E00168C90503D401686B
:101A300021F008010160216C09B12046884794F823
:101A40005C00202100F01F008140394279D02068DD
:101A5000B04232D0404530D048452ED050452CD0F1
:101A600058452AD0224A1832904226D0204A303295
:101A7000904222D01E4A483290421ED01D4A9042C7
:101A80001BD01C4A1832904217D01A4A303290426A
:101A900013D0184A483290420FD0164A6032904212
:101AA0000BD0144A7832904207D0124A90329042BA
:101AB00003D0104AA832904203D1006800F0100011
:101AC00002E0006800F00200B0B3A96094F83500AD
:101AD0000428206801680FD049037ED50068000300
:101AE0002BD4616C2AE00000100002400C0000249E
:101AF000700002401004024021F0160101602068CD
:101B0000416921F080014161206C08B9A06C20B1CD
:101B10002068016821F00801016094F85C303F21E1
:101B2000012003F01F0300229940A96084F83500CA
:101B300084F83420216D65E003E0E16B09B12046B3
:101B40008847606D00287DD0606DC00759D020683F
:101B5000042184F83510B0422BD0404529D04845A7
:101B600027D0504525D0584523D09D49884220D0C4
:101B70009B49183188421CD099493031884218D08D
:101B80009849884215D097491831884211D0954913
:101B9000303188420DD093494831884209D091496B
:101BA0006031884205D08F497831884201D08D4913
:101BB0009031016821F00101016020680099019ACB
:101BC000491C0091914202D80168C907F6D100680A
:101BD000C00710D003200FE0FFE70168C905ACD4AF
:101BE00003680121002223F01003036084F83510FC
:101BF00084F83420A1E7012084F83500002084F81F
:101C00003400E16C00291DD002B02046BDE8F05F31
:101C10000847754988421DD073491431884219D04C
:101C200071492831884215D06F493C31884211D022
:101C30006D49503188420DD06B496431884209D0DA
:101C4000694900E084E07831884203D066498C31EC
:101C500088427DD194F85C800427016808F01F0851
:101C600007FA08F717EA0C0F009746D04F0744D53C
:101C700000980F04686003D5C8033CD4A16CC1E789
:101C8000880638D42068B0422DD055496039884242
:101C900029D0484527D0504525D0584523D0504914
:101CA000884220D04E49183188421CD04C493031EE
:101CB000884218D04B49884215D04A491831884289
:101CC00011D04849303188420DD0464948318842C8
:101CD00009D0704507D0904205D0984203D04149C1
:101CE000A831884203D1016821F0080102E00168AF
:101CF00021F004010160216C84E7022707FA08F74C
:101D000017EA0C0F00974ED08F074CD500980F04A0
:101D1000686003D5C80344D4616C73E7880640D477
:101D20002068B0422FD02E49603988422BD04845D8
:101D300029D0504527D0584525D02949884222D05E
:101D40002749183188421ED025493031884200E0A9
:101D500044E018D02349884215D0224918318842DE
:101D600011D02049303188420DD01E494831884277
:101D700009D0704507D0904205D0984203D0194948
:101D8000A831884203D1016821F0140102E0016802
:101D900021F00A010160012184F83510002084F847
:101DA0003400E16B2EE7082202FA08F212EA0C0F67
:101DB00014D0090712D5016821F00E01016094F8D2
:101DC0005C100120002201F01F0100FA01F169609E
:101DD000606584F8350084F8342012E7BDE8FC9F84
:101DE0008800024010040240085402582DE9F05FB8
:101DF000044600F059FC002C07467DD0E34E02213A
:101E000020684FF00308DFF888934FF00005DFF8F3
:101E100084A3B042DFF880B334D0DC4A1832904259
:101E200030D048452ED050452CD058452AD0DA4ADB
:101E30001832904226D0D84A3032904222D0D64A28
:101E4000483290421ED0D54A90421BD0D34A183215
:101E5000904217D0D14A3032904213D0CF4A483204
:101E600090420FD0CD4A603290420BD0CB4A7832AC
:101E7000904207D0C94A9032904203D0C74AA83254
:101E800090427DD184F83510B04284F834502ED081
:101E9000BE49183188422AD0484528D0504526D01E
:101EA000584524D0BC491831884220D0BA49303135
:101EB00088421CD0B8494831884218D0B749884276
:101EC00015D0B6491831884211D0B4493031884212
:101ED0000DD0B2494831884209D0B04960318842BA
:101EE00005D0AE497831884201D0AC4990310168C3
:101EF00021F00101016008E027E100BF00F0D4FB00
:101F0000C01B052801D920211CE120680068C007FA
:101F1000F4D104F108002168D4E9053C8E4685C857
:101F200009681043D4E907281F43636A38439C4F6C
:101F300040EA0C001043394040EA0800042B40EA14
:101F4000010003D1D4E90B121143084395490968F4
:101F50006FF30F01B1F1005F0FD36168A1F12902A6
:101F6000052A08D9163A032A05D9083A012A02D9BE
:101F70004F39032901D840F48010CEF8000000E06A
:101F800023E02068676A4069042F20F0070047EAD1
:101F900000070DD1D4E90A01074349B12046FEF7F5
:101FA00031FD28B140206065012184F83510CCE076
:101FB000206847612046FEF743FC94F85C203F21EF
:101FC00002F01F029140816054E0774A90421BD09A
:101FD000754B1433984217D0734B2833984213D063
:101FE000714B3C3398420FD06F4B503398420BD01B
:101FF0006D4B6433984207D06B4B7833984203D0D3
:10200000694B8C3398427DD184F8351084F8345074
:10201000664B0168A26801EA030E402A73D0802A49
:1020200072D00022D4E90378D4E9053142EAD7021C
:1020300042EAD8085C4AD4E9077C48EAD30848EA6F
:10204000D10141EAD701524241EA1C11142341EA6D
:102050000E01016020681044B0FBF3F08000E065E1
:102060002046FEF7EDFB94F85C20012102F01F02F0
:10207000914041602068B04257D0444918318842AD
:1020800053D0484551D050454FD058454DD0424986
:102090001831884249D040493031884245D03E49C4
:1020A0004831884241D03D4988423ED03B491831B1
:1020B00088423AD039493031884236D037494831A0
:1020C000884232D03549603188422ED03349783148
:1020D00088422AD031499031884226D02F49A831F0
:1020E000884222D0304988421FD02F49143188427B
:1020F0001BD02D492831884217D02B493C318842CA
:1021000013D002E01DE017E018E027495031884263
:102110000BD025496431884207D023497831884261
:1021200003D021498C31884229D12046FEF7E2FBB9
:10213000A06880280CD00CE0102273E74FF4804296
:1021400070E74021616584F835800120BDE8F09F8B
:102150006560216E20790860D4E9190141606068EA
:10216000401E072808D82046FEF712FCE06E0560E6
:10217000D4E91C01416002E0E5662567656701203E
:10218000656584F835000020E0E70000100002409B
:10219000400002405800024070000240100402401B
:1021A0003F8010FE0010005C085402580F00FEFF34
:1021B0002DE9F84F04008C464FF00000009014D039
:1021C00094F83400012812D094F8355001200021F1
:1021D00084F83400012D0CD0C0026065012000900D
:1021E00084F834100098BDE8F88F0120FBE7022046
:1021F000F9E78C4D0226206884F83560A8428A4DA4
:1022000061658A4E8A4FDFF82C82DFF82C92DFF866
:102210002CA2DFF82CB226D0A84224D0B04222D083
:10222000B84220D040451ED048451CD050451AD059
:10223000584518D08349884215D0824918318842C0
:1022400011D08049303188420DD07E4948318842D2
:1022500009D07C496031884205D07A49783188427A
:1022600001D078499031016821F001010160614697
:102270002046FEF7F1FB6B49206888422CD0A8422B
:102280002AD0B04228D0B84226D0404524D0484574
:1022900022D0504520D058451ED06A4A90421BD0CB
:1022A000684A1832904217D0664A3032904213D0B2
:1022B000644A483290420FD0624A603290420BD05A
:1022C000604A7832904207D05E4A9032904203D002
:1022D0005C4AA83290420CD1026822F01E0242F001
:1022E00016020260206C88B12068026842F0080281
:1022F0000BE0026822F00E0242F00A020260206C3B
:1023000020B12068026842F004020260206888421E
:102310004BD0A84249D0B04247D0B84245D0404502
:1023200043D0484541D050453FD058453DD0454A1F
:1023300090423AD0434A1832904236D0414A303225
:10234000904232D03F4A483290422ED03D4A6032CD
:1023500090422AD03B4A7832904226D0394A903275
:10236000904222D0374AA83290421ED0364A90423C
:102370001BD0354A1432904217D0334A283290424B
:1023800013D0314A3C3290420FD02F4A5032904203
:102390000BD02D4A6432904207D02B4A78329042BB
:1023A00003D0294A8C3290420DD1206E0268D203AC
:1023B00003D5026842F480720260E06E18B10268D0
:1023C00042F4807202602068884226D0A84224D05D
:1023D000B04222D0B84220D040451ED048451CD043
:1023E00050451AD0584518D01649884215D015497D
:1023F0001831884211D01349303188420DD011492B
:102400004831884209D00F496031884205D00D49D2
:102410007831884201D00B499031016841F00101C7
:102420000160DFE610000240280002404000024048
:10243000580002407000024088000240A0000240A4
:10244000B8000240100402400854025870B5044617
:1024500000F02AF90546601C02D0044800780444C4
:1024600000F022F9401BA042FAD370BD0000002406
:102470002DE9F84F03247D4D00234FF001094FF063
:10248000B04B4FF00F0AE9E009FA03F73A4076D073
:102490000E7906F00306012E01D0022E18D1D0F8D5
:1024A00008C04FEA430ECE6804FA0EF82CEA080C76
:1024B00006FA0EF646EA0C068660D0F804C00E79DD
:1024C0002CEA070CC6F300169E4046EA0C0646604E
:1024D0000E79F643B6070BD0C6684FEA43088F68FB
:1024E00004FA08FC26EA0C0607FA08F73743C76027
:1024F0000E7906F00306022E12D1DE080F694FEAAC
:10250000437C00EB8606B646366A4FEADC6C0AFA74
:102510000CF807FA0CF726EA08063743CEF82070C5
:102520000F7906684FEA430807F0030704FA08FC2E
:1025300007FA08F726EA0C06374307604E6816F4D8
:10254000403F1CD04A4E376847F002073760366874
:102550009F0706F00206009623F0030606F1B04638
:10256000B6463F0FD6F80864DFF808810AFA07FC80
:10257000404526EA0C0603D14FF0000C41E06CE028
:10258000DFF8F4C0604502D14FF0010C39E0DFF80C
:10259000ECC0604502D14FF0020C32E0DFF8E0C041
:1025A000604502D14FF0030C2BE0DFF8D8C0604546
:1025B00002D14FF0040C24E0DFF8CCC0604502D11A
:1025C0004FF0050C1DE0DFF8C4C0604502D14FF0AC
:1025D000060C16E0DFF8B8C0604502D14FF0070CDA
:1025E0000FE0DFF8B0C0604502D14FF0080C08E002
:1025F000DFF8A4C0604502D14FF0090C01E04FF0B4
:102600000A0C0CFA07FC4CEA060CCEF808C44F681A
:10261000DBF80060FF0226EA020600D516435F469B
:10262000CBF80060D1F804C0DBF804605FEA8C2CC2
:1026300026EA020600D516437E606E684F6826EAD9
:102640000206BF0300D516436E602E684F6826EA67
:102650000206FF0300D516432E605B1C0A6832FA9F
:1026600003F67FF411AFBDE8F88F0000800000583A
:10267000F4440258000002580004025800080258AE
:10268000000C02580010025800140258001802589A
:10269000001C02580020025800240258014800681B
:1026A000000C70470010005C014880687047000013
:1026B0000000002430B590F84120202A24D190F861
:1026C0004020012A20D0012380F84030242280F8C5
:1026D0004120202300240268156825F001051560BB
:1026E0000268156825F480551560026815680D4369
:1026F000156001680A6842F001020A6080F8413002
:1027000080F84040002030BD022030BD30B590F848
:102710004120202A22D190F84020012A1ED00123F6
:1027200080F84030242280F84120202400250268CF
:10273000136823F0010313600268136823F47063C5
:1027400043EA0121116001680A6842F001020A604F
:1027500080F8414080F84050002030BD022030BD5C
:1027600070B5040004D094F84100002510B106E0D3
:10277000012070BD204684F8405000F0ABF92420C1
:1027800084F841002068016821F001010160D4E96A
:10279000001020F0706008612068816821F4004119
:1027A0008160E06821680128A06806D040F40440F8
:1027B0008860E068022803D006E040F40040F7E7B4
:1027C00021684FF40060486020212068114A436866
:1027D000134343602068C26822F40042C26054F888
:1027E000106B0DCC104340EA0320F06054F81C3C01
:1027F000D4E900021043186054F81C0D026842F03E
:1028000001020260656484F84110256384F8425037
:10281000002070BD008000022DE9FF4F83B0044608
:1028200090F841009A469346DDE91087DDF848901C
:10283000202874D15FEA080014D09FB194F84000BA
:1028400001286CD0012084F84000FFF72DFF012201
:10285000064619230090D103204602F039FD0028D6
:1028600071D103E04FF4007060646CE00025C4F89F
:102870002480222184F84110402084F842006564BD
:102880006785534665635A4604992046CDE900960C
:1028900002F0A2FC10B184F8405054E0618DFF2793
:1028A00034484FF08078FF294FF0007A04D927850B
:1028B0003A464346009005E0618D534621850090DD
:1028C00094F828202046049902F0EAFC00224B46A6
:1028D00004212046009602F0FBFCA0BB2068616A40
:1028E000406A0870606A401C6062208D401E81B2A0
:1028F0002185608D401E6085608DD8B1D1B90022E0
:102900004B4680212046009602F0E2FCD8B9608D4B
:10291000FF2805D927853A464346009506E026E07C
:10292000608D53462085009594F828202046049910
:1029300002F0B6FC608D0028C8D1324649462046D8
:1029400002F0FDFC18B1012007B0BDE8F08F21684E
:102950002020094AC86121684B6813404B6084F805
:10296000410084F84250002084F84050ECE70220F7
:10297000EAE700000024008000E800FE2DE9FF4F98
:1029800083B0044690F841009A469346DDE91087EB
:10299000DDF84890202871D15FEA080014D09FB17B
:1029A00094F84000012869D0012084F84000FFF726
:1029B0007BFE0122064619230090D103204602F037
:1029C00087FC00286ED103E04FF40070606469E07A
:1029D0000025C4F82480212184F84110402084F887
:1029E000420065646785534665635A4604992046EC
:1029F000CDE9009602F022FC10B184F8405051E07D
:102A0000608DFF274FF08078FF284FF0007A04D9BF
:102A100027853A464346009505E0608D534620855C
:102A2000009594F828202046049902F039FC32469B
:102A30004946204602F0AFFCA0BB606A21680078DE
:102A40008862606A401C6062608D401E6085208DD7
:102A5000401E80B22085618DD9B1D0B900224B468D
:102A600080212046009602F033FCD8B9608DFF2803
:102A700005D927853A464346009506E026E0608D55
:102A800053462085009594F828202046049902F0AA
:102A900007FC608D0028CAD132464946204602F024
:102AA0004EFC18B1012007B0BDE8F08F206820214E
:102AB000074AC161206843681340436084F84110AD
:102AC00084F84250002084F84050ECE70220EAE706
:102AD00000E800FE10B5B6B00446142130A8FDF79A
:102AE0002FFCC0216846FDF72BFC1849206888425E
:102AF0002AD10020219008210446CDE90010684623
:102B000000F090FA08B1FEF7B8F81148016841F0FA
:102B100002010160006830AB122100F00200359024
:102B2000C020042283E813000A4830A9CDE93342CB
:102B3000FFF79EFC06480830016841F4001101606F
:102B4000006800F40010359036B010BD005400400D
:102B5000E044025800040258024881680278114497
:102B60008160704700000024032010B500F0C8F811
:102B700001F0D0F80F4A104914681368C4F3032217
:102B800003F00F038A5CC95C02F01F0201F01F0111
:102B9000D0400A4A20FA01F11160094908600F206B
:102BA00000F010F808B1012010BD00F06DF8002011
:102BB00010BD000018440258DE7700081000002401
:102BC0000C00002410B5102804468AB02AD2002236
:102BD0000146192000F074F8192000F063F8154838
:102BE00004601548016841F001010160006808A90E
:102BF00000F001000990684601F018F801F078F83B
:102C00000E49400000220E4CB0FBF1F10D4840F29D
:102C1000E7330460C0E90332491EC0E9011201F044
:102C20002BFC10B101200AB010BD064801F072FC67
:102C3000F9E7000004000024F044025840420F006D
:102C40000000014094020024BFF35F8F044800217C
:102C50000368034A23F480330360703211607047C5
:102C600024ED00E0074A40F0010006497032106090
:102C7000086840F480300860BFF34F8FBFF36F8F58
:102C80007047000024ED00E0054808B5016841F0F8
:102C900002010160006800F00200009008BD000021
:102CA000F4440258002809DB410900F01F028900A2
:102CB000012001F1E0219040C1F8000170470000BF
:102CC0000E4BF0B41B680D46C3F30223C3F1070695
:102CD000042E00D90426191D072901D2002300E083
:102CE000DB1E012404FA06F19C40491E2940641EA3
:102CF000994014402143F0BC03F038BC0CED00E0D7
:102D0000064900F0070210B54FF6FF040868044BAF
:102D1000204040EA02201843086010BD0CED00E09E
:102D20000000FA05134970B50A68D243520705D569
:102D3000096801F00701814213D118E00A6822F006
:102D4000070202430A60FFF7AFFC0A4D4FF47A76A0
:102D50000446083D07E000BFFFF7A6FC001BB04299
:102D600001D9012070BD2868C0438004F4D400203C
:102D700070BD00000C48025810B500F085FF0549F1
:102D80000968054AC1F30211515C01F01F01C840F6
:102D900010BD000020440258DE770008494930B5D4
:102DA000484C0B1D0A68143409681D68246802F039
:102DB0000303C5F30012C1F30531C4F3CC040029A9
:102DC00014FB02F200EE102AF8EE400A75D03F4ADA
:102DD0009FED3D1AB7EE000A6BB1DFED3D1A012BF6
:102DE00001D0022B64D002EE101A1168F8EE422ACC
:102DF00081EEA22A21E0334C283C23689B0612D5A1
:102E0000344B246801EE901A1168C4F3C104F8EE43
:102E1000612AE34001EE903AC1F30801F8EE611A2D
:102E200081EEA22A0BE001EE901ADFED2B2A00BF03
:102E3000F8EE611A116882EEA12AC1F3080101EED1
:102E4000901A1168F8EE611A40EE811A71EE800A4C
:102E500062EE200AC1F3462101EE101AB8EE411AC3
:102E600031EE001AC0EE811ABCEEE11A80ED001AB4
:102E70001168C1F3064101EE101AB8EE411A31EEA5
:102E8000001AC0EE811ABCEEE11A80ED011A116839
:102E9000C1F3066101EE101AB8EE411A31EE000AD4
:102EA00080EE801ABCEEC10A80ED020A30BD04E05B
:102EB00001EE901ADFED092ABAE7002101604160B6
:102EC0008160F3E728440258000000393844025872
:102ED0000024744A0090D0030024744C001B374B2C
:102EE000494930B5484C0B1D0A681C3409681D68F7
:102EF000246802F00303C5F30022C1F30551C4F3B3
:102F0000CC04002914FB02F200EE102AF8EE400A6D
:102F100075D03F4A9FED3D1AB7EE000A6BB1DFED69
:102F20003D1A012B01D0022B64D002EE101A116859
:102F3000F8EE422A81EEA22A21E0334C283C236895
:102F40009B0612D5344B246801EE901A1168C4F325
:102F5000C104F8EE612AE34001EE903AC1F30801A2
:102F6000F8EE611A81EEA22A0BE001EE901ADFED75
:102F70002B2A00BFF8EE611A116882EEA12AC1F374
:102F8000080101EE901A1168F8EE611A40EE811AFC
:102F900071EE800A62EE200AC1F3462101EE101A9A
:102FA000B8EE411A31EE001AC0EE811ABCEEE11AF9
:102FB00080ED001A1168C1F3064101EE101AB8EE57
:102FC000411A31EE001AC0EE811ABCEEE11A80ED12
:102FD000011A1168C1F3066101EE101AB8EE411A28
:102FE00031EE000A80EE801ABCEEC10A80ED020AC2
:102FF00030BD04E001EE901ADFED092ABAE70021A6
:10300000016041608160F3E7284402580000003904
:10301000404402580024744A0090D0030024744CA9
:10302000001B374B2DE9FE4F0546DFF8E48350F8CF
:10303000081B0024F64FC943019005F128002646DD
:1030400008F12408009008011DD4A86E50B1B0F515
:10305000801F0CD0B0F5001F0ED0B0F5401F1ED061
:1030600001240FE0386840F40030386017E0019820
:10307000022102F0B3FB03E00098022102F03EFCC3
:1030800004000CD026462888C043C00523D4A86D70
:1030900005281ED2DFE800F00C11161B1B00AA6EDB
:1030A000D8F8001021F440111143C8F80010EAE7E5
:1030B000386840F40030386009E00198002102F0DF
:1030C0008DFB03E00098002102F018FC044674B167
:1030D00000E0012426462888C043800528D4E86DF6
:1030E00080281ED00CDC90B140280ED114E0AA6DCF
:1030F000D8F8001021F007011143C8F80010EAE7E2
:10310000C02813D0B0F5807F10D001240FE03868BC
:1031100040F40030386009E00198002102F05EFBC5
:1031200003E00098002102F0E9FB04469CB126462A
:103130002888DFF8DC92C04309F12C0940052CD423
:10314000D5F8A800B0F5800F20D00DDCA0B1B0F507
:10315000001F0FD115E0EA6DD8F8001021F4E071DE
:103160001143C8F80010E3E7B0F5C00F13D0B0F575
:10317000000F10D001240FE0386840F400303860B0
:1031800009E00198002102F029FB03E000980021EA
:1031900002F0B4FB04467CB126462888C0430005F3
:1031A0002DD4D5F8AC00B0F1007F21D00EDCA8B151
:1031B000B0F1807F10D116E0D5F8A820D9F8001022
:1031C00021F460011143C9F80010E6E7B0F1407F37
:1031D00013D0B0F1806F10D001240FE0386840F4B4
:1031E0000030386009E00198002102F0F7FA03E0AE
:1031F0000098002102F082FB044674B1264628683C
:10320000C04380011FD4E86CD8B110280FD020280B
:1032100012D0302815D0012414E0D5F8AC20D9F80C
:10322000001021F0E0611143C9F80010E7E73868A9
:1032300040F40030386004E00198022102F0CEFA38
:10324000044674B126462888C043C0042BD4286E97
:10325000B0F5005F20D00DDCA0B1B0F5805F0FD1DC
:1032600015E06B48EA6C2030016821F03001114311
:103270000160E8E7B0F5405F13D0B0F5804F10D0A3
:1032800001240FE0386840F40030386009E001980C
:10329000002102F0A3FA03E00098002102F02EFBC7
:1032A00004468CB126462888C043800429D4686E21
:1032B000B0F5403F23D010DC08B3B0F5803F14D008
:1032C000B0F5003F0FD115E02A6ED8F8001021F4B8
:1032D000E0411143C8F80010E5E7B0F5802F0ED0AB
:1032E000B0F5A02F0BD001240AE00198012102F0D3
:1032F00075FA03E00098012102F000FB044694B146
:1033000026462888C04340042AD4D5F8B000B0F13E
:10331000405F23D010DC08B3B0F1805F14D0B0F16F
:10332000005F0FD115E06A6ED8F8001021F4E0219B
:103330001143C8F80010E4E7B0F1804F0ED0B0F1AF
:10334000A04F0BD001240AE00198012102F046FAB7
:1033500003E00098012102F0D1FA044674B1264638
:103360002888C04300041FD4286FD8B1B0F1805F13
:103370000ED0B0F1005F10D0012414E0D5F8B020D9
:10338000D9F8001021F0E0411143C9F80010E7E737
:10339000386840F40030386004E00198012102F000
:1033A0001DFA044674B126462868C043C0011ED4E5
:1033B000A86CD0B101280ED0022811D0032814D057
:1033C000012413E02A6FD8F8001021F04051114376
:1033D000C8F80010E8E7386840F40030386004E0CE
:1033E0000198022102F0FAF90446ACB12646286899
:1033F000DFF81CB0C043ABF11C0B400252D40548AF
:10340000016841F480710160FFF74EF9824611E0D6
:103410002C44025800480258FA48AA6C016821F06E
:10342000030111430160E2E7FFF73EF9A0EB0A0058
:10343000642835D8F4480068C005F5D58CBBDFF8A2
:10344000C4A3B5F8B4100AF1240ADAF8000001F4B4
:10345000407100F44070884211D0DAF80010DAF8B8
:10346000002021F4407142F48032CAF80020DAF8DA
:10347000002022F48032CAF80020CAF80010D5F8E3
:10348000B400B0F5807F1AD1FFF70EF9029012E078
:10349000FFF70AF90299411A41F2883081420AD9AC
:1034A000032426462878DFF85CA3C0430AF1080A03
:1034B000C00721D03CE0DAF800008007E8D5D5F855
:1034C000B410C1F30120032858460DD0016821F43F
:1034D0007C510160B5F8B420DAF80010C2F30B0299
:1034E0001143CAF80010DDE7C84A036802EA111266
:1034F00023F47C511143ECE7E86F182816D005DC63
:10350000A0B1082808D0102804D10AE020280DD046
:1035100028280BD001240AE00198012102F05EF96D
:1035200003E00098012102F0E9F9044664B126465F
:103530002878C04380071ED4A86F062819D2DFE878
:1035400000F0160C11161616EA6FDAF8001021F0CA
:1035500038011143CAF80010EAE70198012102F08E
:103560003DF903E00098012102F0C8F904467CB15E
:1035700000E0012426462878C04340071FD4D5F830
:103580009400062819D2DFE800F0160C1116161662
:10359000AA6FDAF8001021F007011143CAF80010F1
:1035A000E9E70198012102F019F903E000980121EF
:1035B00002F0A4F90446A4B100E0012426462878CC
:1035C000C04380062BD4D5F89000B0F1405F24D0E2
:1035D00011DC10B3B0F1805F15D0B0F1005F10D1F5
:1035E00016E0D5F89420D9F8001021F00701114316
:1035F000C9F80010E3E7B0F1804F0ED0B0F1A04F52
:103600000BD001240AE00198002102F0E7F803E062
:103610000098022102F072F9044694B126462878F7
:10362000C04340062BD4D5F89C00B0F5406F24D0A1
:1036300011DC10B3B0F5806F15D0B0F5006F10D16C
:1036400016E0D5F89020DAF8001021F0E04111439F
:10365000CAF80010E3E7B0F5805F0ED0B0F5A05FC8
:103660000BD001240AE00198002102F0B7F803E032
:103670000098022102F042F9044694B126462878C7
:10368000C04300062BD4D5F8A000B0F5C04F24D01D
:1036900011DC10B3B0F5005F15D0B0F5804F10D13C
:1036A00016E0D5F89C20D9F8001021F4E051114320
:1036B000C9F80010E3E7B0F5004F0ED0B0F5204F89
:1036C0000BD001240AE00198002102F087F803E002
:1036D0000098022102F012F9044654B126462878D7
:1036E000C04300071ED4D5F88400B0F5805F0AD02F
:1036F0000FE0D5F8A020D9F8001021F46041114363
:10370000C9F80010EBE70098022102F0F7F800B1C9
:103710000126D5F88420DAF8001021F44051114335
:10372000CAF800102878C043C00613D4D5F8980012
:10373000B0F5807F05D10098022102F0DFF800B1DA
:103740000126D5F89820D9F8001021F440711143D2
:10375000C9F800102868C043000316D4D5F8A400A7
:1037600038B1B0F5803F09D0B0F5003F0BD001244F
:103770000AE00198002102F031F803E000980221EC
:1037800002F0BCF804468CB126462868C0434003CA
:1037900022D4D5F88800B0F5801F11D0B0F5001FF5
:1037A00013D0B0F5401F15D0012414E0D5F8A420A3
:1037B000D9F8001021F440311143C9F80010E4E7B2
:1037C000386840F40030386004E00098012102F0CD
:1037D00095F804465CB126462868C043C00323D44C
:1037E000286DA8B1B0F5803F17D001241BE0D5F8B3
:1037F0008820DAF8001021F440111143CAF80010B3
:10380000EAE700004C44025800480258CFFFFF008E
:10381000386840F40030386004E00198022101F07B
:10382000DDFF0446E4B126462868C043800005D485
:103830000098022102F062F800B101262868C04316
:1038400080031BD4D5F88000B0B1B0F5807F0FD0D5
:10385000B0F5007F10D0B0F5407F0DD001240CE012
:103860005A482A6D016821F4803111430160DBE779
:10387000386840F400303860ECB326462868C0430E
:10388000C00207D46A6FD8F8001021F0004111433C
:10389000C8F800102868C043C00008D4D5F8B82084
:1038A000DBF8001021F480411143CBF800102868A8
:1038B000C043800207D4EA6ED8F8001021F080716E
:1038C0001143C8F800102868C04340000CD4DBF84E
:1038D000001021F40041CBF80010DBF80010D5F8FF
:1038E000BC201143CBF800102868C04308D43748E7
:1038F0006A6D016800E018E021F040511143016059
:103900002868C043000208D4D5F88C20DAF80010EB
:1039100021F440011143CAF8001028790024C04363
:1039200000F0010020430AD00FE0D5F88020DAF83B
:10393000001021F440711143CAF800109EE701986D
:10394000002101F04BFF00B106462879C04300F08A
:103950000200204305D10198012101F03FFF00B191
:1039600006462879C04300F00400204305D10198A1
:10397000022101F033FF00B106462879C04300F070
:103980000800204305D10098002101F0B7FF00B1E5
:1039900006462879C04300F01000204305D1009866
:1039A000012101F0ABFF00B106462879C04300F0C9
:1039B0002000044304D10098022101F09FFF00B9C8
:1039C00016B10120BDE8FE8F0020FBE74C440258F1
:1039D0002DE9F05F04000F467ED0DFF83882D8F87A
:1039E000000000F00F00B8420CD2D8F8001021F00F
:1039F0000F013943C8F80010D8F8000000F00F009C
:103A0000B84269D12078844D40070AD520692968D9
:103A100001F07001884204D9296821F07001014346
:103A2000296020787C4E361D00070AD56069316810
:103A300001F07001884204D9316821F0700101431E
:103A400031602078C0060AD5A069316801F4E061D0
:103A5000884204D9316821F4E06101433160207863
:103A6000DFF8B4B180060BF1080B0CD5E1695846BC
:103A7000DBF8002002F07002914204D9026822F0C3
:103A800070020A430260207880070AD5E06829683E
:103A900001F00F01884204D9296821F00F01014388
:103AA00029602078C0073ED05B49A2682868183991
:103AB00020F47060104328606068022818D0032842
:103AC00019D00968012819D0490700294ADADFF816
:103AD00048A1AAF1080A00E044E0DAF8002022F048
:103AE00007020243CAF80020FEF7DEFD814612E01D
:103AF00009688903E9E709688901E6E7C905E4E798
:103B0000FEF7D2FDA0EB090141F28830814202D9D3
:103B10000320BDE8F09F6168DAF8000000F038008B
:103B2000B0EBC10FECD1207880070AD5E068296896
:103B300001F00F01884204D2296821F00F010143EE
:103B40002960D8F80010404601F00F01B9420BD9A6
:103B5000016821F00F0139430160006800F00F0097
:103B6000B84201D00120D4E7207840070AD5206967
:103B7000296801F07001884204D2296821F070019F
:103B800001432960207800070AD56069316801F097
:103B90007001884204D2316821F070010143316024
:103BA0002078C0060AD5A069316801F4E061884236
:103BB00004D2316821F4E06101433160207880064D
:103BC0000CD5E1695846DBF8002002F07002914202
:103BD00004D2026822F070020A43026000F09AF8F0
:103BE0000E492A682B68C2F3032203F00F038A5C94
:103BF000C95C02F01F0201F01F01D040084A20FA00
:103C000001F111600749086007480068BDE8F05FEE
:103C1000FEF7D8BF0020005218440258DE77000893
:103C2000100000240C0000240400002470B5144C83
:103C30003F220260124A24680832131D114D04F01D
:103C40000704446016681C1D06F4706686601668DA
:103C500006F00F06C660126802F0700202611A6870
:103C600002F0700242611A6802F4E0628261226826
:103C700002F07002C261286800F00F00086070BD99
:103C8000104402580020005230B500F043F80B4AAF
:103C90000B490C4B15681468C5F3032204F00F049C
:103CA0008A5C095D02F01F0201F01F01D040064A44
:103CB00020FA01F119601060084630BD184402581E
:103CC000DE770008100000240C00002400B5FFF788
:103CD000DBFF05490968054AC1F30211515C01F097
:103CE0001F01C84000BD00001C440258DE770008D8
:103CF00000B5FFF7C9FF05490968054AC1F302216C
:103D0000515C01F01F01C84000BD00001C44025876
:103D1000DE770008454970B545480968434B103BBC
:103D200011F0380208D00111082A03D0102A0BD054
:103D3000182A0BD0084670BD19688906FBD519688A
:103D4000C1F3C101C84070BD3A4870BD3749374D15
:103D500018310C1D24350A68096826682D6802F0A0
:103D6000030406F00102C1F30511C5F3CC0515FBF0
:103D700002F200EE102AB8EE400AE9B32F4ADFED56
:103D80002E0AB7EE001A6CB1DFED2D1A012C01D00E
:103D9000022C43D002EE101A1068F8EE422A81EE8F
:103DA000A22A1EE01C68A40611D51B6801EE901A19
:103DB0001168C3F3C103F8EE612AD84001EE900AFE
:103DC000C1F30800F8EE611A81EEA22A0BE001EEC1
:103DD000901ADFED1C2A00BFF8EE611A106882EE1F
:103DE000A12AC0F3080001EE900AF8EE611A40EE35
:103DF000201A31EE810A00E015E022EE000A106878
:103E0000C0F34620401C00EE900AF8EE600A80EEF7
:103E1000201ABCEEC10A10EE100A70BD01EE901A15
:103E2000DFED092AD8E7002070BD000010440258D9
:103E30000090D003001BB700000000393044025846
:103E40000024744A0024744C001B374B2DE9F05FAA
:103E500004007DD0FF4F2078FE4D1837DFF8F49333
:103E6000103DC00748D0D9F80000396800F038008C
:103E7000102815D0182803D101F0030002280FD014
:103E80006068B0F5803F12D010B1B0F5A02F18D007
:103E9000286820F480302860286820F4802009E019
:103EA0002868800328D560680028D2D024E02868DC
:103EB00040F480302860606888B1FEF7F5FB064664
:103EC00009E0286840F480202860F0E7FEF7ECFB6A
:103ED000801B64286FD828688003F7D50CE0FEF7B4
:103EE000E3FB064605E000BFFEF7DEFB801B64280F
:103EF000F0D828688003F7D4207841F20308D54E23
:103F00000C3E800769D5D9F80000396810F03800F8
:103F10000ED0182801D188070AD0E06890B329682C
:103F200021F0190101432960FEF7BEFB824631E012
:103F30002868400702D5E06800288AD0E168286830
:103F400020F0190008432860FEF7AEFB824607E028
:103F5000DFE000BFFEF7A8FBA0EB0A000228B9D8FB
:103F600028684007F6D500BFFEF798FB40451BD8F0
:103F70002069402812D0316821F47C3141EA0030B8
:103F800030602AE018E000BFFEF78EFBA0EB0A00CD
:103F900002289FD828684007F6D5E5E7306820F466
:103FA0007C3040F40030EBE7207C316821F0FE41AA
:103FB00041EA0060E4E70DE1286820F00100286094
:103FC000FEF772FB824605E0FEF76EFBA0EB0A00EF
:103FD00002288DD828684007F6D42078C0065DD521
:103FE000D9F80000DFF86CB2396800F03800ABF1A6
:103FF000040B082810D0182803D101F00300012871
:104000000AD0E0690028286838D040F08000286095
:10401000FEF74AFB824623E02868C00523D5E06905
:10402000802876D11FE0206A202821D0316821F035
:10403000F84141EA8060306030E000BF94F8201021
:10404000DBF8002022F07C5242EA0161CBF800103C
:1040500024E000BFFEF728FBA0EB0A00022898D856
:104060002868C005F6D5FEF719FB4045E6D8DAE723
:10407000306820F0F84040F08040DCE720F080001D
:104080002860FEF711FB064605E000BFFEF70CFBBB
:10409000801B02289DD82868C005F7D42078000727
:1040A00029D56C486169643000298046016811D0C7
:1040B00041F001010160FEF7F7FA064605E000BF96
:1040C000FEF7F2FA801B0228C9D8D8F80000800752
:1040D000F6D510E021F001010160FEF7E5FA064691
:1040E00005E000BFFEF7E0FA801B022872D8D8F87E
:1040F00000008007F6D42078800623D5A069002828
:10410000286810D040F480502860FEF7CDFA0646AB
:1041100005E036E1FEF7C8FA801B02285AD8286865
:104120008004F7D50EE020F480502860FEF7BCFA3A
:10413000064604E0FEF7B8FA801B02284AD8286831
:104140008004F7D4207840074FD5DFF80C81D8F8E9
:10415000001041F48071C8F80010FEF7A5FA064679
:1041600005E000BFFEF7A0FA801B642832D8D8F81B
:104170000000C005F6D5374EA068603601280AD089
:1041800008B1052813D0306820F001003060306895
:1041900020F0040002E0306840F001003060A068C8
:1041A00041F2883A90B1FEF77FFA80460AE0306823
:1041B00040F004003060EEE7FEF776FAA0EB08016D
:1041C000514507D830688007F6D50EE0FEF76CFA47
:1041D000804607E084E000BFFEF766FAA0EB080126
:1041E00051457DD830688007F6D4606AB0B3DFF8F7
:1041F0006480D9F8001008F120084FF6F87B08F128
:104200000409C1F3C2010329A8F1040A69D00228F4
:10421000286820F08070286003D0FEF745FA044635
:1042200084E0FEF741FA064605E000BFFEF73CFADF
:10423000801B022877D828688001F7D4E26A40F210
:10424000F331386854F8283F884340EA0210184395
:10425000386004E01044025800480258B5E0217B61
:10426000434622894FF4FE0C208A4FF0FE47490254
:10427000267D521E401EA1F50071C2F308088AB2C5
:10428000761E0CEA004042EA08020243504607EA62
:1042900006610A431A60DAF8002022F00102CAF827
:1042A0000020D9F80020266A22EA0B0242EAC60260
:1042B000C9F80020DAF80010A26921F00C011143BE
:1042C000CAF800100168E26921F00201114301609F
:1042D000016841F480310160016841F4003101E07E
:1042E00021E027E00160016841F48021016001685C
:1042F00041F001010160286840F080702860FEF7FD
:10430000D3F9044605E000BFFEF7CEF9001B0228F2
:1043100009D828688001F7D557E000BFFEF7C4F937
:10432000001B022802D90320BDE8F09F2868800105
:10433000F4D44AE039680128D8F8000021D0A26AF4
:1043400001F0030393421CD1E26AC1F305118A42D2
:1043500017D1216BC0F30802491E8A4211D1616B4B
:10436000C0F34622491E91420BD1A16BC0F3064215
:10437000491E914205D1E16BC0F30660491E81429E
:1043800001D00120D0E7A16C4E46D9F80000C0F35F
:10439000CC00814219D0DAF80000554620F0010027
:1043A000CAF80000FEF780F94FEA0007FEF77CF933
:1043B000B842FBD0A26C306820EA0B0040EAC20091
:1043C0003060286840F0010028600020ACE77047AA
:1043D00070477047F0B590F83C20012A3BD01F4E43
:1043E000012480F83C40022280F83D2002681C4DE8
:1043F0005368B242D2F808C001D0AA4203D14F6834
:1044000023F470033B430F6823F070031F4357608E
:104410000268B24213D0B2F1804F10D0114B9A42D1
:104420000DD0114B9A420AD0104B9A4207D0AA42A3
:1044300005D00F4B9A4202D00E4B9A4204D18968A4
:104440002CF0800319439160002180F83D4080F8F2
:104450003C100846F0BD0220F0BD00000000014005
:10446000000401400004004000080040000C00402F
:10447000001800400040014010B5040003D094F83B
:104480003D0010B107E0012010BD002084F83C0081
:10449000204600F023F8022084F83D002068211D0A
:1044A00001F08AFB012084F8480084F83E0084F87B
:1044B0003F0084F8400084F8410084F8420084F80A
:1044C000430084F8440084F8450084F8460084F8EA
:1044D000470084F83D00002010BD000008B50068CA
:1044E000B0F1804F12D10A48016841F0010101602A
:1044F00000680022114600F0010000901C20FEF729
:10450000DFFBBDE808401C20FEF7CCBB08BD000067
:10451000E844025890F83D10012901D0012070476D
:10452000174A022180F83D100168CB6843F001036F
:10453000CB600068904214D0B0F1804F11D0114987
:1045400088420ED0104988420BD01049884208D0CA
:104550000F49884205D00F49884202D00E4988424F
:1045600007D181680D4A1140062906D0B1F5803F78
:1045700003D0016841F00101016000207047000094
:10458000000001400004004000080040000C004012
:1045900000040140001800400040014007000100F5
:1045A00070B5044690F83C000025012814D03A4B21
:1045B000012684F83C60022084F83D00226890685F
:1045C000184020F47F409060086870282FD010DCDD
:1045D00010F00F0F03D022E04FF0020070BD4FEA41
:1045E0002012072A1BD2DFE802F0535353534B39F2
:1045F0004100B0F1101F4BD009DCB0F5805F0FD047
:10460000B0F5005F1ED0B0F5801F08D140E0A0F5E6
:10461000801120393CD010293AD0202938D00125EA
:1046200084F83D60002084F83C00284670BD4A684C
:104630002068D1E9021301F021FB2068816841F074
:10464000770109E04A682068D1E9021301F016FBFE
:104650002068816841F480418160E1E7CA68496867
:10466000206801F01FFB2068502106E0CA684968F5
:10467000206801F028FB2068602101F009FBCFE7EA
:10468000CA684968206801F00DFB20684021F4E702
:10469000226801461046F0E788FFCEFF704770B5EC
:1046A0000446006800250169C943890715D4C1681B
:1046B000C943890711D4EA1E0261012121772068CC
:1046C00080698007204602D0FFF7E8FF04E000F091
:1046D000A7F8204600F0A5F8257720680169C943AE
:1046E000490717D4C168C943490713D402216FF0A1
:1046F0000402026121772068806910F4407F20461F
:1047000002D0FFF7CBFF04E000F08AF8204600F06B
:1047100088F8257720680169C943090716D4C1685C
:10472000C943090712D404216FF0080202612177FE
:104730002068C0698007204602D0FFF7AFFF04E081
:1047400000F06EF8204600F06CF8257720680169CB
:10475000C943C90617D4C168C943C90613D408217F
:104760006FF01002026121772068C06910F4407F69
:10477000204602D0FFF792FF04E000F051F82046F7
:1047800000F04FF8257720680169C943C90708D1AF
:10479000C168C943C90704D1891E0161204600F0E0
:1047A00041F820680169C943090609D4C168C943B1
:1047B000090605D46FF0800101612046FFF708FE6D
:1047C00020680169C943C90509D4C168C9430906FC
:1047D00005D46FF4807101612046FFF7F8FD206871
:1047E0000169C943490609D4C168C943490605D4CA
:1047F0006FF040010161204600F034F82068016943
:10480000C94389060BD4C168C943890607D46FF030
:10481000200101612046BDE87040FFF7DABD70BDA0
:104820007047704710B504460948844207D100F02C
:104830005FFF094909489FED070AFCF721FA08497B
:104840002068884203D1BDE81040FEF785B910BD4D
:104850003C010024A69B443BEC020024E00200241F
:1048600000000140704730B590F88410012918D03D
:10487000012280F884202421C0F8881000222024FE
:1048800001680B680D6823F0005325F001050D60E9
:10489000426601680B60C0F8884080F884201046AA
:1048A00030BD022030BD10B50446D0F88C00202861
:1048B00001D0022010BD61B15AB10123E36600208E
:1048C0002067204601F088FD0028F3D1E16E012920
:1048D00001D0012010BD226810211162226852E827
:1048E000001F41F0100142E80013002BF6D110BD6B
:1048F00010B500682C4A904254D1642952D82B49F3
:1049000064222B48FFF7CFFF2A482B4900688842D2
:104910003AD029491831884236D027493031884267
:1049200032D02549483188422ED02349603188420F
:104930002AD021497831884226D01F4990318842B7
:1049400022D01D49A83188421ED01C4988421BD064
:104950001A491831884217D018493031884213D08B
:104960001649483188420FD01449603188420BD033
:1049700012497831884207D010499031884203D0DB
:104980000E49A831884203D1016821F0080102E0F4
:10499000016821F004010160BDE810400348642172
:1049A000FBF7CEBC10BD00000010014084000024C5
:1049B000880100241C020024100002401004024060
:1049C000704770B5044690F8840001281DD001227C
:1049D00084F884202420C4F88800206805680268D0
:1049E00022F0010202602068826822F060620A43BD
:1049F0008260204601F07AF92268202100201560AB
:104A0000C4F8881084F8840070BD022070BD70B5B1
:104A1000044690F8840001281DD0012284F88420E7
:104A20002420C4F8880020680568026822F001028A
:104A300002602068826822F060420A438260204659
:104A400001F054F92268202100201560C4F8881074
:104A500084F8840070BD022070BD7047704700006C
:104A600010B500682B49884252D12B4964222B484B
:104A7000FFF719FF2A482B49006888423AD0294994
:104A80001831884236D027493031884232D0254902
:104A9000483188422ED02349603188422AD02149AA
:104AA0007831884226D01F499031884222D01D4952
:104AB000A83188421ED01C4988421BD01A4918319F
:104AC000884217D018493031884213D016494831EE
:104AD00088420FD01449603188420BD01249783196
:104AE000884207D010499031884203D00E49A8313E
:104AF000884203D1016821F0080102E0016821F039
:104B000004010160BDE8104003486421FBF718BCB4
:104B100010BD000000100140840000248801002422
:104B20001C02002410000240100402402DE9F04154
:104B300007680025044640F60F030226F869396825
:104B4000BA6818420AD183067ED501F0200302F02C
:104B5000805C53EA0C0377D0616F74E1CF4BDFF8D0
:104B600040C3134001EA0C0C53EA0C0C6CD05FEA12
:104B7000C07C0CD05FEAC15C09D54FF0010CC7F8CE
:104B800020C0D4F8907047F00107C4F890708707F0
:104B900009D5D70707D027683E62D4F8906046F061
:104BA0000406C4F8906046070AD5D60708D02768DF
:104BB00004263E62D4F8906046F00206C4F8906085
:104BC00006070CD501F020061E4308D026680823EE
:104BD0003362D4F8903043F00803C4F890300305F2
:104BE0000BD54B0109D526684FF400633362D4F826
:104BF000903043F02003C4F89030D4F89030002B6C
:104C00003DD0800609D501F0200002F08051084314
:104C100003D0616F09B1204688472168D4F890001D
:104C20008968490602D410F0280F2AD0204601F0E6
:104C3000BBF92068806840061ED52068083050E81F
:104C4000001F21F0400100E021E040E80012002AAE
:104C5000F3D1D4F8800078B192490165D4F880008E
:104C6000FCF70EFC00280AD0D4F88000016D00E0AB
:104C70002046BDE8F04108472046FFF7F1FEBDE8B9
:104C8000F0812046FFF7ECFEC4F89050F7E7D4F827
:104C90006CC02023BCF1010F7ED15FEAC06C7BD5D4
:104CA0005FEAC16C78D510203862206880684006C1
:104CB00073D5D4F880107C4A0868904234D07A4A80
:104CC0001832904230D0784A303290422CD0764A16
:104CD0004832904228D0744A6032904224D0724ABE
:104CE0007832904220D0704A903290421CD06E4A66
:104CF000A832904218D06D4A904215D06B4A1832B3
:104D0000904211D0694A303290420DD0674A483201
:104D1000904209D0654A6032904205D0634A7832A9
:104D2000904201D0614A903240680004000CA6D045
:104D3000B4F85C208242A2D9A4F85E00C869B0F53C
:104D4000807F2FD0216851E8000F20F4807041E867
:104D50000002002AF6D12068083050E8001F21F038
:104D6000010140E80012002AF5D12068083050E81F
:104D7000001F21F0400140E80012002AF5D1C4F8DC
:104D80008C30E566216851E8000F20F0100041E802
:104D90000002002AF6D101E040E00BE0D4F88000E8
:104DA000FCF7BEF92667B4F85C00B4F85E10401A50
:104DB00081B22FE0B4F85C00B4F85E10B4F85E2065
:104DC000401A81B2002AB2D00029B0D0226852E83D
:104DD000000F20F4907042E80007002FF6D1344F06
:104DE000206800F1080050E8002F02EA070240E8BE
:104DF000002CBCF1000FF3D1C4F88C30E566656778
:104E0000206850E8002F22F0100240E80023002B19
:104E1000F6D126672046FFF76BFD30E7C60209D5BD
:104E2000560207D54FF4801038622046BDE8F041A5
:104E3000FFF714BE06060AD501F0800602F4000250
:104E4000164304D0A16F00297FF412AF17E7420682
:104E500011D54A060FD52046026852E8001F21F0FE
:104E6000400142E80014002CF6D1C0F88830856774
:104E700000F016F903E7020206D54A0004D52046E1
:104E8000BDE8F041FFF7E9BDC001C6D50029C4DA8D
:104E90002046BDE8F041FFF793BD0000010000107F
:104EA00020010004A35E000810000240100402402C
:104EB000FEFFFFEF10B5040003D0D4F8880010B156
:104EC00007E0012010BD002084F88400204600F097
:104ED00027F82420C4F888002068016821F0010127
:104EE0000160204601F0A2F80128EBD0A06A10B1C1
:104EF000204600F01DFF2068416821F49041416088
:104F00002068816821F02A0181602068016841F0F1
:104F1000010101602046BDE8104000F06DBF0000B7
:104F200070B5B6B00646142130A8FBF709FAC021C7
:104F30006846FBF705FA28493068884249D10020C5
:104F40001F9001210546CDE900106846FEF76AF87A
:104F500008B1FBF792FE2148016841F010010160A1
:104F6000006800F0100035901C481038016841F0CE
:104F700002010160006830AB022100F002003590B0
:104F80004FF44040042283E82300154830A9CDE9BE
:104F90003352FDF76DFA134C29211348021584E8AA
:104FA0002300C4E9035265612046A561E5612562DD
:104FB0006562FCF71BFF08B1FBF75FFE0022C6F835
:104FC000804025201146A663FDF77AFE2520FDF7D7
:104FD00069FE36B070BD000000100140F044025878
:104FE000000402581C020024100002407047704761
:104FF0002DE9F8430446D0F88800984616460D4639
:10500000202802D00220BDE8F883A5B19EB100217E
:10501000C4F890102120C4F888001834FDF744FB30
:10502000814654F8100CA687E6872027183CB0F577
:10503000805F02D003E00120E5E7206910B12E4631
:10504000002510E000260EE08021204601F018FA2D
:10505000C0B9DEB116F8010B21688862B4F85600B9
:10506000401EA4F85600B4F856004B464FF000021C
:10507000CDF800800028E7D14FF04001204601F034
:10508000FFF948B1C4F888700320BCE735F8020B7B
:105090002168C0F30800E0E7C4F888700020B2E798
:1050A0007047FEE701688A69D243920701D4002263
:1050B0008A6200688169C943C90703D0816941F0E8
:1050C00001018161704700002DE9F0470446006846
:1050D0000026894617464FF0200835468169C906E3
:1050E00041D51021C1612FE0B9F1FF3F2CD0FDF770
:1050F000DBFAC11B494502D8B9F1000F24D1206861
:10510000426894F84210836902F48042DB431B0436
:1051100015D4B2F5804F12D0202910D0416841F447
:1051200080414160FDF7C0FA074608E0FDF7BCFA90
:10513000C01B192803D9012645F0200504E020688A
:105140008069C0438006F1D420688069C04380062E
:1051500002D5002EC8D003E016B92168C1F81C8022
:10516000012645F0040521688869C20505D54FF47C
:105170008072CA6145F00105012641050AD5216802
:1051800080054FF4806245F00805CA614FF00106C2
:1051900002D40AE0800507D5206801264FF400718B
:1051A00045F00205C16100E08EB12046FFF77AFFAD
:1051B00020680021074F43683B404360606C2843F0
:1051C000606484F8418084F8421084F840103046CE
:1051D000BDE8F08700E800FE2DE9F84317460446D5
:1051E0001548DAB2DDE908981E46009000232046F3
:1051F00000F056F842464946204600F0CCF8B8B9CF
:10520000012EFDB208D02068390A81624246494623
:10521000204600F0C0F858B920688562002240217D
:105220004B462046CDF8008000F052F8002800D010
:105230000120BDE8F8830000002000802DE9F8433C
:105240000446164817461E46DAB20090C3022046AE
:10525000DDE9089800F024F842464946204600F06F
:105260009AF8B8B9012EFDB208D02068390A8162D7
:1052700042464946204600F08EF858B920688562BB
:10528000002280214B462046CDF8008000F020F817
:10529000002800D00120BDE8F88300000020008035
:1052A00070B50068C1F3090141EA0241074D049C51
:1052B00019434FF480664268214306EA54532B4356
:1052C0009A4321F000410A43426070BDFF63FF032F
:1052D0002DE9F0411E4617460D460446DDF81880BC
:1052E00021E0701C1FD0FDF7DFF9A0EB0800B042F1
:1052F00000D8C6B92068806935EA000011D00020C6
:10530000B84210D1626C002084F84000202142F0A5
:105310002002626484F8411084F842000120BDE854
:10532000F0810120ECE72068806935EA000004D0B4
:105330000020B842D5D00020F1E70120F9E770B590
:1053400016460D4604461FE0324629462046FFF722
:10535000BBFE08B1012070BDFDF7A6F9801BA84275
:1053600000D88DB920688069C04380060CD5626C76
:10537000002084F84000202142F02002626484F87A
:10538000411084F84200E5E720688069C043800648
:10539000DAD4002070BD70B516460D46044621E0F3
:1053A000324629462046FFF78FFE08B1012070BD26
:1053B000681C17D0FDF778F9801BA84200D88DB97A
:1053C00020688069C04380070CD5626C002084F897
:1053D0004000202142F02002626484F8411084F8E9
:1053E0004200E3E720688069C0438007D8D40020EA
:1053F00070BD000010B51E48FDF7B2F980216B208A
:1054000000F094F800216B2000F090F8032000F0E9
:1054100058F8002000F050F8322000F06FF800211A
:10542000382000F083F800216A2000F07FF8002186
:10543000232000F07BF88021372000F077F87520DA
:1054400000F022F8044601460AA001F067F8682C33
:1054500001D0012010BD01216B2000F067F8002170
:105460006C2000F063F8322000F048F8002010BDF6
:10547000E80000240D0A4D5055363035303A30786A
:105480002532780D0A0000001FB5002140F6FF7498
:1054900001238DF80C1003AA8DE81C00D1210246CF
:1054A0000448FDF7B9F96420FCF7D0FF9DF80C0023
:1054B00004B010BDE8000024C006010E1C2000F05E
:1054C00035B8C006010E1B2000F030B8BC2801D34F
:1054D000012110E0622801D302210CE02A2801D327
:1054E000032108E0142801D3042104E00A2801D391
:1054F000052100E006211A2000F018B810B5044676
:105500004FF47A70844201D9044602E0042C00D2A0
:105510000424B0FBF4F0401EC1B2192000F006F8DC
:105520006008BDE81040FFF7D1BF00001FB50122A1
:1055300003AB8DF80C1040F6FF71CDE90032134635
:10554000024605480291D021FDF718FA6420FCF7C5
:105550007DFF04B0002010BDE8000024094808B514
:10556000016841F00101016000680022114600F06D
:10557000010000900B20FDF7A3FBBDE808400B20C5
:10558000FDF790BBD84402580D4808B5016841F0BA
:1055900080010160016801F080010091016841F023
:1055A00002010160016801F002010091016841F00F
:1055B00001010160006800F00100009008BD0000DA
:1055C000E04402581348002110B5114C0123124A3F
:1055D0000460C0E90121C0E9033141618161C16119
:1055E0000162FDF7BDF808B1FBF747FB0948002150
:1055F000FDF760F808B1FBF740FB06480021FDF716
:1056000085F8002803D0BDE81040FBF736BB10BD7D
:1056100000540040E8000024D38D801010B588B0FD
:1056200016480024164B8F2200944FF080410194BD
:105630000294039404940594069480E81600C0E94B
:1056400003348461FEF718FF08B1FBF716FB4FF433
:105650008050009009486946FEF7A2FF08B1FBF7A9
:105660000CFB064804A904940694FEF7B3FE002838
:1056700001D0FBF702FB08B010BD00003C01002484
:10568000A08601001848002110B5164C0C224FF4DA
:10569000E1330460C0E90131C160C0E904128161F5
:1056A000C161016241628162FFF704FC08B1FBF74E
:1056B000E4FA0D480021FFF7AAF908B1FBF7DDFA7B
:1056C00009480021FFF77DF908B1FBF7D6FA064833
:1056D000FFF7C9F8002803D0BDE81040FBF7CDBAAA
:1056E00010BD00000010014088010024FEE700000A
:1056F0002DE9F04186B040F6FF740625314803AF2E
:10570000009701233B22D121CDE90154FDF784F814
:10571000B81D0294CDE900052A4801234322D12176
:10572000FDF77AF8DFF8A0800024284D032C37F825
:10573000142038F81410286852BAA2EB010120F89E
:10574000141017D230F9140004EB44021F4900EE84
:10575000100A091D01EBC206B8EEC00A304601F07E
:105760001BFF96ED020A2968BDEEC00A10EE100A72
:1057700021F81400022C1ED91349E01EC0B20C31CE
:1057800001EB80002968DFED120A9FED120A90ED0F
:10579000001A31F9142061EE200A01EE102AB8EE49
:1057A000C11A41EE000AC0ED000ABDEEE00A10EE9B
:1057B000100A21F81400641CE4B2062CB6D306B01B
:1057C000BDE8F081E8000024F80200241400002461
:1057D0009A99593F9A99193EFEE770472DE9F0478B
:1057E000454D044689464FF0000A2868C0438007AB
:1057F0000AD0414E283E306820F080603060FCF7CF
:1058000053FF0746B04608E00120BDE8F08700BF1F
:10581000FCF74AFFC01B022867D8D8F80000000137
:10582000F6D4206829684FF4FE0721F47C313E024B
:1058300041EA00302860207AA389B4F804C040020D
:105840002D4D2D495B1E227CACF1010C1035091D3C
:10585000A0F5007080B2521ECCF3080C07EA034397
:1058600040EA0C00184306EA026210432860086808
:10587000626920F0C000104308600A68A06922F045
:10588000200202430A60281D0A6822F010020A6002
:1058900002684FF6F873E4699A4342EAC402026070
:1058A0000868B9F1000F40F010020A6011D00868D2
:1058B000B9F1010F11D040F400100860D8F80000D1
:1058C000444640F08060C8F80000FCF7EDFE054655
:1058D0000DE0086840F40020EFE740F48010ECE7AA
:1058E000FCF7E2FE401B022801D903208DE7206867
:1058F0000001F5D5504688E7284402582DE9F047C5
:10590000454D044689464FF0000A2868C043800789
:105910000AD0414E283E306820F080503060FCF7BD
:10592000C3FE0746B04608E00120BDE8F08700BF8F
:10593000FCF7BAFEC01B022867D8D8F80000800028
:10594000F6D4208829684FF4FE0721F07C713E02CE
:1059500041EA00502860207AA389B4F804C04002CC
:105960002D4D2D495B1E227CACF1010C1835091D13
:10597000A0F5007080B2521ECCF3080C07EA034376
:1059800040EA0C00184306EA0262104328600868E7
:10599000626920F44060104308600A68A06922F43C
:1059A000007202430A60281D0A6822F480720A60AD
:1059B00002684FF6F873E4699A4342EAC40202604F
:1059C0000868B9F1000F40F480720A6011D00868CD
:1059D000B9F1010F11D040F080700860D8F80000D4
:1059E000444640F08050C8F80000FCF75DFE0546D4
:1059F0000DE0086840F48000EFE740F40000ECE7B9
:105A0000FCF752FE401B022801D903208DE72068D5
:105A10008000F5D5504688E7284402587047704703
:105A200030B59DB04C216846FAF78AFC202113A8B6
:105A3000FAF786FC0220FDF775F92049002420487A
:105A40000A6822F001020A600968016841F44041D5
:105A50000160016801F440411B9101688904FCD593
:105A6000022009900121C20318230C25CDE9001260
:105A70000AAA82E80B000D90CDE910540E900F9009
:105A800068461294FEF7E2F908B172B6FEE713AD6C
:105A900040203F21032285E8160003011A90CDE93A
:105AA00016400221CDE9180313A8FDF791FF002845
:105AB00001D072B6FEE71DB030BD00002C040058C6
:105AC000184802582C48F0B52C4A016841F470017E
:105AD0000160106800F00F00072804D2106820F061
