:020000040800F2
:10000000A009002469030008A9500008A1490008BC
:10001000BD4F0008651E0008015C000800000000DC
:10002000000000000000000000000000ED52000889
:10003000671E000800000000AB500008EF520008E7
:100040008303000883030008830300088303000878
:100050008303000883030008830300088303000868
:100060008303000883030008830300088303000858
:100070008303000883030008830300088303000848
:100080008303000883030008830300088303000838
:100090008303000883030008830300088303000828
:1000A00083030008715400088303000883030008D9
:1000B0007D540008830300088303000883030008BD
:1000C00083030008830300088303000883030008F8
:1000D00083030008830300088303000883030008E8
:1000E0008303000883030008000000008303000866
:1000F00083030008830300088303000883030008C8
:1001000083030008830300088303000883030008B7
:1001100083030008830300088303000883030008A7
:100120008303000883030008830300088303000897
:100130008303000883030008830300088303000887
:1001400000000000000000000000000000000000AF
:100150008303000883030008830300088303000867
:100160008303000883030008830300088303000857
:100170008303000883030008830300088303000847
:100180008303000883030008830300088303000837
:100190008303000883030008830300088303000827
:1001A0008303000883030008830300088303000817
:1001B0008303000883030008830300088303000807
:1001C00083030008830300088303000883030008F7
:1001D00083030008830300088303000883030008E7
:1001E00083030008830300088303000883030008D7
:1001F00083030008830300088303000883030008C7
:1002000083030008830300088303000883030008B6
:1002100083030008830300088303000883030008A6
:100220008303000883030008830300080000000024
:100230008303000883030008000000008303000814
:100240008303000883030008830300088303000876
:100250008303000883030008830300088303000866
:100260008303000883030008830300088303000856
:1002700083030008830300088303000800000000D4
:1002800083030008830300088303000800000000C4
:10029000000000008303000800F002F800F054F8AA
:1002A0000AA090E8000C82448344AAF10107DA45D1
:1002B00001D100F049F8AFF2090EBAE80F0013F0CF
:1002C000010F18BFFB1A43F0010318475C640000DC
:1002D0007C640000103A24BF78C878C1FAD852076D
:1002E00024BF30C830C144BF04680C6070470000B0
:1002F0000023002400250026103A28BF78C1FBD82F
:10030000520728BF30C148BF0B607047662906F00E
:100310000E81782900F0F480002070471FB506F0A8
:1003200001F99DE8030000F0ABFF00F04BFC040076
:100330000020002106F0E0F8E06000F05FFD1FBD46
:1003400010B500F0C4FD10BD00F02CFE1146FFF703
:10035000E5FF06F03FF800F031FF03B4FFF7F0FFD0
:1003600003BC01F01FF90000094880470948004715
:10037000FEE7FEE7FEE7FEE7FEE7FEE7FEE7FEE755
:10038000FEE7FEE704480549054A064B70470000B2
:100390009553000899020008A0030024A009002436
:1003A000A0050024A005002453EA020C00F0698097
:1003B0002DE9F04B4FF00006002B1FBFB3FA83F579
:1003C00003FA05F424FA05F65E4012BF1643B2FAAA
:1003D00082F502FA05F4C5F120051EBF22FA05FCDC
:1003E00044EA0C04203556EA044C4FEA144418BF82
:1003F000641C4FF000084FF00009904271EB030CB1
:1004000039D3002919BFB1FA81F701FA07F6B0FA1A
:1004100080F700FA07F6C7F120071EBF20FA07FC95
:1004200046EA0C062037B6FBF4FCA7EB0507103FA5
:1004300007F01F0BCBF120060CFA0BFB2CFA06F68B
:1004400044BFB3460026202FA4BF5E464FF0000BEA
:100450005BEA060C08BF4FF0010B19EB0B09ABFB75
:10046000027C48EB0608C01B06FB02CC0BFB03CC4E
:1004700071EB0C01C1E70B46024641464846BDE818
:10048000F08B13B54FF000004FF00001AFF3008088
:10049000BDE81C40704700000FB4044910B503AA22
:1004A000029800F07DFB10BC5DF814FB980200245C
:1004B00070B5044685690068C10601D5302600E0A4
:1004C0002026C00707D070BDD4E9012130469047EF
:1004D000206A401C20626D1EF6D570BD70B50446C2
:1004E00085690078C00707D170BDD4E901212020BB
:1004F0009047206A401C20626D1EF6D570BD00003A
:1005000070B504460D4621461068AFF3008021887F
:10051000090502D50F4A7A4402E00E4A7A440E32A7
:10052000002104F1240305E000F00F060009965DA8
:100530005E54491C0028F7D120780023000704D519
:10054000702D02D009B1022311322046BDE870405F
:1005500000F0BEB8506000002DE9F0474FF0000AEF
:1005600089460446C0F820A02046E1688847002854
:1005700076D0252806D0D4E901219047206A401C76
:100580002062F1E7E168204600258847C4F81CA0F6
:1005900006460027C4F818A02A2E09D0304605F0D8
:1005A000CBFE38B304EB8708303EC8F8186019E07A
:1005B00059F8041B204604EB87029161E1688847E3
:1005C000012F064618D1E069002820DA25F0200521
:1005D0001DE0D8F8180000EB800006EB4000303832
:1005E000C8F818002046E1688847064605F0A4FED2
:1005F0000028EED1012F0AD02E2E08D12046E16826
:1006000088477F1C0646022F45F02005C4DBA06901
:10061000002803DA404245F00105A061E80701D057
:1006200025F01005B6B1A6F14100192802D82036F0
:1006300045F400654A463146204625604D46FFF7A1
:1006400065FE58B1012806D0ED1D25F0070000F128
:10065000080989E704E005F1040985E730468AE7DF
:10066000206ABDE8F0874FF0000200B513469446BB
:100670009646203922BFA0E80C50A0E80C50B1F1FA
:100680002001BFF4F7AF090728BFA0E80C5048BF0E
:100690000CC05DF804EB890028BF40F8042B08BFAC
:1006A000704748BF20F8022B11F0804F18BF00F8A8
:1006B000012B704770477047704710B500F086FAFD
:1006C000006810BD10B5044600F080FA046010BD4B
:1006D0002DE9F0470D4699469246044600F124085C
:1006E0000168880604D5E06921F01001216000E06E
:1006F0000120A84201DD471B00E00027A1697A190B
:1007000002EB0900081AA0612078C00602D4204636
:10071000FFF7CEFE002608E0D4E901211AF8060012
:100720009047206A401C761C20624E45F4DB2078FE
:10073000C0060AD52046FFF7BBFE06E0D4E901213A
:1007400030209047206A401C2062381EA7F1010724
:10075000F4DC07E0D4E9012118F805009047206A8D
:10076000401C2062281EA5F10105F3DC2046FFF79E
:10077000B5FE2078000602D50220BDE8F0870120F2
:10078000FBE770472DE9FF4F0C461E464FF0FF3741
:100790008BB0D2E90001DDF860800A908A46C1F38F
:1007A0000A5505B93D46002108464FF00000BAF150
:1007B000000F00F4400005DA00EB80004FF4400128
:1007C00001EA50004FEA9059B9F1010F00DDB94636
:1007D0000A9850EA4A000ED044F61050A5F2FF35B0
:1007E00045432F14B8F1000F1ED07542291E1EDD9F
:1007F000C9F100021CE0B8F1010F4FF0000001D078
:10080000302103E0F24305E02154401CB042FBDB01
:1008100030460022002121540B99C1F80880C1E91B
:1008200000200FB0BDE8F08FBD1B6D1CDEE74A460F
:1008300000DA694206A800F06BFA06AB93E80700FD
:1008400003AB83E8070050460A9900F043FF8DE8A8
:100850000700A0F500501F3800900398002D0ADD16
:1008600042F21F014A460844002303A90390684648
:1008700001F0ACF909E0A0F500504A461F3800230A
:1008800003A90390684601F0B6F98DE8070000045B
:10089000000C03D04FF0FF30410800E01046B8F1E3
:1008A000000F03D00022009215461EE0751E05D4ED
:1008B00000F090F9303262556D1EF9D5B346012231
:1008C000084302D000227F1C04E02078302801D1A8
:1008D00000227F1E002A099784D01DE0112D07DA1F
:1008E00000F078F9303262556D1C50EA0102F5D102
:1008F000084302D00098C8B10EE00021681E05E050
:10090000235C625C63542254401E491C8142F7DB25
:10091000AB46A81B401E0990002004F80B000B9862
:10092000099AC0F80880C0E9002B7AE711264FF039
:10093000000857E72DE9F04F88460446D21D22F003
:10094000070191B0D1E90001CDE90A0105F059F99B
:1009500002460B98C00F01D02D2007E020688107C8
:1009600001D52B2002E0202101EAC000032A0990D2
:1009700001D0072A05DB03464146204600F088F9EE
:100980000BE12078800601D5E06900E00620B8F18F
:10099000650F814606D0B8F1660F18D0B8F1670F21
:1009A00070D131E00020B9F1110F009001DB11236B
:1009B00001E009F101030AAA01A90CA8FFF7E2FE70
:1009C000DDE90C70002609F10105834647E00120AE
:1009D0004B4600904FF000470AAA01A90CA8FFF768
:1009E000D1FEDDE90DB00C995D46002610B909F184
:1009F00001000D18B9EB050003D4C0F1FF3609F171
:100A00000105A5EB09002BE0B9F1010F01DA4FF068
:100A100001090020B9F1110F0090484601DD1123B2
:100A200000E003460AAA01A90CA8FFF7ABFEDDE926
:100A30000C704D4600268346207800070AD4AB454B
:100A400000DA5D4601A8012D04DD411911F8011CF1
:100A5000302907D04F4502DA17F1040F04DA0120DC
:100A600082460FE06D1EEEE7002F02DCED1B3E44D8
:100A700003E0781CA84200DD7D1CB81B00F1010AD0
:100A80004FF000472078000703D4AA4501DB4FF060
:100A9000FF3A0021B7F1004F0DF143088DF84310E4
:100AA00024D002202B23002F01DA7F422D230A219C
:100AB000021EA0F1010000DC5FB197FBF1FC97FB87
:100AC000F1F201FB1C7C17460CF1300C08F801CD4B
:100AD000EEE7A8F1010003702188090501D5452141
:100AE00000E06521A0F1010800F8011C09980FA998
:100AF000A1EB0807FF1D00B10120411901EBEA70CD
:100B0000A1693844081A401EA0612078C00602D4AA
:100B10002046FFF7CDFC099828B1D4E90121904780
:100B2000206A401C20622078C00622D52046FFF7AC
:100B3000BFFC1EE0002E04DBB34502DD01A8805D92
:100B400000E03020D4E901219047206A401C206257
:100B5000761CAAF101005FEA000A0AD100F032F81F
:100B6000C0680168405CD4E901219047206A401CBC
:100B70002062281EA5F10105DCDC07E0D4E9012193
:100B800018F8010B9047206A401C2062381EA7F11C
:100B90000107F3DC2046FFF7A1FC032011B041E67A
:100BA000074B70B50D467B4400F05FF804462846BD
:100BB00000F020F910B14FF0FF3070BD204670BD3D
:100BC000C757000000487047600300240048704782
:100BD0004003002430B5B0F10A024FEA900E71F1E3
:100BE00000034EEA817EB0EB0E0061EB91014FEA0B
:100BF000101E4EEA017E10EB0E0041EB11114FEA80
:100C0000102E4EEA016E10EB0E0041EB11214FEA5F
:100C1000104E4EEA014E10EB0E0041EB1141401810
:100C200041F100014FEAD00040EA41704FEAD101A2
:100C300010EB80054FEA810444EA907444EB010410
:100C40006D1944EB0404521BA3414FF0000348BF4D
:100C50000A3200D530BD401C41F1000130BD00001A
:100C600001694A1C02610878704700B58FB0CDE970
:100C700001310021059105497944CDE90310114660
:100C80006846FFF769FC0FB000BD0000E5FFFFFFFD
:100C90002DE9F0411F46044603260168072A01F4A6
:100CA000006004DB08B116A505E016A503E008B155
:100CB00015A500E015A521F010002060A069C01E58
:100CC000A0610FB1401EA0612046FFF7F1FB4FB1BC
:100CD000D4E9012138469047206A401C2062C01C9C
:100CE000206206E0206AFAE7D4E9012115F8010B39
:100CF0009047761EF8D22046FFF7F0FBBDE8F08162
:100D00004E414E006E616E00494E4600696E6600AF
:100D10002DE9F047814616468AB0354878440DC81B
:100D20008DE80D0032487844801C03AC0DC884E87F
:100D30000D0041F69B300844372190FBF1F290FB07
:100D4000F1F5A5F1800501FB12041B3C02D56442BC
:100D5000012000E00020DFF898A080460027FA4438
:100D6000AAF1BE0A0EE0E0070AD03246684607EB59
:100D7000470101230AEB810100F03DFF8DE80700E8
:100D800064107F1C002CEED1194F7F44AE3F19E058
:100D9000E80715D007EB04100DF1180A90E80E00D3
:100DA0008AE80E00C068F04201D1981908903246D6
:100DB000012306A903A800F01EFF03AB83E8070088
:100DC0006D10641C002DE3D14FF0010332466946DB
:100DD000B8F1000F03A802D000F0F8FE01E000F027
:100DE0000AFFC9E90001C9F808200AB0BDE8F08788
:100DF000E4590000007B00F08000704710B54248C5
:100E00005421FFF730FC41485421FFF72CFC4048A7
:100E10005421FFF728FC3F493B483C4A3F4B0860C0
:100E20003D490A603A491960531C0365481C106526
:100E3000012008653B48344A39A1784400F022F982
:100E400020B9384878440A3800F0C1F937482F4AA9
:100E500035A1784400F016F920B9344878440A38AE
:100E600000F0B5F932482A4A2FA1784400F00AF977
:100E700020B92F4878440A3800F0A9F940232248C5
:100E8000DC000021224600F0D9F820B12548784442
:100E9000543800F09CF91D4822464023002100F000
:100EA000CDF820B121487844543800F090F9184822
:100EB00022461023002100F0C1F8002806D01C486B
:100EC0007844BDE81040563800F081B910BD104894
:100ED00070B5006D20F001040B4800F049F90B4893
:100EE00000F046F90A4800F043F909E0206D20F0CF
:100EF0000105204600F03CF9204600F078F82C4629
:100F0000002CF3D170BD000044020024980200249C
:100F1000EC0200247C0000248000002484000024D3
:100F200072000000DE58000077000000CA58000080
:100F3000B65800000EB5CDE9000100F013FB029099
:100F400069460120ABBE0EBD08B56946009002207F
:100F5000ABBE08BD1FB58DE8070069460520ABBED6
:100F600004B010BD1FB58DE80F0069460620ABBE6A
:100F7000F6E708B5694600900920ABBE08BD1CB570
:100F8000CDE9000169460A20ABBE1CBD704708B51B
:100F9000694600900C20ABBE08BD000000487047B9
:100FA000400300247546FFF7F9FFAE460500694689
:100FB000534620F00700854618B020B5FFF7E2F948
:100FC000BDE820404FF000064FF000074FF000084A
:100FD0004FF0000B21F00701AC46ACE8C009ACE8CB
:100FE000C009ACE8C009ACE8C0098D46704770B5CF
:100FF0000446051F00F028F90068002C14BF44685F
:1010000070BD002C18BFAC423CBF20466468F8D3CA
:1010100001680A18AA4218BF456003D12A6805462C
:101020001144016028684119A1421CBF6C6070BD69
:101030006168696021680844286070BD70B5C46843
:10104000A50713D0650211D4B2F5807F09D0B2F59F
:10105000007F06D0B2F5806F08D1012300F1240192
:1010600006E05D1E6FF07F46B54201D3012070BDE2
:101070000161C361416024F470611143C1600020CB
:1010800070BD00002DE9F0410C460746164610469B
:1010900000F06EF82078611C61280AD0722802D016
:1010A00077283CD102E00125002405E00225042434
:1010B00002E0082448F2020511F8010B2B2806D0A3
:1010C000622809D011F8010C74280AD00BE045F011
:1010D000030544F00204EFE745F0040544F0010481
:1010E000EAE744F0100438462146FFF723FF411C8D
:1010F00015D00021316171604FF40071F560F1612C
:101100007061200704D530460222002100F016F954
:10111000306D40F0010030653046BDE8F0810020C0
:10112000FBE72DE9F0410D460646104C206DC10746
:1011300004D0410804D020F00104F7E722460EE075
:10114000542000F0CCF807000ED0206D47F00101CC
:101150000843542120653846FFF785FA3A46294668
:101160003046BDE8F0418DE70020D6E74402002478
:101170002DE9F04704464FF000094FF0FF37C568EE
:10118000D4E90486A80707D0204600F087F9304646
:10119000FFF7DAFE002802DA3846BDE8F0872805B6
:1011A00002D54046FFF723FF4C212046FFF75BFAAC
:1011B000206D20F0010020654846EEE710B504469A
:1011C000AFF300802046BDE81040FFF7C6B810B569
:1011D00000F0AEF9BDE8104000F0A4B94FF0013CBA
:1011E00050F8042B51F8043B9A4215D1A2EB0C03A2
:1011F000934313EACC130BD150F8042B51F8043B62
:101200009A4209D1A2EB0C03934313EACC13E7D023
:101210004FF00000704700BFD01A01BAB1FA81F157
:1012200001F0180122FA01F0CB40C1F12001DBB23C
:10123000C0B2C01A2CFA01F3D11A914311EAC311BA
:10124000E6D170477047000000487047480300240B
:10125000704770477047704738B504460A4600200B
:101260006946AFF30080002808BF38BD02460099E8
:10127000204600F0A4F9012038BD012000F0F3B9A8
:10128000F8B5AFF30080054600200C46102000BFE3
:101290000646A819A0420DD9324669460020AFF390
:1012A0000080070008BF00F0DEF90098A04218BFD8
:1012B0000546C419FFF7C8FF05600746F01D20F07A
:1012C00007004619284600F073F9B44208BFF8BD7C
:1012D000A21B31463868BDE8F84000F070B970B51F
:1012E0000646FFF7B1FF056806F10B0020F0070482
:1012F000B4429CBF002070BD2B466A68BAB110682A
:10130000A04210D304F1080188423CBF50685860E5
:1013100007D35168101941601168091B01605860BA
:101320001460101D70BD13465268002AE7D1214693
:101330002846FFF791FF0028DED170BD2DE9F0416E
:10134000044616460D464769007B80072ED0384676
:10135000FFF70FFE50BB3EB3012E02D0022E25D167
:1013600004E0204600F045F905441DE03846FFF74B
:101370000EFEE168002841F01001E16005DA204628
:1013800000F058F80120BDE8F081C9030BD5626870
:10139000E16A914200D81146A26911442269891A72
:1013A000814200DD08460544002D01DA0220EAE70B
:1013B000E16A6068E268814206D29103E06203D587
:1013C00022F4003141F01002A6690027AE4213DC7E
:1013D000E16A814201D90B4600E0034603EB060CAB
:1013E0002369ACEB030CAC4506DD814201D98C4688
:1013F00000E084469C4505D1A760276042F02000AC
:10140000A5620DE0AD1BE669AE1B8142A66000D966
:101410000846C01A281A20605819606022F020007F
:1014200003490840E060002084F84870ABE7000002
:10143000BFCFD7FFC16821F4001141F08001C16026
:1014400000218160016070472DE9F0478146144614
:101450000E464FF0FF383248D5685769054209D02B
:101460003846A169FFF78BFD002811DB2C48C043EB
:101470000540E5602B46324649463846FFF76AFD8F
:10148000A16920F00042B21A11440028A16103D0E2
:101490002046FFF7CFFF4046BDE8F08770B5044611
:1014A0000569C06A6168884200D80846E16821F48D
:1014B0002011E160C90312D5A84208D02246411B81
:1014C0002846FFF7C1FF10B14FF0FF3070BD00207C
:1014D000E562C4E90150E06820F48030E06000205B
:1014E00070BD10B50446C06820F02000E060A16A1D
:1014F000A06988420DD02046FFF7D0FFE06820F4B5
:10150000405040F01000E060A06AA0612069E062F5
:10151000606044F24001E0688843E06010BD000074
:1015200010000200002801D000F03CB87047000015
:1015300010B5014602A000F07DF8012010BD0000AA
:1015400053494752545245443A2052656469726582
:1015500063743A2063616E2774206F70656E3A2061
:101560000000000010B5431C02E010F8011B71B12F
:101570008107FAD14FF0013202C88C1A8C4314EA69
:10158000C211F9D0C01A0A0603D0C01E10BDC01A7D
:1015900010BD0A0401D0801E10BD0902FCD0401EFF
:1015A00010BD000001491820ABBEFEE72600020076
:1015B00000210160C0E90110704710207047034608
:1015C00040688C46002818BF88423CBF03464068EC
:1015D000F8D318681844884207D00CF1030020F0B3
:1015E0000700001D411A521A0146081D0A60FFF744
:1015F000FEBC10B50146C268900703D0900607D51F
:10160000886A0AE0FFF7E2FA01210160881E10BD36
:101610008B69486818440B69C01A91F848301BB1AF
:1016200091F84910401A10BD1103FCD50028FADDCD
:10163000401E10BD70B505460C460A2000E06D1C2A
:1016400000F018F835B128780028F8D102E0641CC1
:1016500000F010F814B120780028F8D1BDE87040EF
:101660000A2000F007B810B500F00CF8BDE81040F3
:10167000FFF758BF08B569468DF800000320ABBEE0
:1016800008BD000010B5012805D0002103A0FFF718
:10169000D1FF012010BD09A1F8E7000053494752CE
:1016A000544D454D3A204F7574206F662068656132
:1016B00070206D656D6F7279000000003A204865FA
:1016C0006170206D656D6F727920636F72727570D5
:1016D000746564005FEA400C08BF91F0000F4FEAA8
:1016E0008C234FEAC12243EA51514FEA1C5018BFE4
:1016F00000F5F0404FEA300018BF41F000415FEACA
:101700006C5C00F02980BCF1FF3F08BF40F08040D6
:101710007047130C06BF12044FF0100C4FF0000C72
:10172000130E04BF12020CF1080C130F04BF1201B8
:101730000CF1040C930F04BF92000CF1020CD30FB8
:1017400004BF52000CF1010C11464FF00002A0F151
:101750001F00A0EB0C00704711F0004F08BF70474E
:1017600031F000413FF4D5AF0B0C06BF09044FF038
:10177000100C4FF0000C0B0E04BF09020CF1080C0A
:101780000B0F04BF09010CF1040C8B0F04BF89007F
:101790000CF1020CCB0F04BF49000CF1010CCCF191
:1017A0002003A0EB0C0022FA03F302FA0CF241EA48
:1017B000030100F10100704720F07F4C80EA030034
:1017C00023F07F47ACEB070303F57C5300F00040A8
:1017D00003F1FF032DE980494FEA154B09B44FEAA5
:1017E000144325EA0B4E24EA03480FF2042606EBC5
:1017F000132749083E785FEA320203FB0667C7F504
:10180000000707FB06F64FEA54374FEAD64606F1C3
:10181000020607FB066CCCF1005C4FEA1C472CEA81
:10182000074C07FB06F40CFB06F504EB15464FEAE4
:10183000961634BF00204FF000404FEAD13706FB28
:1018400007FC4FEA1C4C0CFB0BF7D21B03FB0CF7FD
:1018500061EB07010CFB0EF7B0EB074072EB174290
:101860000CFB08F734BFA2EB0742B2EB074261EB77
:1018700017414FEA0C444FEA910706FB07FC4FEA79
:101880001C4C0CFB0BF7B0EBC74072EB573203FB61
:101890000CF734BFA2EBC742B2EBC74261EB573142
:1018A0000CFB0EF7B0EBC70072EB57720CFB08F79E
:1018B00034BFA2EBC702B2EBC70261EB5771039FC3
:1018C0004FEA816141EA921104EBCC044FEAD1372F
:1018D0004FEA826206FB07FC42EA90124FEA806000
:1018E0004FEA1C4C0CFB0BF7D21B03FB0CF761EB14
:1018F00007010CFB0EF7B0EB074072EB17420CFB35
:1019000008F734BFA2EB0742B2EB074261EB174185
:101910004FEA8C554FEA910704EB9C2406FB07FC29
:101920004FEA1C4C0CFB0BF7B0EBC74072EB573285
:1019300003FB0CF734BFA2EBC742B2EBC74261EB2B
:1019400057310CFB0EF7B0EBC70072EB57720CFB74
:1019500008F734BFA2EBC702B2EBC70261EB5771C5
:1019600015EB4C254FEA816141EA92114FEA826200
:101970004FEAD13742EA901206FB07FC44F100041B
:101980004FEA80604FEA1C4C0CFB0BF7D21B03FBA9
:101990000CF761EB07010CFB0EF7B0EB074072EBA5
:1019A00017420CFB08F734BFA2EB0742B2EB074229
:1019B00061EB174115EB1C154FEA813141EA924169
:1019C0004FEA823242EA90424FEA80304FEA0C7688
:1019D00044F1000448EA03434EEA0B484FF0000E7E
:1019E000B2EB080C71EB030724BF624639464EEB9D
:1019F0000E0E4FF0000B0018524149414BEB0B0B00
:101A0000B2EB080C71EB03077BF1000B24BF6246BD
:101A100039464EEB0E0E4FF0000B00185241494173
:101A20004BEB0B0BB2EB080C71EB03077BF1000BDC
:101A300024BF624639464EEB0E0E51EA020718BF2C
:101A400046F0010616EB0E7655F1000254F1000146
:101A500003D5BDE88901BDE80088BDE88901BDE87E
:101A60000048B619524141EB0101A3F1010370474F
:101A700080807F7E7D7C7B7A7978777676757473CB
:101A8000727171706F6E6E6D6C6C6B6A6A6968688A
:101A9000676666656464636362616160605F5F5E20
:101AA0005E5D5D5C5C5B5B5A5A5959585857575696
:101AB00056555555545453535252525151505050FB
:101AC0004F4F4F4E4E4D4D4D4C4C4C4B4B4B4A4A4D
:101AD0004A49494948484847474747464646454591
:101AE00045444444444343434342424242414141CA
:101AF000002B9C4630D477002BD01CB54FEA37071B
:101B000003B44FF010004FF01001BAF1000F06D0EF
:101B1000BCF1000FDCBF40F0080040F008014FF0BE
:101B200000000FBCBDE810400BF1010BBBF1010F31
:101B300008BF5FEA170722BF12F1010211F101018C
:101B40004FF0004143F1000300F0004043EA000081
:101B50007047F9D35708D0E746EA064613F1400F1D
:101B60004FEA16461FDD13F1200FDFBF16430A466A
:101B7000002120335B42BED0C3F1200746EA06466F
:101B800002FA07F74FEA164646EA0706C3F12007AE
:101B900022FA03F201FA07F721FA03F14FF00003EA
:101BA00042EA0702A7E746EA020646EA06464FEA85
:101BB000164646EA0106BCBF46EA0646360C4FF01A
:101BC00000034FF000024FF0000194E72DE9804C34
:101BD0009A46934670B491E8380007C831EA400C41
:101BE00048BF34EA430C03D5FFF7E6FDFFF780FF5B
:101BF000F0BCBDE8008C2DE9804C9A46934670B449
:101C000091E8380007C810F0804F08BF13F0804FEC
:101C100003D100F005F8FFF76BFFF0BCBDE8008CC6
:101C200020F07F4780EA030023F07F4C07EB0C0392
:101C3000A3F57C5300F00040A3F1FE0392F0000FE7
:101C400000F0B38095F0000F00F077802DE9014996
:101C50004FEA11404FEA144621EA004800FB06FC17
:101C600024EA064708FB06F607FB08F800FB07F71F
:101C700018EB06484CEB164C4FEA124B18EB074892
:101C80004FEA15464CEB174022EA0B4E0BFB06FCC5
:101C900025EA06470EFB06F607FB0EFE0BFB07F7D1
:101CA0001EEB064E4CEB164C4FF000061EEB074E9B
:101CB0004CEB174B18EB0B0840F1000018EB0E0B28
:101CC00058EB000840F100008F1A4FF000013CBFB4
:101CD000C943661B14BFB5EB040C00213CBFC943CC
:101CE000F61B4FEA17444EEA8E0E27EA04454FEAE8
:101CF0001C4704FB07622CEA074C05FB07F70CFBAB
:101D000005F604FB0CFC16EB074642EB174216EBFC
:101D10000C4642EB1C421BEB060658EB020241410B
:101D200046EA9E0601D5BDE80189B619524141EB4C
:101D30000101A3F10103BDE801894FEA14454FEA0F
:101D4000114724EA054621EA074C05FB07F406FB88
:101D500007F70CFB06F105FB0CFC11EB074144EB0C
:101D600017444FEA124711EB0C4144EB1C4422EAA2
:101D7000074C05FB07F206FB07F70CFB06F605FB15
:101D80000CFC16EB074642EB174216EB0C4642EBF7
:101D90001C456A1854F1000148BF7047B6195241FA
:101DA00041EB0101A3F10103704795F0000F37D01B
:101DB0004FEA11424FEA144721EA024624EA074C4F
:101DC00002FB07F106FB07F70CFB06F402FB0CFC19
:101DD00014EB074441EB17414FEA154714EB0C4451
:101DE00041EB1C4125EA074C02FB07F506FB07F710
:101DF0000CFB06F602FB0CFC16EB074645EB174501
:101E000016EB0C4645EB1C42121951F1000148BF7C
:101E10007047B619524141EB0101A3F1010370472C
:101E20004FEA14454FEA114724EA054621EA074CD8
:101E300005FB07F106FB07F70CFB06F24FF0000667
:101E400005FB0CFC12EB074241EB174112EB0C4275
:101E500051EB1C4148BF7047921841EB0101A3F1BF
:101E600001037047FEE7704772B6FEE770B52DEDCF
:101E7000108BF0EE409AB0EE008A8AB00546F6EE7E
:101E8000001AF7EE008A29EEA19A0E46FA4CFB489A
:101E900094ED010A94ED032AD4ED000A94ED021AA0
:101EA00020EE020A00EEC10A20EE080A8DED000ABB
:101EB00094ED000AD4ED011AD4ED020A94ED031A50
:101EC00020EE210A00EE810A20EE080A8DED010ABB
:101ED00094ED010AD4ED011A94ED021AD4ED020A30
:101EE00020EE210A01EE200AF0EE680A40EE480AD0
:101EF000CDED020AB0F9001000EE101AB0F9021090
:101F0000B0F90400B8EEC00A00EE901A01EE100A13
:101F1000F8EEE01A20EE000AF8EEE00AB8EEC12A68
:101F2000B8EEC11A01EEA00A02EE010AB7EEC00A2D
:101F300004F076F9D248A4F10C01B0EE401BB7EEE4
:101F400000AB9FEDD00A8AEE012BF7EEC20BC1ED7C
:101F5000020AB5F9002001EE102AB8EEC11A21EEEE
:101F6000201A8DED031AB5F9022001EE102AB8EE01
:101F7000C11A21EE201A8DED041AB5F9042001EEE4
:101F8000102AB8EEC11A61EE200ACDED050ADDED8A
:101F9000040A9DED022A9DED051ADDED011A60EEA1
:101FA000820A41EE610ACDED060ADDED050A9DEDDE
:101FB000002ADDED031A9DED021A60EE820A41EE61
:101FC000C10ACDED070ADDED030A9DED012A9DED65
:101FD000041ADDED001A60EE820A41EE610ACDEDD1
:101FE000080A90ED001AD1ED010ADDED061A01EEA6
:101FF000A01A80ED001A90ED011ADDED071A01EE2E
:10200000A01A80ED011A90ED021ADDED081A01EE1A
:10201000A01A80ED021AB5F90620DDED061A01EED0
:10202000102AD1ED000A90ED002AB8EEC11A21EE77
:10203000001A00EEA11A31EE021A8DED001AB5F960
:102040000810DDED071A01EE101A90ED012AB8EE26
:10205000C11A21EE001A00EEA11A31EE021A8DED1E
:10206000011AB5F90A10DDED081A01EE101A90ED0B
:10207000022AB8EEC11A21EE000A00EEA10A30EEE3
:10208000020A8DED020A94ED010A9DED00FAD4EDED
:1020900002CA9DED01DA2FEE400AD4ED001ADDED03
:1020A00000EA94ED011ADDED01DA0CEECD0AD4ED73
:1020B000035A9DED026A61EEAE1A21EE2D1AD4ED9F
:1020C00003BA9DED01CAD4ED026A9DED007A05EEDA
:1020D000C60AD4ED030A9DED00EA4BEECC1A06EEDB
:1020E000C71AD4ED024A9DED025AD4ED002A9DEDA7
:1020F000023A60EE8E0AD4ED007A9DED01BA20EE30
:10210000090A94ED002A44EE851A02EE831A47EE7E
:102110008B0A32EE002AD4ED013A9DED024A61EEBF
:10212000891A21EE090A84ED002A43EEC40A94EDCF
:10213000011A31EE211A60EE890A84ED011A94ED3C
:10214000021A71EE200AC4ED020AD4ED030A30EE41
:10215000800A84ED030A94ED000AD4ED003AD4ED30
:10216000012A94ED013A20EE230A94ED022AD4EDDF
:10217000021AD4ED030A02EE830A94ED031A02EE6A
:10218000210A00EE810AB7EEC00A04F049F88AEE8F
:10219000002B94ED001AF7EEC20B21EE200A84ED1D
:1021A000000A94ED010A20EE200A84ED010A94ED64
:1021B000020A20EE200A84ED020A94ED030A20EEC2
:1021C000200ADFED310A84ED030AB5F90A0000EEBA
:1021D000100AB8EEC00A60EE200A10EE900AB0F1C4
:1021E0007E5F04DC10EE900A10F1814F0CD996ED61
:1021F000020A26A000EEA90A86ED020AB7EEC00A7E
:1022000053EC102BFEF748F9D4ED001A94ED020AB6
:1022100094ED011A61EE881AD4ED030A21EE081A32
:1022200021EE800A01EE600AB7EEC00A03F014FD49
:102230009FED199B20EE090BB7EEC00B86ED010A4E
:1022400094ED012A94ED010A94ED023A22EE082A57
:10225000D4ED023AD4ED002A94ED021A42EE408AFF
:10226000D4ED031AD4ED010A63EE883A23EE083A5E
:1022700062EE882A14E000006C00002408020024AA
:10228000380200242E9E8B3AF6FF793D5961773A49
:1022900025660D0A0000000000000020DCA54C406F
:1022A00023EEA10A43EE418A02EEA00AB7EEE81A35
:1022B000B7EEC00A03F0D4FE20EE090B0DA0B7EE76
:1022C000C00B86ED000A96ED010AB7EEC00A53EC8A
:1022D000102BFEF7E1F896ED000A0AB008A0BDEC5D
:1022E000108BB7EEC00ABDE8704053EC102BFEF720
:1022F000D3B8000050697463683A25663B0D0A0044
:10230000526F6C6C3A25663B0D0A000070B50446AE
:1023100000F02AF90546601C02D004480078044405
:1023200000F022F9401BA042FAD370BD0000002447
:102330002DE9F84F03247D4D00234FF001094FF0A4
:10234000B04B4FF00F0AE9E009FA03F73A4076D0B4
:102350000E7906F00306012E01D0022E18D1D0F816
:1023600008C04FEA430ECE6804FA0EF82CEA080CB7
:1023700006FA0EF646EA0C068660D0F804C00E791E
:102380002CEA070CC6F300169E4046EA0C0646608F
:102390000E79F643B6070BD0C6684FEA43088F683C
:1023A00004FA08FC26EA0C0607FA08F73743C76068
:1023B0000E7906F00306022E12D1DE080F694FEAED
:1023C000437C00EB8606B646366A4FEADC6C0AFAB6
:1023D0000CF807FA0CF726EA08063743CEF8207007
:1023E0000F7906684FEA430807F0030704FA08FC70
:1023F00007FA08F726EA0C06374307604E6816F41A
:10240000403F1CD04A4E376847F0020737603668B5
:102410009F0706F00206009623F0030606F1B04679
:10242000B6463F0FD6F80864DFF808810AFA07FCC1
:10243000404526EA0C0603D14FF0000C41E06CE069
:10244000DFF8F4C0604502D14FF0010C39E0DFF84D
:10245000ECC0604502D14FF0020C32E0DFF8E0C082
:10246000604502D14FF0030C2BE0DFF8D8C0604587
:1024700002D14FF0040C24E0DFF8CCC0604502D15B
:102480004FF0050C1DE0DFF8C4C0604502D14FF0ED
:10249000060C16E0DFF8B8C0604502D14FF0070C1B
:1024A0000FE0DFF8B0C0604502D14FF0080C08E043
:1024B000DFF8A4C0604502D14FF0090C01E04FF0F5
:1024C0000A0C0CFA07FC4CEA060CCEF808C44F685C
:1024D000DBF80060FF0226EA020600D516435F46DD
:1024E000CBF80060D1F804C0DBF804605FEA8C2C04
:1024F00026EA020600D516437E606E684F6826EA1B
:102500000206BF0300D516436E602E684F6826EAA8
:102510000206FF0300D516432E605B1C0A6832FAE0
:1025200003F67FF411AFBDE8F88F0000800000587B
:10253000F4440258000002580004025800080258EF
:10254000000C0258001002580014025800180258DB
:10255000001C02580020025800240258014800685C
:10256000000C70470010005C014880687047000054
:102570000000002430B590F84120202A24D190F8A2
:102580004020012A20D0012380F84030242280F806
:102590004120202300240268156825F001051560FC
:1025A0000268156825F480551560026815680D43AA
:1025B000156001680A6842F001020A6080F8413043
:1025C00080F84040002030BD022030BD30B590F88A
:1025D0004120202A22D190F84020012A1ED0012338
:1025E00080F84030242280F8412020240025026811
:1025F000136823F0010313600268136823F4706307
:1026000043EA0121116001680A6842F001020A6090
:1026100080F8414080F84050002030BD022030BD9D
:1026200070B5040004D094F84100002510B106E014
:10263000012070BD204684F8405000F0ABF9242002
:1026400084F841002068016821F001010160D4E9AB
:10265000001020F0706008612068816821F400415A
:102660008160E06821680128A06806D040F4044039
:102670008860E068022803D006E040F40040F7E7F5
:1026800021684FF40060486020212068114A4368A7
:10269000134343602068C26822F40042C26054F8C9
:1026A000106B0DCC104340EA0320F06054F81C3C42
:1026B000D4E900021043186054F81C0D026842F07F
:1026C00001020260656484F84110256384F8425079
:1026D000002070BD008000022DE9FF4F83B004464A
:1026E00090F841009A469346DDE91087DDF848905E
:1026F000202874D15FEA080014D09FB194F84000FC
:1027000001286CD0012084F84000FFF72DFF012242
:10271000064619230090D103204602F057FA0028FC
:1027200071D103E04FF4007060646CE00025C4F8E0
:102730002480222184F84110402084F842006564FE
:102740006785534665635A4604992046CDE900964D
:1027500002F0C0F910B184F8405054E0618DFF27B9
:1027600034484FF08078FF294FF0007A04D927854C
:102770003A464346009005E0618D5346218500901E
:1027800094F828202046049902F008FA00224B46CB
:1027900004212046009602F019FAA0BB2068616A65
:1027A000406A0870606A401C6062208D401E81B2E1
:1027B0002185608D401E6085608DD8B1D1B9002221
:1027C0004B4680212046009602F000FAD8B9608D71
:1027D000FF2805D927853A464346009506E026E0BE
:1027E000608D53462085009594F828202046049952
:1027F00002F0D4F9608D0028C8D1324649462046FF
:1028000002F01BFA18B1012007B0BDE8F08F216873
:102810002020094AC86121684B6813404B6084F846
:10282000410084F84250002084F84050ECE7022038
:10283000EAE700000024008000E800FE2DE9FF4FD9
:1028400083B0044690F841009A469346DDE910872C
:10285000DDF84890202871D15FEA080014D09FB1BC
:1028600094F84000012869D0012084F84000FFF767
:102870007BFE0122064619230090D103204602F078
:10288000A5F900286ED103E04FF40070606469E0A0
:102890000025C4F82480212184F84110402084F8C8
:1028A000420065646785534665635A46049920462D
:1028B000CDE9009602F040F910B184F8405051E0A3
:1028C000608DFF274FF08078FF284FF0007A04D901
:1028D00027853A464346009505E0608D534620859E
:1028E000009594F828202046049902F057F93246C2
:1028F0004946204602F0CDF9A0BB606A2168007805
:102900008862606A401C6062608D401E6085208D18
:10291000401E80B22085618DD9B1D0B900224B46CE
:1029200080212046009602F051F9D8B9608DFF2829
:1029300005D927853A464346009506E026E0608D96
:1029400053462085009594F828202046049902F0EB
:1029500025F9608D0028CAD132464946204602F04A
:102960006CF918B1012007B0BDE8F08F2068202174
:10297000074AC161206843681340436084F84110EE
:1029800084F84250002084F84050ECE70220EAE747
:1029900000E800FE10B5B6B00446142130A8FDF7DB
:1029A00062FEC0216846FDF75EFE18492068884235
:1029B0002AD10020219008210446CDE90010684664
:1029C00000F090FA08B1FFF74FFA1148016841F0A2
:1029D00002010160006830AB122100F00200359066
:1029E000C020042283E813000A4830A9CDE933420D
:1029F000FFF79EFC06480830016841F400110160B1
:102A0000006800F40010359036B010BD005400404E
:102A1000E0440258000402580248816802781144D8
:102A20008160704700000024032010B500F0C8F852
:102A300001F0D0F80F4A104914681368C4F3032258
:102A400003F00F038A5CC95C02F01F0201F01F0152
:102A5000D0400A4A20FA01F11160094908600F20AC
:102A600000F010F808B1012010BD00F06DF8002052
:102A700010BD0000184402585A65000810000024D8
:102A80000C00002410B5102804468AB02AD2002277
:102A90000146192000F074F8192000F063F8154879
:102AA00004601548016841F001010160006808A94F
:102AB00000F001000990684601F018F801F078F87C
:102AC0000E49400000220E4CB0FBF1F10D4840F2DF
:102AD000E7330460C0E90332491EC0E9011201F086
:102AE0002BFC10B101200AB010BD064801F072FCA9
:102AF000F9E7000004000024F044025840420F00AF
:102B000000000140BC010024BFF35F8F0448002196
:102B10000368034A23F48033036070321160704706
:102B200024ED00E0074A40F00100064970321060D1
:102B3000086840F480300860BFF34F8FBFF36F8F99
:102B40007047000024ED00E0054808B5016841F039
:102B500002010160006800F00200009008BD000062
:102B6000F4440258002809DB410900F01F028900E3
:102B7000012001F1E0219040C1F800017047000000
:102B80000E4BF0B41B680D46C3F30223C3F10706D6
:102B9000042E00D90426191D072901D2002300E0C4
:102BA000DB1E012404FA06F19C40491E2940641EE4
:102BB000994014402143F0BC03F03BB80CED00E019
:102BC000064900F0070210B54FF6FF040868044BF1
:102BD000204040EA02201843086010BD0CED00E0E0
:102BE0000000FA05134970B50A68D243520705D5AB
:102BF000096801F00701814213D118E00A6822F048
:102C0000070202430A60FFF7AFFC0A4D4FF47A76E1
:102C10000446083D07E000BFFFF7A6FC001BB042DA
:102C200001D9012070BD2868C0438004F4D400207D
:102C300070BD00000C48025810B500F085FF054932
:102C40000968054AC1F30211515C01F01F01C84037
:102C500010BD0000204402585A650008494930B5AB
:102C6000484C0B1D0A68143409681D68246802F07A
:102C70000303C5F30012C1F30531C4F3CC040029EA
:102C800014FB02F200EE102AF8EE400A75D03F4A1B
:102C90009FED3D1AB7EE000A6BB1DFED3D1A012B37
:102CA00001D0022B64D002EE101A1168F8EE422A0D
:102CB00081EEA22A21E0334C283C23689B0612D5E2
:102CC000344B246801EE901A1168C4F3C104F8EE85
:102CD000612AE34001EE903AC1F30801F8EE611A6F
:102CE00081EEA22A0BE001EE901ADFED2B2A00BF45
:102CF000F8EE611A116882EEA12AC1F3080101EE13
:102D0000901A1168F8EE611A40EE811A71EE800A8D
:102D100062EE200AC1F3462101EE101AB8EE411A04
:102D200031EE001AC0EE811ABCEEE11A80ED001AF5
:102D30001168C1F3064101EE101AB8EE411A31EEE6
:102D4000001AC0EE811ABCEEE11A80ED011A11687A
:102D5000C1F3066101EE101AB8EE411A31EE000A15
:102D600080EE801ABCEEC10A80ED020A30BD04E09C
:102D700001EE901ADFED092ABAE7002101604160F7
:102D80008160F3E7284402580000003938440258B3
:102D90000024744A0090D0030024744C001B374B6D
:102DA000494930B5484C0B1D0A681C3409681D6838
:102DB000246802F00303C5F30022C1F30551C4F3F4
:102DC000CC04002914FB02F200EE102AF8EE400AAF
:102DD00075D03F4A9FED3D1AB7EE000A6BB1DFEDAB
:102DE0003D1A012B01D0022B64D002EE101A11689B
:102DF000F8EE422A81EEA22A21E0334C283C2368D7
:102E00009B0612D5344B246801EE901A1168C4F366
:102E1000C104F8EE612AE34001EE903AC1F30801E3
:102E2000F8EE611A81EEA22A0BE001EE901ADFEDB6
:102E30002B2A00BFF8EE611A116882EEA12AC1F3B5
:102E4000080101EE901A1168F8EE611A40EE811A3D
:102E500071EE800A62EE200AC1F3462101EE101ADB
:102E6000B8EE411A31EE001AC0EE811ABCEEE11A3A
:102E700080ED001A1168C1F3064101EE101AB8EE98
:102E8000411A31EE001AC0EE811ABCEEE11A80ED53
:102E9000011A1168C1F3066101EE101AB8EE411A69
:102EA00031EE000A80EE801ABCEEC10A80ED020A03
:102EB00030BD04E001EE901ADFED092ABAE70021E7
:102EC000016041608160F3E7284402580000003946
:102ED000404402580024744A0090D0030024744CEB
:102EE000001B374B2DE9FE4F0546DFF8E48350F811
:102EF000081B0024F64FC943019005F1280026461F
:102F000008F12408009008011DD4A86E50B1B0F556
:102F1000801F0CD0B0F5001F0ED0B0F5401F1ED0A2
:102F200001240FE0386840F40030386017E0019861
:102F3000022102F0BBF803E00098022102F046F9FA
:102F400004000CD026462888C043C00523D4A86DB1
:102F500005281ED2DFE800F00C11161B1B00AA6E1C
:102F6000D8F8001021F440111143C8F80010EAE726
:102F7000386840F40030386009E00198002102F020
:102F800095F803E00098002102F020F9044674B19E
:102F900000E0012426462888C043800528D4E86D37
:102FA00080281ED00CDC90B140280ED114E0AA6D10
:102FB000D8F8001021F007011143C8F80010EAE723
:102FC000C02813D0B0F5807F10D001240FE03868FE
:102FD00040F40030386009E00198002102F066F802
:102FE00003E00098002102F0F1F804469CB1264667
:102FF0002888DFF8DC92C04309F12C0940052CD465
:10300000D5F8A800B0F5800F20D00DDCA0B1B0F548
:10301000001F0FD115E0EA6DD8F8001021F4E0711F
:103020001143C8F80010E3E7B0F5C00F13D0B0F5B6
:10303000000F10D001240FE0386840F400303860F1
:1030400009E00198002102F031F803E00098002126
:1030500002F0BCF804467CB126462888C04300052F
:103060002DD4D5F8AC00B0F1007F21D00EDCA8B192
:10307000B0F1807F10D116E0D5F8A820D9F8001063
:1030800021F460011143C9F80010E6E7B0F1407F78
:1030900013D0B0F1806F10D001240FE0386840F4F5
:1030A0000030386009E00198002101F0FFFF03E0E3
:1030B0000098002102F08AF8044674B12646286878
:1030C000C04380011FD4E86CD8B110280FD020284D
:1030D00012D0302815D0012414E0D5F8AC20D9F84E
:1030E000001021F0E0611143C9F80010E7E73868EB
:1030F00040F40030386004E00198022101F0D6FF6E
:10310000044674B126462888C043C0042BD4286ED8
:10311000B0F5005F20D00DDCA0B1B0F5805F0FD11D
:1031200015E06B48EA6C2030016821F03001114352
:103130000160E8E7B0F5405F13D0B0F5804F10D0E4
:1031400001240FE0386840F40030386009E001984D
:10315000002101F0ABFF03E00098002102F036F8F7
:1031600004468CB126462888C043800429D4686E62
:10317000B0F5403F23D010DC08B3B0F5803F14D049
:10318000B0F5003F0FD115E02A6ED8F8001021F4F9
:10319000E0411143C8F80010E5E7B0F5802F0ED0EC
:1031A000B0F5A02F0BD001240AE00198012101F015
:1031B0007DFF03E00098012102F008F8044694B175
:1031C00026462888C04340042AD4D5F8B000B0F180
:1031D000405F23D010DC08B3B0F1805F14D0B0F1B1
:1031E000005F0FD115E06A6ED8F8001021F4E021DD
:1031F0001143C8F80010E4E7B0F1804F0ED0B0F1F1
:10320000A04F0BD001240AE00198012101F04EFFEC
:1032100003E00098012101F0D9FF044674B126466D
:103220002888C04300041FD4286FD8B1B0F1805F54
:103230000ED0B0F1005F10D0012414E0D5F8B0201A
:10324000D9F8001021F0E0411143C9F80010E7E778
:10325000386840F40030386004E00198012101F042
:1032600025FF044674B126462868C043C0011ED419
:10327000A86CD0B101280ED0022811D0032814D098
:10328000012413E02A6FD8F8001021F040511143B7
:10329000C8F80010E8E7386840F40030386004E00F
:1032A0000198022101F002FF0446ACB126462868CD
:1032B000DFF81CB0C043ABF11C0B400252D40548F0
:1032C000016841F480710160FFF74EF9824611E018
:1032D0002C44025800480258FA48AA6C016821F0B0
:1032E000030111430160E2E7FFF73EF9A0EB0A009A
:1032F000642835D8F4480068C005F5D58CBBDFF8E4
:10330000C4A3B5F8B4100AF1240ADAF8000001F4F5
:10331000407100F44070884211D0DAF80010DAF8F9
:10332000002021F4407142F48032CAF80020DAF81B
:10333000002022F48032CAF80020CAF80010D5F824
:10334000B400B0F5807F1AD1FFF70EF9029012E0B9
:10335000FFF70AF90299411A41F2883081420AD9ED
:10336000032426462878DFF85CA3C0430AF1080A44
:10337000C00721D03CE0DAF800008007E8D5D5F896
:10338000B410C1F30120032858460DD0016821F480
:103390007C510160B5F8B420DAF80010C2F30B02DA
:1033A0001143CAF80010DDE7C84A036802EA1112A7
:1033B00023F47C511143ECE7E86F182816D005DCA4
:1033C000A0B1082808D0102804D10AE020280DD088
:1033D00028280BD001240AE00198012101F066FEA3
:1033E00003E00098012101F0F1FE044664B1264695
:1033F0002878C04380071ED4A86F062819D2DFE8BA
:1034000000F0160C11161616EA6FDAF8001021F00B
:1034100038011143CAF80010EAE70198012101F0D0
:1034200045FE03E00098012101F0D0FE04467CB186
:1034300000E0012426462878C04340071FD4D5F871
:103440009400062819D2DFE800F0160C11161616A3
:10345000AA6FDAF8001021F007011143CAF8001032
:10346000E9E70198012101F021FE03E00098012124
:1034700001F0ACFE0446A4B100E001242646287801
:10348000C04380062BD4D5F89000B0F1405F24D023
:1034900011DC10B3B0F1805F15D0B0F1005F10D136
:1034A00016E0D5F89420D9F8001021F00701114357
:1034B000C9F80010E3E7B0F1804F0ED0B0F1A04F93
:1034C0000BD001240AE00198002101F0EFFD03E098
:1034D0000098022101F07AFE044694B1264628782D
:1034E000C04340062BD4D5F89C00B0F5406F24D0E3
:1034F00011DC10B3B0F5806F15D0B0F5006F10D1AE
:1035000016E0D5F89020DAF8001021F0E0411143E0
:10351000CAF80010E3E7B0F5805F0ED0B0F5A05F09
:103520000BD001240AE00198002101F0BFFD03E067
:103530000098022101F04AFE044694B126462878FC
:10354000C04300062BD4D5F8A000B0F5C04F24D05E
:1035500011DC10B3B0F5005F15D0B0F5804F10D17D
:1035600016E0D5F89C20D9F8001021F4E051114361
:10357000C9F80010E3E7B0F5004F0ED0B0F5204FCA
:103580000BD001240AE00198002101F08FFD03E037
:103590000098022101F01AFE044654B1264628780C
:1035A000C04300071ED4D5F88400B0F5805F0AD070
:1035B0000FE0D5F8A020D9F8001021F460411143A4
:1035C000C9F80010EBE70098022101F0FFFD00B1FF
:1035D0000126D5F88420DAF8001021F44051114377
:1035E000CAF800102878C043C00613D4D5F8980054
:1035F000B0F5807F05D10098022101F0E7FD00B110
:103600000126D5F89820D9F8001021F44071114313
:10361000C9F800102868C043000316D4D5F8A400E8
:1036200038B1B0F5803F09D0B0F5003F0BD0012490
:103630000AE00198002101F039FD03E00098022121
:1036400001F0C4FD04468CB126462868C0434003FF
:1036500022D4D5F88800B0F5801F11D0B0F5001F36
:1036600013D0B0F5401F15D0012414E0D5F8A420E4
:10367000D9F8001021F440311143C9F80010E4E7F3
:10368000386840F40030386004E00098012101F00F
:103690009DFD04465CB126462868C043C00323D480
:1036A000286DA8B1B0F5803F17D001241BE0D5F8F4
:1036B0008820DAF8001021F440111143CAF80010F4
:1036C000EAE700004C44025800480258CFFFFF00D0
:1036D000386840F40030386004E00198022101F0BD
:1036E000E5FC0446E4B126462868C043800005D4C2
:1036F0000098022101F06AFD00B101262868C0434C
:1037000080031BD4D5F88000B0B1B0F5807F0FD016
:10371000B0F5007F10D0B0F5407F0DD001240CE053
:103720005A482A6D016821F4803111430160DBE7BA
:10373000386840F400303860ECB326462868C0434F
:10374000C00207D46A6FD8F8001021F0004111437D
:10375000C8F800102868C043C00008D4D5F8B820C5
:10376000DBF8001021F480411143CBF800102868E9
:10377000C043800207D4EA6ED8F8001021F08071AF
:103780001143C8F800102868C04340000CD4DBF88F
:10379000001021F40041CBF80010DBF80010D5F840
:1037A000BC201143CBF800102868C04308D4374828
:1037B0006A6D016800E018E021F04051114301609A
:1037C0002868C043000208D4D5F88C20DAF800102D
:1037D00021F440011143CAF8001028790024C043A5
:1037E00000F0010020430AD00FE0D5F88020DAF87D
:1037F000001021F440711143CAF800109EE70198AF
:10380000002101F053FC00B106462879C04300F0C6
:103810000200204305D10198012101F047FC00B1CD
:1038200006462879C04300F00400204305D10198E2
:10383000022101F03BFC00B106462879C04300F0AC
:103840000800204305D10098002101F0BFFC00B121
:1038500006462879C04300F01000204305D10098A7
:10386000012101F0B3FC00B106462879C04300F005
:103870002000044304D10098022101F0A7FC00B904
:1038800016B10120BDE8FE8F0020FBE74C44025832
:103890002DE9F05F04000F467ED0DFF83882D8F8BB
:1038A000000000F00F00B8420CD2D8F8001021F050
:1038B0000F013943C8F80010D8F8000000F00F00DD
:1038C000B84269D12078844D40070AD5206929681B
:1038D00001F07001884204D9296821F07001014388
:1038E000296020787C4E361D00070AD56069316852
:1038F00001F07001884204D9316821F07001014360
:1039000031602078C0060AD5A069316801F4E06111
:10391000884204D9316821F4E061014331602078A4
:10392000DFF8B4B180060BF1080B0CD5E1695846FD
:10393000DBF8002002F07002914204D9026822F004
:1039400070020A430260207880070AD5E06829687F
:1039500001F00F01884204D9296821F00F010143C9
:1039600029602078C0073ED05B49A26828681839D2
:1039700020F47060104328606068022818D0032883
:1039800019D00968012819D0490700294ADADFF857
:1039900048A1AAF1080A00E044E0DAF8002022F089
:1039A00007020243CAF80020FEF7DEFD814612E05E
:1039B00009688903E9E709688901E6E7C905E4E7D9
:1039C000FEF7D2FDA0EB090141F28830814202D915
:1039D0000320BDE8F09F6168DAF8000000F03800CD
:1039E000B0EBC10FECD1207880070AD5E0682968D8
:1039F00001F00F01884204D2296821F00F01014330
:103A00002960D8F80010404601F00F01B9420BD9E7
:103A1000016821F00F0139430160006800F00F00D8
:103A2000B84201D00120D4E7207840070AD52069A8
:103A3000296801F07001884204D2296821F07001E0
:103A400001432960207800070AD56069316801F0D8
:103A50007001884204D2316821F070010143316065
:103A60002078C0060AD5A069316801F4E061884277
:103A700004D2316821F4E06101433160207880068E
:103A80000CD5E1695846DBF8002002F07002914243
:103A900004D2026822F070020A43026000F09AF831
:103AA0000E492A682B68C2F3032203F00F038A5CD5
:103AB000C95C02F01F0201F01F01D040084A20FA41
:103AC00001F111600749086007480068BDE8F05F30
:103AD000FEF7D8BF00200052184402585A6500086B
:103AE000100000240C0000240400002470B5144CC5
:103AF0003F220260124A24680832131D114D04F05F
:103B00000704446016681C1D06F47066866016681B
:103B100006F00F06C660126802F0700202611A68B1
:103B200002F0700242611A6802F4E0628261226867
:103B300002F07002C261286800F00F00086070BDDA
:103B4000104402580020005230B500F043F80B4AF0
:103B50000B490C4B15681468C5F3032204F00F04DD
:103B60008A5C095D02F01F0201F01F01D040064A85
:103B700020FA01F119601060084630BD184402585F
:103B80005A650008100000240C00002400B5FFF75F
:103B9000DBFF05490968054AC1F30211515C01F0D8
:103BA0001F01C84000BD00001C4402585A650008AF
:103BB00000B5FFF7C9FF05490968054AC1F30221AD
:103BC000515C01F01F01C84000BD00001C440258B8
:103BD0005A650008454970B545480968434B103B94
:103BE00011F0380208D00111082A03D0102A0BD096
:103BF000182A0BD0084670BD19688906FBD51968CC
:103C0000C1F3C101C84070BD3A4870BD3749374D56
:103C100018310C1D24350A68096826682D6802F0E1
:103C2000030406F00102C1F30511C5F3CC0515FB31
:103C300002F200EE102AB8EE400AE9B32F4ADFED97
:103C40002E0AB7EE001A6CB1DFED2D1A012C01D04F
:103C5000022C43D002EE101A1068F8EE422A81EED0
:103C6000A22A1EE01C68A40611D51B6801EE901A5A
:103C70001168C3F3C103F8EE612AD84001EE900A3F
:103C8000C1F30800F8EE611A81EEA22A0BE001EE02
:103C9000901ADFED1C2A00BFF8EE611A106882EE60
:103CA000A12AC0F3080001EE900AF8EE611A40EE76
:103CB000201A31EE810A00E015E022EE000A1068B9
:103CC000C0F34620401C00EE900AF8EE600A80EE39
:103CD000201ABCEEC10A10EE100A70BD01EE901A57
:103CE000DFED092AD8E7002070BD0000104402581B
:103CF0000090D003001BB700000000393044025888
:103D00000024744A0024744C001B374B2DE9F05FEB
:103D100004007DD0FF4F2078FE4D1837DFF8F49374
:103D2000103DC00748D0D9F80000396800F03800CD
:103D3000102815D0182803D101F0030002280FD055
:103D40006068B0F5803F12D010B1B0F5A02F18D048
:103D5000286820F480302860286820F4802009E05A
:103D60002868800328D560680028D2D024E028681D
:103D700040F480302860606888B1FEF7F5FB0646A5
:103D800009E0286840F480202860F0E7FEF7ECFBAB
:103D9000801B64286FD828688003F7D50CE0FEF7F5
:103DA000E3FB064605E000BFFEF7DEFB801B642850
:103DB000F0D828688003F7D4207841F20308D54E64
:103DC0000C3E800769D5D9F80000396810F038003A
:103DD0000ED0182801D188070AD0E06890B329686E
:103DE00021F0190101432960FEF7BEFB824631E054
:103DF0002868400702D5E06800288AD0E168286872
:103E000020F0190008432860FEF7AEFB824607E069
:103E1000DFE000BFFEF7A8FBA0EB0A000228B9D83C
:103E200028684007F6D500BFFEF798FB40451BD831
:103E30002069402812D0316821F47C3141EA0030F9
:103E400030602AE018E000BFFEF78EFBA0EB0A000E
:103E500002289FD828684007F6D5E5E7306820F4A7
:103E60007C3040F40030EBE7207C316821F0FE41EB
:103E700041EA0060E4E70DE1286820F001002860D5
:103E8000FEF772FB824605E0FEF76EFBA0EB0A0030
:103E900002288DD828684007F6D42078C0065DD562
:103EA000D9F80000DFF86CB2396800F03800ABF1E7
:103EB000040B082810D0182803D101F003000128B2
:103EC0000AD0E0690028286838D040F080002860D7
:103ED000FEF74AFB824623E02868C00523D5E06947
:103EE000802876D11FE0206A202821D0316821F077
:103EF000F84141EA8060306030E000BF94F8201063
:103F0000DBF8002022F07C5242EA0161CBF800107D
:103F100024E000BFFEF728FBA0EB0A00022898D897
:103F20002868C005F6D5FEF719FB4045E6D8DAE764
:103F3000306820F0F84040F08040DCE720F080005E
:103F40002860FEF711FB064605E000BFFEF70CFBFC
:103F5000801B02289DD82868C005F7D42078000768
:103F600029D56C486169643000298046016811D008
:103F700041F001010160FEF7F7FA064605E000BFD7
:103F8000FEF7F2FA801B0228C9D8D8F80000800793
:103F9000F6D510E021F001010160FEF7E5FA0646D2
:103FA00005E000BFFEF7E0FA801B022872D8D8F8BF
:103FB00000008007F6D42078800623D5A069002869
:103FC000286810D040F480502860FEF7CDFA0646ED
:103FD00005E036E1FEF7C8FA801B02285AD82868A7
:103FE0008004F7D50EE020F480502860FEF7BCFA7C
:103FF000064604E0FEF7B8FA801B02284AD8286873
:104000008004F7D4207840074FD5DFF80C81D8F82A
:10401000001041F48071C8F80010FEF7A5FA0646BA
:1040200005E000BFFEF7A0FA801B642832D8D8F85C
:104030000000C005F6D5374EA068603601280AD0CA
:1040400008B1052813D0306820F0010030603068D6
:1040500020F0040002E0306840F001003060A06809
:1040600041F2883A90B1FEF77FFA80460AE0306864
:1040700040F004003060EEE7FEF776FAA0EB0801AE
:10408000514507D830688007F6D50EE0FEF76CFA88
:10409000804607E084E000BFFEF766FAA0EB080167
:1040A00051457DD830688007F6D4606AB0B3DFF838
:1040B0006480D9F8001008F120084FF6F87B08F169
:1040C0000409C1F3C2010329A8F1040A69D0022836
:1040D000286820F08070286003D0FEF745FA044677
:1040E00084E0FEF741FA064605E000BFFEF73CFA21
:1040F000801B022877D828688001F7D4E26A40F252
:10410000F331386854F8283F884340EA02101843D6
:10411000386004E01044025800480258B5E0217BA2
:10412000434622894FF4FE0C208A4FF0FE47490295
:10413000267D521E401EA1F50071C2F308088AB206
:10414000761E0CEA004042EA08020243504607EAA3
:1041500006610A431A60DAF8002022F00102CAF868
:104160000020D9F80020266A22EA0B0242EAC602A1
:10417000C9F80020DAF80010A26921F00C011143FF
:10418000CAF800100168E26921F0020111430160E0
:10419000016841F480310160016841F4003101E0BF
:1041A00021E027E00160016841F48021016001689D
:1041B00041F001010160286840F080702860FEF73E
:1041C000D3F9044605E000BFFEF7CEF9001B022834
:1041D00009D828688001F7D557E000BFFEF7C4F979
:1041E000001B022802D90320BDE8F09F2868800147
:1041F000F4D44AE039680128D8F8000021D0A26A36
:1042000001F0030393421CD1E26AC1F305118A4213
:1042100017D1216BC0F30802491E8A4211D1616B8C
:10422000C0F34622491E91420BD1A16BC0F3064256
:10423000491E914205D1E16BC0F30660491E8142DF
:1042400001D00120D0E7A16C4E46D9F80000C0F3A0
:10425000CC00814219D0DAF80000554620F0010068
:10426000CAF80000FEF780F94FEA0007FEF77CF974
:10427000B842FBD0A26C306820EA0B0040EAC200D2
:104280003060286840F0010028600020ACE77047EB
:1042900070477047F0B590F83C20012A3BD01F4E84
:1042A000012480F83C40022280F83D2002681C4D29
:1042B0005368B242D2F808C001D0AA4203D14F6875
:1042C00023F470033B430F6823F070031F435760D0
:1042D0000268B24213D0B2F1804F10D0114B9A4213
:1042E0000DD0114B9A420AD0104B9A4207D0AA42E5
:1042F00005D00F4B9A4202D00E4B9A4204D18968E6
:104300002CF0800319439160002180F83D4080F833
:104310003C100846F0BD0220F0BD00000000014046
:10432000000401400004004000080040000C004070
:10433000001800400040014010B5040003D094F87C
:104340003D0010B107E0012010BD002084F83C00C2
:10435000204600F023F8022084F83D002068211D4B
:1043600001F092F8012084F8480084F83E0084F8B7
:104370003F0084F8400084F8410084F8420084F84B
:10438000430084F8440084F8450084F8460084F82B
:10439000470084F83D00002010BD000008B500680B
:1043A000B0F1804F12D10A48016841F0010101606B
:1043B00000680022114600F0010000901C20FEF76A
:1043C000DFFBBDE808401C20FEF7CCBB08BD0000A9
:1043D000E844025890F83D10012901D001207047AF
:1043E000174A022180F83D100168CB6843F00103B1
:1043F000CB600068904214D0B0F1804F11D01149C9
:1044000088420ED0104988420BD01049884208D00B
:104410000F49884205D00F49884202D00E49884290
:1044200007D181680D4A1140062906D0B1F5803FB9
:1044300003D0016841F001010160002070470000D5
:10444000000001400004004000080040000C004053
:104450000004014000180040004001400700010036
:1044600070B5044690F83C000025012814D03A4B62
:10447000012684F83C60022084F83D0022689068A0
:10448000184020F47F409060086870282FD010DC1E
:1044900010F00F0F03D022E04FF0020070BD4FEA82
:1044A0002012072A1BD2DFE802F0535353534B3933
:1044B0004100B0F1101F4BD009DCB0F5805F0FD088
:1044C000B0F5005F1ED0B0F5801F08D140E0A0F528
:1044D000801120393CD010293AD0202938D001252C
:1044E00084F83D60002084F83C00284670BD4A688E
:1044F0002068D1E9021301F029F82068816841F0B1
:10450000770109E04A682068D1E9021301F01EF83A
:104510002068816841F480418160E1E7CA684968A8
:10452000206801F027F82068502106E0CA68496831
:10453000206801F030F82068602101F011F8CFE721
:10454000CA684968206801F015F820684021F4E73E
:10455000226801461046F0E788FFCEFF704770B52D
:104560000446006800250169C943890715D4C1685C
:10457000C943890711D4EA1E02610121217720680D
:1045800080698007204602D0FFF7E8FF04E000F0D2
:10459000A7F8204600F0A5F8257720680169C943EF
:1045A000490717D4C168C943490713D402216FF0E2
:1045B0000402026121772068806910F4407F204660
:1045C00002D0FFF7CBFF04E000F08AF8204600F0AD
:1045D00088F8257720680169C943090716D4C1689E
:1045E000C943090712D404216FF008020261217740
:1045F0002068C0698007204602D0FFF7AFFF04E0C3
:1046000000F06EF8204600F06CF82577206801690C
:10461000C943C90617D4C168C943C90613D40821C0
:104620006FF01002026121772068C06910F4407FAA
:10463000204602D0FFF792FF04E000F051F8204638
:1046400000F04FF8257720680169C943C90708D1F0
:10465000C168C943C90704D1891E0161204600F021
:1046600041F820680169C943090609D4C168C943F2
:10467000090605D46FF0800101612046FFF708FEAE
:1046800020680169C943C90509D4C168C94309063D
:1046900005D46FF4807101612046FFF7F8FD2068B2
:1046A0000169C943490609D4C168C943490605D40B
:1046B0006FF040010161204600F034F82068016984
:1046C000C94389060BD4C168C943890607D46FF072
:1046D000200101612046BDE87040FFF7DABD70BDE2
:1046E0007047704710B504460948844207D100F06E
:1046F00067FC094909489FED070AFDF7B7FB084920
:104700002068884203D1BDE81040FEF785B910BD8E
:10471000DC000024A69B443B140200240802002471
:1047200000000140704730B590F88410012918D07E
:10473000012280F884202421C0F88810002220243F
:1047400001680B680D6823F0005325F001050D602A
:10475000426601680B60C0F8884080F884201046EB
:1047600030BD022030BD70B5044690F884000128A9
:104770001DD0012284F884202420C4F888002068F9
:104780000568026822F0010202602068826822F057
:1047900060620A438260204600F010FF22682021F8
:1047A00000201560C4F8881084F8840070BD0220D1
:1047B00070BD70B5044690F8840001281DD0012218
:1047C00084F884202420C4F88800206805680268E2
:1047D00022F0010202602068826822F060420A43EF
:1047E0008260204600F0EAFE226820210020156049
:1047F000C4F8881084F8840070BD022070BD10B524
:10480000040003D0D4F8880010B107E0012010BDE7
:10481000002084F88400204600F026F82420C4F804
:1048200088002068016821F001010160204600F045
:10483000CBFF0128EBD0A06A10B1204600F0E0FECB
:104840002068416821F4904141602068816821F02E
:104850002A0181602068016841F001010160204661
:10486000BDE8104000F030BF10B5B6B004461421CA
:1048700030A8FBF7F8FEC0216846FBF7F4FE1949A3
:10488000206888422BD100201F9001210446CDE9E9
:1048900000106846FEF726FB08B1FDF7E5FA12485E
:1048A000016841F010010160006800F010003590CF
:1048B0000D481038016841F002010160006830AB1A
:1048C000022100F0020035904FF44040042283E8BA
:1048D0001300064830A9CDE93342FDF729FD36B073
:1048E00010BD000000100140F044025800040258BE
:1048F0002DE9F8430446D0F88800984616460D4640
:10490000202802D00220BDE8F883A5B19EB1002185
:10491000C4F890102120C4F888001834FDF724FE54
:10492000814654F8100CA687E6872027183CB0F57E
:10493000805F02D003E00120E5E7206910B12E4638
:10494000002510E000260EE08021204601F012F93B
:10495000C0B9DEB116F8010B21688862B4F85600C0
:10496000401EA4F85600B4F856004B464FF0000223
:10497000CDF800800028E7D14FF04001204601F03B
:10498000F9F848B1C4F888700320BCE735F8020B89
:104990002168C0F30800E0E7C4F888700020B2E79F
:1049A000FEE701688A69D243920701D400228A6235
:1049B00000688169C943C90703D0816941F00101D9
:1049C000816170472DE9F04704460068002689465A
:1049D00017464FF0200835468169C90641D5102198
:1049E000C1612FE0B9F1FF3F2CD0FDF7BDFDC11B28
:1049F000494502D8B9F1000F24D12068426894F8E3
:104A00004210836902F48042DB431B0415D4B2F5E3
:104A1000804F12D0202910D0416841F4804141607C
:104A2000FDF7A2FD074608E0FDF79EFDC01B192813
:104A300003D9012645F0200504E020688069C043C1
:104A40008006F1D420688069C043800602D5002E1C
:104A5000C8D003E016B92168C1F81C80012645F0D2
:104A6000040521688869C20505D54FF48072CA61C2
:104A700045F00105012641050AD5216880054FF45E
:104A8000806245F00805CA614FF0010602D40AE0D1
:104A9000800507D5206801264FF4007145F0020516
:104AA000C16100E08EB12046FFF77BFF2068002146
:104AB000074F43683B404360606C2843606484F860
:104AC000418084F8421084F840103046BDE8F087F9
:104AD00000E800FE2DE9F843174604461548DAB20F
:104AE000DDE908981E4600900023204600F056F8A5
:104AF00042464946204600F0CCF8B8B9012EFDB236
:104B000008D02068390A816242464946204600F0B2
:104B1000C0F858B920688562002240214B462046E3
:104B2000CDF8008000F052F8002800D00120BDE848
:104B3000F8830000002000802DE9F8430446164861
:104B400017461E46DAB20090C3022046DDE90898F7
:104B500000F024F842464946204600F09AF8B8B9D9
:104B6000012EFDB208D02068390A816242464946CA
:104B7000204600F08EF858B9206885620022802116
:104B80004B462046CDF8008000F020F8002800D0E9
:104B90000120BDE8F88300000020008070B50068A7
:104BA000C1F3090141EA0241074D049C19434FF446
:104BB00080664268214306EA54532B439A4321F00E
:104BC00000410A43426070BDFF63FF032DE9F041DD
:104BD0001E4617460D460446DDF8188021E0701C7D
:104BE0001FD0FDF7C1FCA0EB0800B04200D8C6B949
:104BF0002068806935EA000011D00020B84210D149
:104C0000626C002084F84000202142F0200262649F
:104C100084F8411084F842000120BDE8F0810120B1
:104C2000ECE72068806935EA000004D00020B84233
:104C3000D5D00020F1E70120F9E770B516460D4602
:104C400004461FE0324629462046FFF7BBFE08B166
:104C5000012070BDFDF788FC801BA84200D88DB9EB
:104C600020688069C04380060CD5626C002084F8FF
:104C70004000202142F02002626484F8411084F850
:104C80004200E5E720688069C0438006DAD400204E
:104C900070BD70B516460D46044621E032462946E1
:104CA0002046FFF78FFE08B1012070BD681C17D0A9
:104CB000FDF75AFC801BA84200D88DB92068806996
:104CC000C04380070CD5626C002084F8400020218E
:104CD00042F02002626484F8411084F84200E3E765
:104CE00020688069C0438007D8D4002070BD0000D0
:104CF00010B51E48FDF794FC80216B2000F094F85D
:104D000000216B2000F090F8032000F058F80020FC
:104D100000F050F8322000F06FF80021382000F049
:104D200083F800216A2000F07FF80021232000F0A2
:104D30007BF88021372000F077F8752000F022F80A
:104D4000044601460AA0FBF7A7FB682C01D001200E
:104D500010BD01216B2000F067F800216C2000F0ED
:104D600063F8322000F048F8002010BD88000024CD
:104D70000D0A4D5055363035303A30782532780DA1
:104D80000A0000001FB5002140F6FF7401238DF8D2
:104D90000C1003AA8DE81C00D12102460448FDF73F
:104DA0009BFC6420FDF7B2FA9DF80C0004B010BD26
:104DB00088000024C006010E1C2000F035B8C00693
:104DC000010E1B2000F030B8BC2801D3012110E0F7
:104DD000622801D302210CE02A2801D3032108E034
:104DE000142801D3042104E00A2801D3052100E09E
:104DF00006211A2000F018B810B504464FF47A7056
:104E0000844201D9044602E0042C00D20424B0FB01
:104E1000F4F0401EC1B2192000F006F86008BDE8A9
:104E20001040FFF7D1BF00001FB5012203AB8DF882
:104E30000C1040F6FF71CDE90032134602460548DA
:104E40000291D021FDF7FAFC6420FDF75FFA04B06F
:104E5000002010BD880000240D4808B5016841F00D
:104E600080010160016801F080010091016841F05A
:104E700002010160016801F002010091016841F046
:104E800001010160006800F00100009008BD000011
:104E9000E04402581348002110B5114C0123124A76
:104EA0000460C0E90121C0E9033141618161C16150
:104EB0000162FDF7B5FB08B1FCF7D6FF09480021F8
:104EC000FDF758FB08B1FCF7CFFF06480021FDF7BE
:104ED0007DFB002803D0BDE81040FCF7C5BF10BD26
:104EE0000054004088000024D38D801010B588B095
:104EF00016480024164B8F2200944FF080410194F5
:104F00000294039404940594069480E81600C0E982
:104F100003348461FFF710FA08B1FCF7A5FF4FF4E2
:104F20008050009009486946FFF79AFA08B1FCF7EB
:104F30009BFF064804A904940694FFF7ABF90028E8
:104F400001D0FCF791FF08B010BD0000DC00002488
:104F5000A08601001848002110B5164C0C224FF411
:104F6000E1330460C0E90131C160C0E9041281612C
:104F7000C161016241628162FFF741FC08B1FCF747
:104F800073FF0D480021FFF714FC08B1FCF76CFF1C
:104F900009480021FFF7E7FB08B1FCF765FF064869
:104FA000FFF7C1FB002803D0BDE81040FCF75CBF51
:104FB00010BD00000010014028010024FEE70000A1
:104FC0002DE9F04186B040F6FF740625314803AF65
:104FD000009701233B22D121CDE90154FDF77CFB51
:104FE000B81D0294CDE900052A4801234322D121AE
:104FF000FDF772FBDFF8A0800024284D032C37F862
:10500000142038F81410286852BAA2EB010120F8D5
:10501000141017D230F9140004EB44021F4900EEBB
:10502000100A091D01EBC206B8EEC00A304601F0B5
:10503000AFF996ED020A2968BDEEC00A10EE100A1B
:1050400021F81400022C1ED91349E01EC0B20C3105
:1050500001EB80002968DFED120A9FED120A90ED46
:10506000001A31F9142061EE200A01EE102AB8EE80
:10507000C11A41EE000AC0ED000ABDEEE00A10EED2
:10508000100A21F81400641CE4B2062CB6D306B052
:10509000BDE8F081880000242002002414000024D0
:1050A0009A99593F9A99193EFEE770472DE9F047C2
:1050B000454D044689464FF0000A2868C0438007E2
:1050C0000AD0414E283E306820F080603060FDF705
:1050D0004BFA0746B04608E00120BDE8F08700BF64
:1050E000FDF742FAC01B022867D8D8F8000000017B
:1050F000F6D4206829684FF4FE0721F47C313E0283
:1051000041EA00302860207AA389B4F804C0400244
:105110002D4D2D495B1E227CACF1010C1035091D73
:10512000A0F5007080B2521ECCF3080C07EA0343CE
:1051300040EA0C00184306EA02621043286008683F
:10514000626920F0C000104308600A68A06922F07C
:10515000200202430A60281D0A6822F010020A6039
:1051600002684FF6F873E4699A4342EAC4020260A7
:105170000868B9F1000F40F010020A6011D0086809
:10518000B9F1010F11D040F400100860D8F8000008
:10519000444640F08060C8F80000FDF7E5F9054698
:1051A0000DE0086840F40020EFE740F48010ECE7E1
:1051B000FDF7DAF9401B022801D903208DE72068AA
:1051C0000001F5D5504688E7284402582DE9F047FC
:1051D000454D044689464FF0000A2868C0438007C1
:1051E0000AD0414E283E306820F080503060FDF7F4
:1051F000BBF90746B04608E00120BDE8F08700BFD4
:10520000FDF7B2F9C01B022867D8D8F8000080006B
:10521000F6D4208829684FF4FE0721F07C713E0205
:1052200041EA00502860207AA389B4F804C0400203
:105230002D4D2D495B1E227CACF1010C1835091D4A
:10524000A0F5007080B2521ECCF3080C07EA0343AD
:1052500040EA0C00184306EA02621043286008681E
:10526000626920F44060104308600A68A06922F473
:10527000007202430A60281D0A6822F480720A60E4
:1052800002684FF6F873E4699A4342EAC402026086
:105290000868B9F1000F40F480720A6011D0086804
:1052A000B9F1010F11D040F080700860D8F800000B
:1052B000444640F08050C8F80000FDF755F9054617
:1052C0000DE0086840F48000EFE740F40000ECE7F0
:1052D000FDF74AF9401B022801D903208DE7206819
:1052E0008000F5D5504688E728440258704770473B
:1052F00030B59DB04C216846FBF7B5F9202113A8C5
:10530000FBF7B1F90220FDF76DFC2049002420488D
:105310000A6822F001020A600968016841F440410C
:105320000160016801F440411B9101688904FCD5CA
:10533000022009900121C20318230C25CDE9001297
:105340000AAA82E80B000D90CDE910540E900F9040
:1053500068461294FEF7DAFC08B172B6FEE713ADA8
:1053600040203F21032285E8160003011A90CDE971
:1053700016400221CDE9180313A8FEF789FA002888
:1053800001D072B6FEE71DB030BD00002C040058FD
:10539000184802582C48F0B52C4A016841F47001B5
:1053A0000160106800F00F00072804D2106820F098
:1053B0000F00C01D106026490020254C10340B68DA
:1053C000244D43F001030B6020600B682B400B6001
:1053D000136803F00F03072B04D9136823F00F039E
:1053E000DB1D13601A4C1C4A18341C4B261D371D3C
:1053F0002060174C1A4D28343060261D3860371D48
:1054000023603B1D35601C1D3A60251D2E1D186054
:10541000331D22602860326018600A680C4B114C02
:1054200022F4802260330A60186020686FF30F0056
:10543000B0F1005F03D20C490120C1F8080143F22A
:10544000D2000A490860F0BD88ED00E0002000525B
:10545000004402587FEDF6EA8002010100020202D8
:105460000000FF010010005C00800051004000526D
:105470000148FFF774B80000BC0100240148FFF7A1
:105480006EB80000DC0000242DE9F047274B4FF0F8
:10549000804A274D02689842264E274F274C09D054
:1054A000504507D0A84205D0B04203D0B84201D041
:1054B000A04205D1D1F804C022F070024CEA0202E9
:1054C000DFF87CC0DFF87C809842DFF87C900FD05A
:1054D00050450DD0A8420BD0B04209D0B84207D0F9
:1054E000A04205D0604503D0404501D0484503D1D6
:1054F000CD6822F440722A434D6922F080022A438B
:10550000026098428A68C2620A68826207D0A0423A
:1055100005D0604503D0404501D0484501D1096917
:10552000016301214161BDE8F087000000000140F6
:105530000004004000080040000C0040000401404E
:1055400000400140004401400048014042EA03227B
:1055500083680A4323F47F410A4382607047000056
:10556000034B82681A400A4342F00701816070478A
:105570008FFFCFFF10B5036A046A23F00A0324F0FB
:105580000104046284690B4324F0F00141EA021132
:105590008161036210BD10B5036A23F0100303623A
:1055A0008369046A23F4704324F0A00443EA0232BE
:1055B000826144EA0111016210BD000030B5416E04
:1055C000B9B101680D4B03F108048A688968C2F318
:1055D0004262490F5D5C615C2D01B5FBF1F1A0F801
:1055E0006A10995CA25C0901B1FBF2F1A0F86810A5
:1055F00030BD0121A0F86A10F8E700004A650008F4
:1056000090F82810C90706D00168C36A4A6822F4D6
:1056100000321A434A6090F82810890706D50168BD
:10562000036B4A6822F480321A434A6090F82810CB
:10563000490706D50168436B4A6822F480221A4361
:105640004A6090F82810090706D50168836B4A68FC
:1056500022F400421A434A6090F82810C90606D581
:105660000168C36B8A6822F480521A438A6090F8FA
:105670002810890606D50168036C8A6822F4005256
:105680001A438A6090F82810490611D50168436CC6
:105690004A6822F480121A434A60416CB1F5801FB7
:1056A00006D10168836C4A6822F4C0021A434A603A
:1056B00090F82810090606D50168C26C486820F4E5
:1056C00000201043486070472DE9F8430025044648
:1056D000C0F89050FCF748FF8046206820266FF005
:1056E0007E470068000713D5002243463104204658
:1056F000009700F03FFA58B1216851E8000F20F000
:10570000800041E80002002AF6D1C4F8886021E058
:1057100020680068400722D5002243464FF48001EC
:105720002046009700F026FAC8B1206850E8001F14
:1057300021F4907140E80012002AF6D12068083068
:1057400050E8001F21F0010140E80012002AF5D1C5
:10575000C4F88C60032084F88450BDE8F883C4F852
:105760008860C4F88C60E5662567002084F8845062
:10577000F3E7000010B5026852E8001F21F49071B1
:1057800042E80013002BF6D10E4B0268083252E8B3
:10579000001F194042E80014002CF6D1C16E012907
:1057A00008D1026852E8001F21F0100142E80013FE
:1057B000002BF6D100212022C0F88C20C166416761
:1057C00010BD0000FEFFFFEF2DE9F04304468068A6
:1057D000D84E87B0D84B2168D4E90427D4F81CC030
:1057E00010430A68002547EA0C0738433240024359
:1057F0000A602068E268416821F440511143416029
:105800002268A1699A4201D0206A01439768DFF8B3
:105810002CC3CB4ECB4807EA0C070F439760216897
:10582000676ACA6A22F00F023A43CA622268B24229
:105830000ED1006800F03800182873D047DCB8B3E8
:10584000082879D010286FD178E028287ED17BE015
:10585000BD498A4209D1006800F00700062875D2C8
:10586000DFE800F0546A6C6E7072B8498A4209D160
:10587000006800F00700062868D2DFE800F0475D06
:105880005F616365B2498A4209D1006800F0070090
:1058900006285BD2DFE800F03A5052545658AD4922
:1058A0008A420BD1006800F0070006284ED200E0C3
:1058B00010E0DFE800F02B4143454749A6498A4202
:1058C0000AD1006800F03800182839D0B7DD202848
:1058D000BBD13CE001203AE0A0498A4209D10068EE
:1058E00000F00700062831D2DFE800F01026282A51
:1058F0002C2E9B498A420BD1006800F00700062835
:1059000024D2DFE800F003191B1D1F2100201EE038
:105910009A421BD18B48001D006800F00700062842
:1059200014D202E00CE007E010E0DFE800F003052D
:1059300007090B0D02200AE0042008E0082006E019
:10594000102004E0202002E0402000E08020854973
:10595000DFF814829A42854A4FF400434FEA211738
:105960004FF000064ED110281AD006DC022809D0CC
:1059700004280BD008287CD10DE020283ED04028F8
:1059800077D13DE0FDF758F9014610E06846FDF794
:1059900065F901990BE003A8FDF702FA049906E006
:1059A0001068800605D51068C0F3C100C140002909
:1059B00070D0606A676838F8102007EB4703B1FBC6
:1059C000F2F0834255D8B0EB073F52D80023084687
:1059D0001946FAF7E9FC02467808130E120243EA68
:1059E000012110183A4671410023FAF7DDFC604AA4
:1059F000A0F5407191423CD821688FE03946D8E744
:105A00001946D6E7D4F81CC04FF6EF799C4546D12D
:105A1000082819D005DC58B101280CD0042875D10C
:105A20000DE0102815D0202835D040286ED134E064
:105A3000FEF7ACF801E0FEF7BBF8014610E068465F
:105A4000FDF70CF901990BE003A8FDF7A9F90499FA
:105A500006E01068800604D51068C0F3C100C1409C
:105A6000C1B1636A606838F81330B1FBF3F14900E3
:105A700000E04BE001EB5001B1FBF0F0A0F11001B0
:105A8000494543D84FF6F0732168C0F342021840ED
:105A9000104343E043E03946E3E71946E1E70828CD
:105AA00019D005DC58B101280CD004282ED10DE006
:105AB000102815D020282BD0402827D12AE0FEF727
:105AC00065F801E0FEF774F8014610E06846FDF75E
:105AD000C5F801990BE003A8FDF762F9049906E007
